:100000000C946A000C948B000C948B000C948B0065
:100010000C948B000C948B000C948B000C948B0034
:100020000C948B000C948B000C948B000C948B0024
:100030000C948B000C948B000C948B000C948B0014
:100040000C948B000C948B000C948B000C948B0004
:100050000C948B000C948B000C948B000C948B00F4
:100060000C948B000C940F060C948B000C948B005A
:100070000C948B000C948B000C948B000C948B00D4
:100080000C948B000C948B000C948B000C948B00C4
:100090000C9469010C948B000C948B000C948B00D5
:1000A0000C948B000C948B000C948B000C948B00A4
:1000B0000C948B000C948B000C948B000C948B0094
:1000C0000C948B000C948B000C948B000C94BC0152
:1000D0000C94930111241FBECFEFD1E2DEBFCDBF40
:1000E00000E00CBF13E0A0E0B2E0ECE6FAE100E0D3
:1000F0000BBF02C007900D92A43EB107D9F726E0CE
:10010000A4EEB3E001C01D92A836B207E1F70E9449
:10011000A5060C94340D0C940000AC0120E030E0F6
:100120000CC08091C80085FFFCCFFA01E20FF31FDD
:1001300080818093CE002F5F3F4F261737078CF3C7
:100140000895DC019091640480916504981711F47E
:1001500080E008959091640480916504981719F4E3
:1001600020E030E017C090916404809165049817F6
:1001700038F48091650490916404282F30E008C021
:100180008091650490916404282F30E020583F4FFF
:10019000291B3109A901621773070CF4AB0120E098
:1001A00030E020C09091640480916504981711F4A8
:1001B0009FEF12C0E0916404F0E0EC51FC4F90819D
:1001C000809164048F3719F41092640405C0809103
:1001D00064048F5F80936404FD01E20FF31F90833A
:1001E0002F5F3F4F24173507ECF2842F089590912D
:1001F000640480916504981719F420E030E017C07A
:100200009091640480916504981738F48091650496
:1002100090916404282F30E008C08091650490918B
:100220006404282F30E020583F4F291B3109C901B1
:100230000895482F90916404809165049817D1F037
:100240009091640480916504981738F48091650456
:1002500090916404282F30E008C08091650490914B
:100260006404282F30E020583F4F291B31092F37D5
:10027000310591F0E0916504F0E0EC51FC4F4083D2
:10028000809165048F3719F4109265040895809168
:1002900065048F5F80936504089590916404809154
:1002A0006504981711F4EFEF12C0E0916404F0E0D8
:1002B000EC51FC4FE081809164048F3719F4109267
:1002C000640405C0809164048F5F809364048E2F62
:1002D00008951F920F920FB60F920BB60F92112432
:1002E0002F933F934F935F936F937F938F939F933E
:1002F000AF93BF93EF93FF938091CE000E941901BB
:10030000FF91EF91BF91AF919F918F917F916F91ED
:100310005F914F913F912F910F900BBE0F900FBEA9
:100320000F901F901895DF93CF930F920F92CDB738
:10033000DEB7982F8A3099F48DE089839A83FE0185
:1003400031969E012D5F3F4F8091C80085FFFCCF05
:1003500081918093CE00E217F307B1F706C0809138
:10036000C80085FFFCCF9093CE0080E090E00F9016
:100370000F90CF91DF91089590916404809165046E
:100380009817D1F39091640480916504981738F41C
:100390008091650490916404282F30E008C080911A
:1003A000650490916404282F30E020583F4F291BAA
:1003B0003109232B09F39091640480916504981707
:1003C00011F4EFEF15C0E0916404F0E0EC51FC4F44
:1003D000E081809164048F3719F41092640405C0A1
:1003E000809164048F5F80936404ED3009F4EAE047
:1003F0008E2F90E008950E94A8079B01AC0160E059
:1004000074E284EF99E40E9412070E947A07615017
:10041000704022E42093C80028E92093C90026E018
:100420002093CA002FEF2093CE0010926404109204
:100430006504272F332727FD3A952093CD0060933D
:10044000CC007298739A83E991E06CEB71E00E94A2
:10045000BF0890936704809366040895809100021A
:1004600090910102089580936A04089580936C042A
:100470000895FC01E859FB4F6583089580936B0450
:10048000089520E030E090910C05982311F021E0D0
:1004900030E0C901089580910B0590E00895FC01BA
:1004A000E85FFA4F858190E00895362F20E0280F0D
:1004B000391FC9010895282F30E0C90108958070BF
:1004C000892F90E008950F931F93CF93DF9380912E
:1004D000500590915105892B09F4BBC080916A04A5
:1004E0008E3F09F4ACC08091000290910102892BEB
:1004F00029F410924F0586E080934E0580914F05B8
:1005000090E060914E0570E0681B790B885F9A4F10
:100510000E94E20590914F05980F90934F058091AE
:100520004E05981720F40E94EC04019771F0709129
:100530004F05472F50E0DA0111978A010250104011
:1005400060E0ED01C85FDA4F18C080914F05882345
:1005500009F072C086E090E074C0F901E85FFA4FDC
:1005600080818F3F19F481818F3F61F0201731071F
:1005700019F488818F3F31F06F5F262F30E02A1702
:100580003B075CF36623A1F090E0421B530B08C0CD
:10059000E85FFA4FDF01A20FB31F8C9180839F5F4A
:1005A000E92FF0E0E417F5079CF3761B70934F05F5
:1005B00020914F0580914E05281730F190916A04E3
:1005C00080910A059817C1F560910B056C5F6093E7
:1005D0004E05261790F4822F90E070E0681B790B8F
:1005E000885F9A4F0E94E20590914F05980F909373
:1005F0004F0580914E05981738F080910B05A82F74
:10060000B0E020E090E00CC085E090E09093010223
:10061000809300021EC0E85FFA4F8281980F2F5F1F
:10062000E22FF0E0AE17BF07B4F7A85FBA4F90957E
:1006300013968C91891719F087E090E002C081E051
:1006400090E0909301028093000210925105109265
:100650005005DF91CF911F910F9108951F938091C5
:10066000500590915105019709F460C081E090E038
:10067000909351058093500580916B04893940F423
:1006800090916C04892F8150863028F0933819F0AE
:1006900084E090E031C08FEF809368048093690418
:1006A00080916B04A82FB0E020E090E005C0E859ED
:1006B000FB4F8281980F2F5FE22FF0E0AE17BF074C
:1006C000B4F7A859BB4F909513969C938091000264
:1006D000909101020697029710F40E94B2041091C3
:1006E0006B041C5F88E694E0612F70E00E94B70401
:1006F000181759F082E090E0909301028093000275
:10070000109251051092500511C080916C048230F6
:1007100029F480916E0490E0069602C086E090E095
:100720000E94DB0410920102109200021F910895B2
:100730000E942E038091000290910102892B41F4C6
:100740000E94630280910002909101020597C1F31B
:100750000895282F8091500590915105892B99F487
:1007600020936A0483E080936C0460936D04CA0153
:1007700040936E04807090936F0485E080936B04C7
:100780000E9498030895FFCF282F809150059091E3
:100790005105892BB9F420936A0482E080936C049C
:1007A00060936D0480936E0484E080936B040E94D8
:1007B000980330910E0520E080910D05280F311D22
:1007C000C9010895FFCF282F8091500590915105C0
:1007D000892B79F420936A0483E080936C046093FE
:1007E0006D0440936E0484E080936B040E94980330
:1007F0000895FFCF282F8091500590915105892BA6
:1008000099F420936A0482E080936C0460936D04F1
:1008100081E080936E0484E080936B040E949803CF
:1008200080910D0590E00895FFCF282F809150050D
:1008300090915105892B59F420936A0481E08093AB
:100840006C0482E080936B040E9498030895FFCFAC
:100850000E94B10408950F931F938C016F5F7F4F27
:10086000882777FD8095982F0E94A8079B01AC01EF
:1008700060E074E284EF99E40E941207AB01BC01CE
:10088000C8010E945804892B19F420E030E00CC004
:1008900081E090E090930102809300021092510554
:1008A0001092500521E030E0C9011F910F91089589
:1008B000EF92FF920F931F937A018B0182E4809352
:1008C000C00088E98093C10086E08093C20060E0A8
:1008D00074E284EF99E4A80197010E9412070E9434
:1008E0007A07615070407093C5006093C40060E067
:1008F00074E284E799E4A80197010E94120720E0BE
:1009000030E040E451E40E945C0860935606709326
:1009100057068093580690935906209156063091B9
:100920005706409158065091590660E070E08AE7FA
:1009300093E40E9412070E947A0770935506609311
:1009400054067298739A8FEF8093C60010925206E5
:100950001092530681E090E01F910F91FF90EF906D
:100960000895089580915306809352060895AC012E
:10097000F8947398729A20E030E011C08091C00022
:1009800085FFFCCF8091C00080648093C000FA0195
:10099000E20FF31F80818093C6002F5F3F4F261721
:1009A000370764F38091C00086FFFCCF7298739A7A
:1009B0007894C901089510925D0610925C0620910A
:1009C000540630915506265F3F4F280F391F30934C
:1009D0005B0620935A060895AF92BF92CF92DF92A2
:1009E000EF92FF920F931F9380915C0690915D06AA
:1009F000019690935D0680935C0620915C06309191
:100A00005D0680915A0690915B068217930718F451
:100A100021E030E074C0A0905606B0905706C09018
:100A20005806D0905906C601B5012BEA3AEA4AEABF
:100A300050E40E945C087B018C0120E030E040E83B
:100A40005FE30E940E07882314F461E054C0C801DC
:100A5000B70120E030E04FE753E40E945808181631
:100A60000CF045C0C601B50120E030E04AE754E48F
:100A70000E9412075B016C0120E030E04AE755E478
:100A80000E945C087B018C0120E030E040E85FE3DD
:100A90000E940E0788231CF461E070E024C0C801A6
:100AA000B70120E03FEF4FE757E40E9458081816BF
:100AB000B4F4C601B50120E030E040E251E40E9408
:100AC0005C080E947A0780E991E005C0FC0131973B
:100AD000F1F76150704061157105C1F70EC0C80192
:100AE000B7010E947A07CB010197F1F706C0C80150
:100AF000B7010E947A076A95F1F720E030E0C9015A
:100B00001F910F91FF90EF90DF90CF90BF90AF902B
:100B100008959091520680915306981719F420E099
:100B200030E017C09091520680915306981738F420
:100B30008091530690915206282F30E008C0809192
:100B4000530690915206282F30E020503F4F291B2A
:100B50003109C90108951F93182F0E9489058F3FFD
:100B6000910591F0E0915306F0E0EE5AFA4F1083B0
:100B7000809153068F3F19F41092530605C080915F
:100B800053068F5F809353061F91089590915206EC
:100B900080915306981711F4EFEF12C0E0915206BE
:100BA000F0E0EE5AFA4FE081809152068F3F19F43F
:100BB0001092520605C0809152068F5F80935206B4
:100BC0008E2F0895EF92FF920F931F93CF93DF9391
:100BD0007C01EB019091520680915306981719F40D
:100BE00000E010E014C00E9489058C01C817D907E5
:100BF0000CF48E01C0E0D0E007C00E94C605F701EA
:100C0000EC0FFD1F80832196C017D107B4F3C801F4
:100C1000DF91CF911F910F91FF90EF9008951F9258
:100C20000F920FB60F920BB60F9211242F933F9392
:100C30004F935F936F937F938F939F93AF93BF93E4
:100C4000EF93FF938091C6000E94AB05FF91EF9157
:100C5000BF91AF919F918F917F916F915F914F91D4
:100C60003F912F910F900BBE0F900FBE0F901F90D2
:100C7000189584309105A9F044F48230910571F003
:100C80000397C1F485E692E017C08630910579F0AC
:100C90005CF0079779F480EF92E00EC088E092E074
:100CA0000BC089E392E008C088E992E005C085ECBA
:100CB00092E002C089E193E00C941C0981E090E08D
:100CC0000E944102019721F485E393E00E941C09F0
:100CD00082E090E00E944102019721F48AE493E0CF
:100CE0000E941C0984E090E00E944102019721F4D7
:100CF0008DE593E00E941C0988E090E00E9441028B
:100D0000019721F48DE693E00E941C0980E190E0B8
:100D10000E944102019721F481E893E00E941C099E
:100D200080E290E00E944102019721F481E993E082
:100D30000E941C0980E490E00E944102019721F486
:100D400081EA93E00C941C090895CF93DF9300D0BF
:100D50001F92CDB7DEB71A8219828FEF9FE09C8376
:100D60008B8360E071EE80E090E00E94FB0161E027
:100D700070E080E090E00E942B04789489EB93E08F
:100D80000E941C0900E010E02AEDE22E23E0F22E82
:100D90006EE270E081E090E00E94FA036C010E9434
:100DA0002E0281309105B9F5CD2899F481E008270C
:100DB000F801EE0FFF1F81E090E08C0F9D1FE80F00
:100DC000F91F408151816EE170E081E090E00E9466
:100DD000A9030E945E0664E270E081E090E00E9458
:100DE000C4039F938F93F801EE0FFF1F81E090E003
:100DF0008C0F9D1FE80FF91F81818F9380818F9346
:100E0000FF92EF920E940A090F900F900F900F909F
:100E10000F900F90BDCF0E943906BACFD4D008F4FE
:100E200081E008950CD00AC102D140F0F9D030F031
:100E300021F45F3F19F0EBC0511134C1EEC00FD166
:100E400098F39923C9F35523B1F3951B550BBB2791
:100E5000AA2762177307840738F09F5F5F4F220F3E
:100E6000331F441FAA1FA9F333D00E2E3AF0E0E837
:100E700030D091505040E695001CCAF729D0FE2F83
:100E800027D0660F771F881FBB1F26173707480715
:100E9000AB07B0E809F0BB0B802DBF01FF279358CB
:100EA0005F4F2AF09E3F510568F0B1C0FBC05F3F25
:100EB000ECF3983EDCF3869577956795B795F795B3
:100EC0009F5FC9F7880F911D9695879597F90895AB
:100ED000E1E0660F771F881FBB1F62177307840747
:100EE000BA0720F0621B730B840BBA0BEE1F88F756
:100EF000E0950895BCD088F09F5790F0B92F9927BE
:100F0000B751A0F0D1F0660F771F881F991F1AF014
:100F1000BA95C9F712C0B13081F0C3D0B1E00895DD
:100F2000C0C0672F782F8827B85F39F0B93FCCF35E
:100F3000869577956795B395D9F73EF4909580950A
:100F4000709561957F4F8F4F9F4F0895E89409C02A
:100F500097FB3EF490958095709561957F4F8F4FEC
:100F60009F4F9923A9F0F92F96E9BB279395F69502
:100F7000879577956795B795F111F8CFFAF4BB0F80
:100F800011F460FF1BC06F5F7F4F8F4F9F4F16C0E4
:100F9000882311F096E911C0772321F09EE8872F6E
:100FA000762F05C0662371F096E8862F70E060E02A
:100FB0002AF09A95660F771F881FDAF7880F9695A3
:100FC000879597F90895990F0008550FAA0BE0E847
:100FD000FEEF16161706E807F907C0F012161306FB
:100FE000E407F50798F0621B730B840B950B39F43B
:100FF0000A2661F0232B242B252B21F408950A26A1
:1010000009F4A140A6958FEF811D811D089597F9E0
:101010009F6780E870E060E008959FEF80EC08959E
:1010200000240A94161617061806090608950024C7
:101030000A9412161306140605060895092E039441
:10104000000C11F4882352F0BB0F40F4BF2B11F4B5
:1010500060FF04C06F5F7F4F8F4F9F4F089557FD14
:101060009058440F551F59F05F3F71F04795880F16
:1010700097FB991F61F09F3F79F0879508951216AD
:1010800013061406551FF2CF4695F1DF08C0161659
:1010900017061806991FF1CF86957105610508940A
:1010A0000895E894BB2766277727CB0197F9089521
:1010B0008ADF08F48FEF08950BD0C0CFB1DF28F09E
:1010C000B6DF18F0952309F0A2CFA7CF1124EACFFD
:1010D000C6DFA0F3959FD1F3950F50E0551F629F97
:1010E000F001729FBB27F00DB11D639FAA27F00D81
:1010F000B11DAA1F649F6627B00DA11D661F829FA8
:101100002227B00DA11D621F739FB00DA11D621F8C
:10111000839FA00D611D221F749F3327A00D611DA9
:10112000231F849F600D211D822F762F6A2F11248B
:101130009F5750408AF0E1F088234AF0EE0FFF1FDE
:10114000BB1F661F771F881F91505040A9F79E3F15
:10115000510570F05CCFA6CF5F3FECF3983EDCF317
:10116000869577956795B795F795E7959F5FC1F752
:10117000FE2B880F911D9695879597F908950F93EB
:101180001F93CF93DF93EC018B01009731F461152E
:10119000710519F480E090E038C06EE070E081E005
:1011A00090E00E94440BFC010097A1F380E8838348
:1011B0000115110571F01387028781E883838091FF
:1011C0005E0690915F06892B21F4F0935F06E09311
:1011D0005E062097C9F0D187C087838182608383B0
:1011E0008091600690916106892B71F4F0936106FD
:1011F000E09360068091620690916306892B21F44A
:10120000F0936306E0936206CF01DF91CF911F91C7
:101210000F910895CF93DF93CDB7DEB7FE013696D9
:1012200061917191AF0180916006909161060E9479
:101230004909DF91CF9108950F931F93CF93DF93C7
:10124000E0916006F0916106238121FF1BC0EC0153
:1012500000E010E089916091600670916106DB0109
:101260001896ED91FC911997882331F01995892BE7
:1012700089F30FEF1FEFEECF8AE01995892B11F458
:10128000C80102C08FEF9FEFDF91CF911F910F91A7
:1012900008952F923F924F925F926F927F928F921A
:1012A0009F92AF92BF92CF92DF92EF92FF920F93F5
:1012B0001F93CF93DF93CDB7DEB72C970FB6F8947B
:1012C000DEBF0FBECDBF7C016B018A01FC0117821E
:1012D0001682838181FFBDC1CE0101964C01F701C9
:1012E0009381F60193FD859193FF81916F0188238E
:1012F00009F4ABC1853239F493FD859193FF819157
:101300006F01853229F4B70190E00E94A40CE7CF69
:10131000512C312C20E02032A0F48B3269F030F4D3
:10132000803259F0833269F420612CC08D3239F05B
:10133000803339F4216026C02260246023C02860F5
:1013400021C027FD27C030ED380F3A3078F426FF52
:1013500006C0FAE05F9E300D1124532E13C08AE0C0
:10136000389E300D1124332E20620CC08E3221F4B1
:1013700026FD6BC1206406C08C3611F4206802C0C3
:10138000883641F4F60193FD859193FF81916F01B9
:101390008111C1CF982F9F7D9554933028F40C5F15
:1013A0001F4FFFE3F9830DC0833631F0833771F0AF
:1013B000833509F05BC022C0F801808189830E5F0C
:1013C0001F4F44244394512C540115C03801F2E0BE
:1013D0006F0E711CF801A080B18026FF03C0652D3F
:1013E00070E002C06FEF7FEFC5012C870E94990C5F
:1013F0002C0183012C852F77222E17C03801F2E0B3
:101400006F0E711CF801A080B18026FF03C0652D0E
:1014100070E002C06FEF7FEFC5012C870E94870C40
:101420002C012C852068222E830123FC1BC0832DD8
:1014300090E048165906B0F4B70180E290E00E94AF
:10144000A40C3A94F4CFF50127FC859127FE8191F5
:101450005F01B70190E00E94A40C31103A94F1E0D2
:101460004F1A51084114510471F7E5C0843611F048
:10147000893639F5F80127FF07C0608171818281C3
:1014800093810C5F1F4F08C060817181882777FDB1
:101490008095982F0E5F1F4F2F76B22E97FF09C0B1
:1014A00090958095709561957F4F8F4F9F4F2068E5
:1014B000B22E2AE030E0A4010E94D60CA82EA81873
:1014C00044C0853729F42F7EB22E2AE030E025C0B3
:1014D000F22FF97FBF2E8F36C1F018F4883579F0DE
:1014E000B4C0803719F0883721F0AFC02F2F2061AA
:1014F000B22EB4FE0DC08B2D8460B82E09C024FF1F
:101500000AC09F2F9660B92E06C028E030E005C0C3
:1015100020E130E002C020E132E0F801B7FE07C070
:1015200060817181828193810C5F1F4F06C0608151
:10153000718180E090E00E5F1F4FA4010E94D60CE5
:10154000A82EA818FB2DFF77BF2EB6FE0BC02B2DA3
:101550002E7FA51450F4B4FE0AC0B2FC08C02B2D97
:101560002E7E05C07A2C2B2D03C07A2C01C0752C41
:1015700024FF0DC0FE01EA0DF11D8081803311F4BE
:10158000297E09C022FF06C07394739404C0822F81
:10159000867809F0739423FD13C020FF06C05A2CEF
:1015A000731418F4530C5718732C731468F4B701A0
:1015B00080E290E02C870E94A40C73942C85F5CFD8
:1015C000731410F4371801C0312C24FF12C0B70176
:1015D00080E390E02C870E94A40C2C8522FF17C08A
:1015E00021FF03C088E590E002C088E790E0B701E2
:1015F0000CC0822F867859F021FD02C080E201C024
:101600008BE227FD8DE2B70190E00E94A40CA514A7
:1016100038F4B70180E390E00E94A40C5A94F7CF0D
:10162000AA94F401EA0DF11D8081B70190E00E94B7
:10163000A40CA110F5CF332009F451CEB70180E2FC
:1016400090E00E94A40C3A94F6CFF701868197812E
:1016500002C08FEF9FEF2C960FB6F894DEBF0FBE3F
:10166000CDBFDF91CF911F910F91FF90EF90DF9051
:10167000CF90BF90AF909F908F907F906F905F9032
:101680004F903F902F9008950F931F93CF93DF9328
:10169000869F8001879F100D969F100D1124C80111
:1016A0000E94600BEC01009729F0A80160E070E057
:1016B0000E94920CCE01DF91CF911F910F9108955E
:1016C000CF93DF938230910510F482E090E0E091B7
:1016D0006606F091670620E030E0A0E0B0E03097C9
:1016E00039F14081518148175907B8F04817590717
:1016F00071F482819381109729F013969C938E93B5
:1017000012972CC0909367068093660627C0211518
:10171000310531F04217530718F0A901DB0101C070
:10172000EF019A01BD01DF010280F381E02DD7CFE7
:1017300021153105F9F0281B390B2430310580F4CF
:101740008A819B816115710521F0FB01938382835E
:1017500004C09093670680936606FE01329644C0EB
:10176000FE01E20FF31F81939193225031093983D7
:1017700028833AC02091640630916506232B41F4FA
:10178000209104023091050230936506209364068F
:1017900020910202309103022115310541F42DB749
:1017A0003EB74091060250910702241B350BE09191
:1017B0006406F0916506E217F307A0F42E1B3F0BB9
:1017C0002817390778F0AC014E5F5F4F24173507B3
:1017D00048F04E0F5F1F5093650640936406819357
:1017E000919302C0E0E0F0E0CF01DF91CF91089546
:1017F000CF93DF93009709F487C0FC0132971382DF
:101800001282C0916606D0916706209781F42081EC
:101810003181280F391F80916406909165068217E7
:10182000930779F5F0936506E09364066DC0DE01D9
:1018300020E030E0AE17BF0750F412964D915C9156
:1018400013979D014115510509F1DA01F3CFB383D7
:10185000A28340815181840F951F8A179B0771F4E1
:101860008D919C911197840F951F0296918380838F
:1018700012968D919C911397938382832115310544
:1018800029F4F0936706E09366063EC0D9011396EB
:10189000FC93EE9312974D915D91A40FB51FEA173B
:1018A000FB0779F480819181840F951F0296D901FD
:1018B00011969C938E938281938113969C938E9321
:1018C0001297E0E0F0E08A819B81009719F0FE0119
:1018D000EC01F9CFCE01029628813981820F931F46
:1018E00020916406309165062817390769F430970E
:1018F00029F4109267061092660602C013821282C3
:10190000D0936506C0936406DF91CF910895FC01E2
:101910000590615070400110D8F7809590958E0F1A
:101920009F1F0895DC0101C06D9341505040E0F7C6
:101930000895FC016150704001900110D8F7809526
:1019400090958E0F9F1F08950F931F93CF93DF9352
:10195000182F092FEB018B8181FD03C08FEF9FEFC3
:1019600020C082FF10C04E815F812C813D814217D3
:1019700053077CF4E881F9819F012F5F3F4F398342
:101980002883108306C0E885F985812F1995892B56
:1019900029F72E813F812F5F3F4F3F832E83812F79
:1019A000902FDF91CF911F910F910895FA01AA27EF
:1019B000283051F1203181F1E8946F936E7F6E5F92
:1019C0007F4F8F4F9F4FAF4FB1E03ED0B4E03CD040
:1019D000670F781F891F9A1FA11D680F791F8A1F23
:1019E000911DA11D6A0F711D811D911DA11D20D08A
:1019F00009F468943F912AE0269F11243019305D44
:101A00003193DEF6CF010895462F4770405D419334
:101A1000B3E00FD0C9F7F6CF462F4F70405D4A3381
:101A200018F0495D31FD4052419302D0A9F7EACF49
:101A3000B4E0A6959795879577956795BA95C9F778
:101A400000976105710508959B01AC010A2E06946B
:101A50005795479537952795BA95C9F7620F731F24
:0C1A6000841F951FA01D0895F894FFCF6F
:101A6C000100000068062000434F4D4D5F5458465E
:101A7C0041494C3A204661696C6564207472616E10
:101A8C00736D697420696E737472756374696F6EAB
:101A9C00207061636B65742100434F4D4D5F54584A
:101AAC004552524F523A20496E636F72726563749D
:101ABC0020696E737472756374696F6E20706163E4
:101ACC006B65742100434F4D4D5F52584641494C54
:101ADC003A204661696C6564206765742073746193
:101AEC00747573207061636B65742066726F6D2002
:101AFC006465766963652100434F4D4D5F525857BD
:101B0C00414954494E473A204E6F772072656369BC
:101B1C006576696E67207374617475732070616388
:101B2C006B65742100434F4D4D5F525854494D45E0
:101B3C004F55543A205468657265206973206E6F56
:101B4C0020737461747573207061636B657421000C
:101B5C00434F4D4D5F5258434F52525550543A20BB
:101B6C00496E636F727265637420737461747573FC
:101B7C00207061636B65742100546869732069730C
:101B8C0020756E6B6E6F776E206572726F7220634C
:101B9C006F64652100496E70757420766F6C74618A
:101BAC006765206572726F722100416E676C6520EB
:101BBC006C696D6974206572726F7221004F766565
:101BCC007268656174206572726F7221004F757452
:101BDC00206F662072616E6765206572726F72216C
:101BEC0000436865636B73756D206572726F72214B
:101BFC00004F7665726C6F6164206572726F722132
:101C0C0000496E737472756374696F6E20636F64D0
:101C1C0065206572726F7221000A0A526561642F29
:101C2C005772697465206578616D706C6520666F9C
:101C3C007220434D2D3730300A002564202020259A
:041C4C00640A000026
:00000001FF
