:1000000065C0000083C0000081C000007FC0000008
:100010007DC000007BC0000079C0000077C00000F8
:1000200075C0000073C0000071C000006FC0000008
:100030006DC000006BC0000069C0000067C0000018
:1000400065C0000063C0000061C000005FC0000028
:100050005DC000005BC0000059C0000057C0000038
:1000600055C0000023C4000051C000004FC0000074
:100070004DC000004BC0000049C0000047C0000058
:1000800045C0000043C0000041C000003FC0000068
:1000900012C500003BC0000039C0000037C000009E
:1000A00035C0000033C0000031C000002FC0000088
:1000B0002DC000002BC0000029C0000027C0000098
:1000C00025C0000023C0000021C0000011241FBE75
:1000D000CFEFD1E2DEBFCDBF00E00CBF1AE1A0E060
:1000E000B2E0E0E6FAE200E00BBF02C007900D923A
:1000F000AC32B107D9F72CE1ACE2BAE101C01D92F4
:10010000A83BB207E1F73CD70C942E1579CF80912C
:10011000000290910102089580932E1A0895809311
:10012000301A0895FC01E45DF54E658308958093CF
:100130002F1A089520E030E09091D01A982311F002
:1001400021E030E0C90108958091CF1A90E0089530
:10015000FC01E453F54E858190E00895362F20E0B0
:10016000280F391FC9010895282F30E0C9010895CB
:100170008070892F90E008950F931F93CF93DF93A2
:100180008091141B9091151B892B09F4B8C08091A4
:100190002E1A8E3F09F4A9C08091000290910102AD
:1001A000892B29F41092131B86E08093121B8091F7
:1001B000131B90E06091121B70E0681B790B845355
:1001C000954E49D39091131B980F9093131B8091D8
:1001D000121B981718F44AD2019771F07091131BF3
:1001E000472F50E0DA0111978A010250104060E079
:1001F000ED01C453D54E18C08091131B882309F01C
:1002000071C086E090E073C0F901E453F54E80813F
:100210008F3F19F481818F3F61F02017310719F466
:1002200088818F3F31F06F5F262F30E02A173B0720
:100230005CF36623A1F090E0421B530B08C0E4532B
:10024000F54EDF01A20FB31F8C9180839F5FE92FD2
:10025000F0E0E417F5079CF3761B7093131B2091D5
:10026000131B8091121B281728F190912E1A809150
:10027000CE1A9817B9F56091CF1A6C5F6093121B74
:10028000261788F4822F90E070E0681B790B845366
:10029000954EE1D29091131B980F9093131B809170
:1002A000121B981738F08091CF1AA82FB0E020E0E9
:1002B00090E00CC085E090E09093010280930002F2
:1002C0001EC0E453F54E8281980F2F5FE22FF0E0BD
:1002D000AE17BF07B4F7A453B54E909513968C9103
:1002E000891719F087E090E002C081E090E09093D8
:1002F0000102809300021092151B1092141BDF91D3
:10030000CF911F910F9108951F938091141B90918D
:10031000151B019709F45DC081E090E09093151BD7
:100320008093141B80912F1A893940F49091301AD0
:10033000892F8150863028F0933819F084E090E0BE
:100340002FC08FEF80932C1A80932D1A80912F1A33
:10035000A82FB0E020E090E005C0E45DF54E82817A
:10036000980F2F5FE22FF0E0AE17BF07B4F7A45D40
:10037000B54E909513969C93809100029091010246
:100380000697029708F438D110912F1A1C5F8CE25F
:100390009AE1612F70E035D1181759F082E090E0B2
:1003A00090930102809300021092151B1092141B6F
:1003B00010C08091301A823029F48091321A90E076
:1003C000069602C086E090E040D1109201021092A1
:1003D00000021F91089598DF809100029091010220
:1003E000892B39F4C9DE80910002909101020597B2
:1003F000C9F30895282F8091141B9091151B892B08
:1004000091F420932E1A83E08093301A6093311A6E
:10041000CA014093321A80709093331A85E080931A
:100420002F1AD9CF0895FFCF282F8091141B9091B8
:10043000151B892BB1F420932E1A82E08093301A79
:100440006093311A8093321A84E080932F1AC3DFAD
:100450003091D21A20E08091D11A280F311DC901A4
:100460000895FFCF282F8091141B9091151B892B85
:1004700071F420932E1A83E08093301A6093311A1E
:100480004093321A84E080932F1AA5CF0895FFCFAE
:10049000282F8091141B9091151B892B91F4209388
:1004A0002E1A82E08093301A6093311A81E0809393
:1004B000321A84E080932F1A8EDF8091D11A90E057
:1004C0000895FFCF282F8091141B9091151B892B25
:1004D00051F420932E1A81E08093301A82E08093A9
:1004E0002F1A79CF0895FFCF86C008950F931F93D9
:1004F0008C016F5F7F4F882777FD8095982F0E9432
:1005000016129B01AC0160E074E284EF99E40E9452
:100510007B11AB01BC01C80115D0892B19F420E077
:1005200030E00CC081E090E09093010280930002E3
:100530001092151B1092141B21E030E0C9011F918D
:100540000F910895EF92FF920F931F937A018B0101
:1005500082E48093C00088E98093C10086E08093A4
:10056000C20060E074E284EF99E4A80197010E9460
:100570007B110E94E811615070407093C500609338
:10058000C40060E074E284E799E4A80197010E9446
:100590007B1120E030E040E451E40E94CA126093F5
:1005A000A61C7093A71C8093A81C9093A91C209153
:1005B000A61C3091A71C4091A81C5091A91C60E07A
:1005C00070E08AE793E40E947B110E94E811709327
:1005D000A51C6093A41C7298739A8FEF8093C60039
:1005E0001092161C1092171C81E090E01F910F9141
:1005F000FF90EF90089508958091171C8093161C2A
:100600000895AC01F8947398729A20E030E011C01C
:100610008091C00085FFFCCF8091C00080648093F2
:10062000C000FA01E20FF31F80818093C6002F5FA4
:100630003F4F2617370764F38091C00086FFFCCF39
:100640007298739A7894C90108951092AD1C109213
:10065000AC1C2091A41C3091A51C265F3F4F280F95
:10066000391F3093AB1C2093AA1C0895AF92BF9200
:10067000CF92DF92EF92FF920F931F938091AC1C69
:100680009091AD1C01969093AD1C8093AC1C209171
:10069000AC1C3091AD1C8091AA1C9091AB1C8217B0
:1006A000930718F421E030E074C0A090A61CB0902D
:1006B000A71CC090A81CD090A91CC601B5012BEAAC
:1006C0003AEA4AEA50E40E94CA127B018C0120E017
:1006D00030E040E85FE30E947711882314F461E082
:1006E00054C0C801B70120E030E04FE753E40E9456
:1006F000C61218160CF045C0C601B50120E030E066
:100700004AE754E40E947B115B016C0120E030E079
:100710004AE755E40E94CA127B018C0120E030E0D8
:1007200040E85FE30E94771188231CF461E070E0E9
:1007300024C0C801B70120E03FEF4FE757E40E9413
:10074000C6121816B4F4C601B50120E030E040E24C
:1007500051E40E94CA120E94E81180E991E005C0AC
:10076000FC013197F1F76150704061157105C1F7D7
:100770000EC0C801B7010E94E811CB010197F1F743
:1007800006C0C801B7010E94E8116A95F1F720E0A0
:1007900030E0C9011F910F91FF90EF90DF90CF9053
:1007A000BF90AF9008959091161C8091171C9817D8
:1007B00019F420E030E017C09091161C8091171CAE
:1007C000981738F48091171C9091161C282F30E050
:1007D00008C08091171C9091161C282F30E02050E3
:1007E0003F4F291B3109C90108951F93182FDBDFE3
:1007F0008F3F910591F0E091171CF0E0EA5EF44E16
:1008000010838091171C8F3F19F41092171C05C09C
:100810008091171C8F5F8093171C1F9108959091F2
:10082000161C8091171C981711F4EFEF12C0E0917D
:10083000161CF0E0EA5EF44EE0818091161C8F3FBA
:1008400019F41092161C05C08091161C8F5F8093BE
:10085000161C8E2F0895EF92FF920F931F93CF9344
:10086000DF937C01EB019091161C8091171C981767
:1008700019F400E010E012C096DF8C01C817D90708
:100880000CF48E01C0E0D0E006C0C9DFF701EC0F28
:10089000FD1F80832196C017D107BCF3C801DF91EB
:1008A000CF911F910F91FF90EF9008951F920F929B
:1008B0000FB60F920BB60F9211242F933F934F93C5
:1008C0005F936F937F938F939F93AF93BF93EF93B8
:1008D000FF938091C60089DFFF91EF91BF91AF91A7
:1008E0009F918F917F916F915F914F913F912F9148
:1008F0000F900BBE0F900FBE0F901F901895AC017C
:1009000020E030E00CC08091C80085FFFCCFFA01E8
:10091000E20FF31F80818093CE002F5F3F4F261799
:1009200037078CF30895DC019091981C8091991CF5
:10093000981711F480E008959091981C8091991C6B
:10094000981719F420E030E017C09091981C80911E
:10095000991C981738F48091991C9091981C282F15
:1009600030E008C08091991C9091981C282F30E0AD
:1009700020583F4F291B3109A901621773070CF456
:10098000AB0120E030E020C09091981C8091991C30
:10099000981711F49FEF12C0E091981CF0E0E85E08
:1009A000F34E90818091981C8F3719F41092981C07
:1009B00005C08091981C8F5F8093981CFD01E20F09
:1009C000F31F90832F5F3F4F24173507ECF2842FDE
:1009D00008959091981C8091991C981719F420E023
:1009E00030E017C09091981C8091991C981738F4AA
:1009F0008091991C9091981C282F30E008C080911C
:100A0000991C9091981C282F30E020583F4F291BAB
:100A10003109C9010895482F9091981C8091991C23
:100A20009817D1F09091981C8091991C981738F4E0
:100A30008091991C9091981C282F30E008C08091DB
:100A4000991C9091981C282F30E020583F4F291B6B
:100A500031092F37310591F0E091991CF0E0E85E03
:100A6000F34E40838091991C8F3719F41092991C92
:100A700008958091991C8F5F8093991C089590919F
:100A8000981C8091991C981711F4EFEF12C0E09117
:100A9000981CF0E0E85EF34EE0818091981C8F375F
:100AA00019F41092981C05C08091981C8F5F809358
:100AB000981C8E2F08951F920F920FB60F920BB6AF
:100AC0000F9211242F933F934F935F936F937F93D4
:100AD0008F939F93AF93BF93EF93FF938091CE003B
:100AE0009ADFFF91EF91BF91AF919F918F917F918D
:100AF0006F915F914F913F912F910F900BBE0F908F
:100B00000FBE0F901F901895DF93CF930F920F9207
:100B1000CDB7DEB7982F8A3099F48DE089839A8318
:100B2000FE0131969E012D5F3F4F8091C80085FFE9
:100B3000FCCF81918093CE00E217F307B1F706C096
:100B40008091C80085FFFCCF9093CE0080E090E0BC
:100B50000F900F90CF91DF9108959091981C809104
:100B6000991C9817D1F39091981C8091991C981713
:100B700038F48091991C9091981C282F30E008C07F
:100B80008091991C9091981C282F30E020583F4F5D
:100B9000291B3109232B09F39091981C8091991CF2
:100BA000981711F4EFEF15C0E091981CF0E0E85EA3
:100BB000F34EE0818091981C8F3719F41092981CA5
:100BC00005C08091981C8F5F8093981CED3009F4CC
:100BD000EAE08E2F90E008950E9416129B01AC016E
:100BE00060E074E284EF99E40E947B110E94E811B6
:100BF0006150704022E42093C80028E92093C90086
:100C000026E02093CA002FEF2093CE001092981C6C
:100C10001092991C272F332727FD3A952093CD005A
:100C20006093CC007298739A84E895E06DEA75E061
:100C30000E94311390939B1C80939A1C0895CF922D
:100C4000DF92EF92FF922091100230911102223038
:100C5000310509F45AC024F42130310551F089C11D
:100C60002330310509F4B6C02430310509F417C129
:100C700080C1843229F582E090E090931102809344
:100C800010021092A01C1092A11C1092A21C109293
:100C9000A31C10929C1C10929D1C10929E1C1092E2
:100CA0009F1C10920A0210920B0210920C021092DA
:100CB0000D0287E090E0909309028093080259C1E9
:100CC000893769F480910E0290910F020997B1F46F
:100CD0008AE090E090930F0280930E024AC18E3614
:100CE00069F480910E0290910F02069739F485E025
:100CF00090E090930F0280930E023BC185E090E05C
:100D000090930F0280930E0234C190ED980F9A30A9
:100D100058F5682F772767FD70956053710988270C
:100D200077FD8095982F0E9416126B017C0120E0C0
:100D300030E040E251E46091A01C7091A11C8091D0
:100D4000A21C9091A31C0E94CA129B01AC01C70176
:100D5000B6010E9413116093A01C7093A11C809394
:100D6000A21C9093A31C05C18C3221F583E090E076
:100D700090931102809310028091080290910902D1
:100D8000089789F48091A01C9091A11CA091A21CAD
:100D9000B091A31CB0588093A01C9093A11CA09369
:100DA000A21CB093A31C87E090E09093090280936B
:100DB0000802DFC08D3239F488E090E09093090298
:100DC00080930802D6C081E090E090931102809356
:100DD0001002CFC090ED980F9A3058F5682F772702
:100DE00067FD709560537109882777FD8095982F6E
:100DF0000E9416126B017C0120E030E040E251E4D9
:100E000060919C1C70919D1C80919E1C90919F1CD8
:100E10000E94CA129B01AC01C701B6010E941311C6
:100E200060939C1C70939D1C80939E1C90939F1CB0
:100E3000A0C08C3221F584E090E090931102809361
:100E400010028091080290910902089789F480911C
:100E50009C1C90919D1CA0919E1CB0919F1CB05811
:100E600080939C1C90939D1CA0939E1CB0939F1CF0
:100E700087E090E090930902809308027AC08D3257
:100E800039F488E090E0909309028093080271C0E1
:100E900081E090E090931102809310026AC090ED7F
:100EA000980F9A3058F5682F772767FD7095605333
:100EB0007109882777FD8095982F0E9416126B0183
:100EC0007C0120E030E040E251E460910A02709140
:100ED0000B0280910C0290910D020E94CA129B019C
:100EE000AC01C701B6010E94131160930A0270930E
:100EF0000B0280930C0290930D023BC08A3251F595
:100F00008091080290910902089789F480910A0261
:100F100090910B02A0910C02B0910D02B0588093F9
:100F20000A0290930B02A0930C02B0930D0287E08B
:100F300090E0909309028093080286E090E09093FD
:100F40000F0280930E0281E090E090931102809353
:100F500010020FC08D3239F488E090E090930902BE
:100F60008093080206C081E090E090931102809384
:100F7000100280E090E0FF90EF90DF90CF90089516
:100F8000CF93DF93CDB7DEB768970FB6F894DEBF87
:100F90000FBECDBF60E071EE80E090E01DDE61E04D
:100FA00070E080E090E0A2DA61E070E081E090E043
:100FB0009DDA61E070E082E090E098DA78942FEFBB
:100FC00083ED90E3215080409040E1F700C00000A5
:100FD00080E090E0A4E3B3E48D879E87AF87B88B71
:100FE000898B9A8BAB8BBC8B8D8B9E8BAF8BB88F89
:100FF00040E058E06EE170E081E090E0FBD9698963
:101000007A898B899C890E94E311882777FD8095D6
:10101000982F0E94161228E73BE046E351E40E9415
:10102000CA120E94E311AB016EE170E082E090E031
:10103000E1D96D897E898F89988D0E94E311882777
:1010400077FD8095982F0E94161228E73BE046E333
:1010500051E40E94CA120E94E311AB016EE170E0FC
:1010600083E090E0C7D982E19AE10E94B9130F2E84
:10107000FEEA8F2EFCE19F2EF02D0F2EF5E06F2E55
:10108000712CF02D0F2EF9E04F2E512CF02DF40184
:10109000808191810E947B13D2DD80910E0290911C
:1010A0000F028630910509F06FC020E030E04AE77A
:1010B00054E46091A01C7091A11C8091A21C90919D
:1010C000A31C0E947B11E62E462F572F682F792FE5
:1010D00049835A836B837C8320E030E04AE754E401
:1010E00060919C1C70919D1C80919E1C90919F1CF6
:1010F0000E947B11D62E462F572F682F792F4D83B4
:101100005E836F83788720E030E04AE754E46091A3
:101110000A0270910B0280910C0290910D020E94C4
:101120007B11E62F462F572F682F792F49875A8733
:101130006B877C87FA800B811C812D2D3E814F812E
:1011400058856E2F7A858B859C8574D0892BB9F054
:10115000A980BA80CB80DC80ED80FE800F8118856D
:1011600029853A854B855C85BE01635F7F4F82E1AF
:1011700092E0DFD050920F0240920E0288CF709220
:101180000F0260920E0283CF0A9709F080CF6D851F
:101190007E858F8598890E94E311882777FD809549
:1011A000982F0E94161228E73BE046E351E40E9484
:1011B000CA120E94E311AB016EE170E081E090E0A1
:1011C00019D969897A898B899C890E94E3118827BA
:1011D00077FD8095982F0E94161228E73BE046E3A2
:1011E00051E40E94CA120E94E311AB016EE170E06B
:1011F00082E090E0FFD86D897E898F89988D0E946A
:10120000E311882777FD8095982F0E94161228E712
:101210003BE046E351E40E94CA120E94E311AB0195
:101220006EE170E083E090E0E5D870920F0260928A
:101230000E022DCF4F925F926F927F928F929F926C
:10124000AF92BF92CF92DF92EF92FF920F931F93D4
:10125000CF93DF93CDB7DEB72C970FB6F894DEBFF0
:101260000FBECDBFE982FA820B831C832D833E83A0
:101270004F83588769877A878B879C8789849A846C
:10128000AB84BC8469817A818B819C81CD80DE8036
:10129000EF80F8849B01AC010E94CA122B013C0133
:1012A000A7019601C701B6010E94CA129B01AC01B9
:1012B000C301B201B8D72CEF3AE740E152E40E94F3
:1012C00077111816D4F026EF38E240E551ECC5014D
:1012D000B4010E94C61288239CF011E0F12C24E195
:1012E0003EEA4FEF50ECC501B4010E947711181689
:1012F0000CF410E0812F9F2D05C080E090E002C02B
:1013000080E090E02C960FB6F894DEBF0FBECDBF04
:10131000DF91CF911F910F91FF90EF90DF90CF90D1
:10132000BF90AF909F908F907F906F905F904F9005
:1013300008952F923F924F925F926F927F928F9279
:101340009F92AF92BF92CF92DF92EF92FF920F9354
:101350001F93CF93DF93CDB7DEB7C45ED1090FB62D
:10136000F894DEBF0FBECDBFA3969FAF8EAFA397FD
:101370001B016696AFAE66976796BFAE6797689695
:10138000CFAE68976996DFAE69976A96EFAE6A97B7
:101390006B96FFAE6B976C960FAF6C976D961FAF09
:1013A0006D976E962FAF6E976F963FAF6F97A09623
:1013B0004FAFA097A1965FAFA19769964CAC5DAC7B
:1013C0006EAC7FAC69976D96CCACDDACEEACFFAC8F
:1013D0006D97A1968CAC9DACAEACBFACA19720E054
:1013E00030E040EE50ECC301B2010E94C6128823E7
:1013F0007CF120E030E040EE50E4C301B20177D749
:10140000181634F120E030E040EE50ECC701B60190
:101410000E94C6128823E4F020E030E040EE50E461
:10142000C701B60164D718169CF020E030E040E612
:1014300051ECC501B4010E94C61288234CF020E093
:1014400030E040EE50ECC501B40151D7181694F4C9
:1014500080E090E0A0ECBFE7F10180839183A2835C
:10146000B38384839583A683B78380879187A2877C
:10147000B387BEC620E030E040EE50E4C301B201C5
:10148000D2D620E030E040E05FE30E94CA129BD752
:10149000C358DF4F688379838A839B83CD57D040BD
:1014A00020E030E040EE50E4C701B601BCD620E0B9
:1014B00030E040E05FE30E94CA1285D7AD966CAF82
:1014C0007DAF8EAF9FAFAD9720E030E040E651E4B6
:1014D000C501B401A8D677D7A9966CAF7DAF8EAF02
:1014E0009FAFA99780E093E0EF962EAD3FADEF97C9
:1014F000829F8001839F100D929F100D1124A3964F
:101500002EAD3FADA397200F311FDB01AA0FBB1FEC
:10151000FB01EA0FFB1FEE0FFF1FEE0FFF1F80E620
:10152000AB966EAD7FADAB97869FA001879F500DA8
:101530001124AF965FAF4EAFAF974E0F5F1FE79688
:101540005FAF4EAFE797FA01E20FF31F4081518181
:1015500062817381E5964CAF5DAF6EAF7FAFE5976B
:1015600049835A836B837C836481758186819781EB
:10157000CB55DF4F688379838A839B83C55AD040DC
:101580004085518562857385C755DF4F48835983F0
:101590006A837B83C95AD040A7968EAD9FADA7972B
:1015A0000196BC01660F771FCB56DF4F79836883A6
:1015B000C559D040FB01E80FF91FEE0FFF1FEE0FDA
:1015C000FF1FAF964EAD5FADAF974E0F5F1FEB960F
:1015D0005FAF4EAFEB97FA01E20FF31F40815181ED
:1015E00062817381CF57DF4F488359836A837B833E
:1015F000C158D0404D875E876F87788B4481558175
:1016000066817781C355DF4F488359836A837B8323
:10161000CD5AD0404085518562857385CF54DF4FC8
:10162000488359836A837B83C15BD040AB96EEAD20
:10163000FFADAB973196A7966EAD7FADA797A60F7E
:10164000B71FAA0FBB1FAA0FBB1F60E66E9FA001AA
:101650006F9F500D1124C756DF4F59834883C959D6
:10166000D040A40FB51FF901EA0FFB1F4081518143
:1016700062817381CB57DF4F488359836A837B83B1
:10168000C558D040498F5A8F6B8F7C8F44815581CC
:1016900066817781CB54DF4F488359836A837B838C
:1016A000C55BD0404085518562857385C754DF4F47
:1016B000488359836A837B83C95BD040CB56DF4F15
:1016C000E881F981C559D040E80FF91FEE0FFF1FDF
:1016D000EE0FFF1FC756DF4F68817981C959D0408F
:1016E0006E0F7F1FAF967FAF6EAFAF97FB01E20F1C
:1016F000F31F2081318142815381C757DF4F2883F7
:1017000039834A835B83C958D0402DA33EA34FA39E
:1017100058A74481558166817781C354DF4F488340
:1017200059836A837B83CD5BD04020853185428598
:101730005385CF53DF4F288339834A835B83C15C52
:10174000D0401D5FA3962EAD3FADA397200F311F54
:10175000E796EEADFFADE797E20FF31F40815181B1
:1017600062817381C357DF4F488359836A837B83C8
:10177000CD58D04049AB5AAB6BAB7CAB4481558163
:1017800066817781CB53DF4F488359836A837B839C
:10179000C55CD0404085518562857385C753DF4F56
:1017A000488359836A837B83C95CD040EB96EEAD56
:1017B000FFADEB97E20FF31F40815181628173818E
:1017C000ED964CAF5DAF6EAF7FAFED9721964CAF0E
:1017D0005DAF6EAF7FAF2197448155816681778180
:1017E000C353DF4F488359836A837B83CD5CD040EA
:1017F0004085518562857385CF52DF4F4883598379
:101800006A837B83C15DD040F901EA0FFB1F4081F1
:10181000518162817381CF56DF4F488359836A8338
:101820007B83C159D0402D964CAF5DAF6EAF7FAF7B
:101830002D974481558166817781CB52DF4F488354
:1018400059836A837B83C55DD0404085518562851D
:101850007385C752DF4F488359836A837B83C95D91
:10186000D040AF96EEADFFADAF97E20FF31F4081D2
:10187000518162817381E9964CAF5DAF6EAF7FAFEE
:10188000E9974481558166817781C352DF4F488350
:1018900059836A837B83CD5DD040CB56DF4F68810F
:1018A0007981C559D040860F971F880F991F880FDF
:1018B000991FC756DF4F68817981C959D040680F99
:1018C000791FF901E60FF71F80859185A285B38501
:1018D000CF51DF4F88839983AA83BB83C15ED040F9
:1018E000E5962CAD3DAD4EAD5FADE597CA01B901B2
:1018F000B4D681115CC12D853E854F855889C75668
:10190000DF4F288339834A835B83C959D040CA019A
:10191000B901A3D681114BC1498D5A8D6B8D7C8D38
:10192000E1964CAF5DAF6EAF7FAFE1979A01AB012F
:10193000CA01B90192D681113AC16DA17EA18FA1D0
:1019400098A5C356DF4F688379838A839B83CD59DB
:10195000D0409B01AC0181D6811129C189A99AA9E6
:10196000ABA9BCA9CB56DF4F88839983AA83BB83DD
:10197000C559D0409C01AD01BC01CD016ED681118D
:1019800016C121962CAD3DAD4EAD5FAD2197CF5523
:10199000DF4F288339834A835B83C15AD040CA0111
:1019A000B9015BD6811103C12D964CAD5DAD6EAD15
:1019B0007FAD2D97A5964CAF5DAF6EAF7FAFA5976E
:1019C0009A01AB01CA01B90148D68111F0C0E9966C
:1019D0002CAD3DAD4EAD5FADE997CA01B9013DD625
:1019E0008111E5C0E5966CAD7DAD8EAD9FADE597FF
:1019F000EAD49B01772324F422273327261B370BB5
:101A0000B901882777FD8095982F10D52AE037ED0A
:101A100043E25CE36CD488230CF4C9C0C756DF4FA3
:101A2000688179818A819B81C959D040CCD49B013E
:101A3000772324F422273327261B370BB901882765
:101A400077FD8095982FF2D42AE037ED43E25CE3EE
:101A50004ED488230CF4ABC0E1966CAD7DAD8EAD59
:101A60009FADE197B0D49B01772324F4222733273D
:101A7000261B370BB901882777FD8095982FD6D480
:101A80002AE037ED43E25CE332D488230CF48FC0C4
:101A9000C356DF4F688179818A819B81CD59D040BF
:101AA00092D49B01772324F422273327261B370B5C
:101AB000B901882777FD8095982FB8D42AE037EDB3
:101AC00043E25CE314D488230CF471C0CB56DF4F9F
:101AD000688179818A819B81C559D04074D49B01EA
:101AE000772324F422273327261B370BB9018827B5
:101AF00077FD8095982F9AD42AE037ED43E25CE396
:101B0000F6D388230CF453C0CF55DF4F6881798119
:101B10008A819B81C15AD04056D49B01772324F4FB
:101B200022273327261B370BB901882777FD80959D
:101B3000982F7CD42AE037ED43E25CE3D8D38823A6
:101B4000B4F1A5966CAD7DAD8EAD9FADA5973BD4A0
:101B50009B01772324F422273327261B370BB90157
:101B6000882777FD8095982F61D42AE037ED43E2EE
:101B70005CE3BDD38823DCF0E9966CAD7DAD8EAD22
:101B80009FADE99720D49B01772324F422273327A4
:101B9000261B370BB901882777FD8095982F46D4EF
:101BA0002AE037ED43E25CE3A2D3882394F480E09B
:101BB00090E0A0ECBFE7F10180839183A283B3831F
:101BC00084839583A683B78380879187A287B38711
:101BD0000FC3EF962EAD3FADEF97B901882777FD84
:101BE0008095982F23D49B01AC011DD320E030E0D9
:101BF00040EE50E417D39B01AC01C301B20112D3F4
:101C000020E030E040E05FE3C5D42B013C01AB961F
:101C10004EAD5FADAB97BA01882777FD8095982FC1
:101C200005D49B01AC01FFD220E030E040EE50E44F
:101C3000F9D29B01AC01C701B601F4D220E030E03B
:101C400040E05FE3A7D4AD966CAF7DAF8EAF9FAFA2
:101C5000AD97A796AEADBFADA797BD01882777FD1D
:101C60008095982FE3D320E030E040E651E4DAD2CB
:101C70009B01AC01C501B401D5D2E1966CAF7DAF3B
:101C80008EAF9FAFE197A301920160E070E080E822
:101C90009FE3C8D2A5966CAF7DAF8EAF9FAFA597DF
:101CA000AD962CAD3DAD4EAD5FADAD9760E070E053
:101CB00080E89FE3B7D2A9966CAF7DAF8EAF9FAFA0
:101CC000A997E1962CAD3DAD4EAD5FADE19760E0DB
:101CD00070E080E89FE3A6D2C358DF4F6883798322
:101CE0008A839B83CD57D040A5962CAD3DAD4EAD9C
:101CF0005FADA597E5966CAD7DAD8EAD9FADE597DB
:101D000049D46B017C01C357DF4F288139814A8157
:101D10005B81CD58D040C301B2013CD49B01AC01E2
:101D2000C701B60180D2A9962CAD3DAD4EAD5FADD9
:101D3000A99730D46B017C01A5962CAD3DAD4EAD7D
:101D40005FADA597CB57DF4F688179818A819B81F1
:101D5000C558D0401FD44B015C01CF56DF4F2881BE
:101D600039814A815B81C159D040C301B20112D48B
:101D70009B01AC01C501B40156D29B01AC01AD96EB
:101D80006CAD7DAD8EAD9FADAD9704D49B01AC0124
:101D9000C701B60148D2C358DF4F288139814A8133
:101DA0005B81CD57D040F6D36B017C01A5962CAD5D
:101DB0003DAD4EAD5FADA597CF57DF4F68817981BF
:101DC0008A819B81C158D040E5D34B015C01ED96DF
:101DD0002CAD3DAD4EAD5FADED97C301B201DAD391
:101DE0009B01AC01C501B4011ED2A9962CAD3DAD3D
:101DF0004EAD5FADA997CED34B015C01A5962CAD3E
:101E00003DAD4EAD5FADA597C757DF4F6881798176
:101E10008A819B81C958D040BDD3E5966CAF7DAF18
:101E20008EAF9FAFE597E9962CAD3DAD4EAD5FAD62
:101E3000E997C301B201AED39B01AC01E5966CAD4D
:101E40007DAD8EAD9FADE597EED19B01AC01AD961A
:101E50006CAD7DAD8EAD9FADAD979CD39B01AC01BC
:101E6000C501B401E0D19B01AC01E1966CAD7DAD43
:101E70008EAD9FADE1978ED39B01AC01C701B6013A
:101E8000D2D1F1016083718382839383A5962CADB7
:101E90003DAD4EAD5FADA597CB55DF4F68817981E4
:101EA0008A819B81C55AD04075D36B017C01CB538D
:101EB000DF4F288139814A815B81C55CD040C301F5
:101EC000B20168D39B01AC01C701B601ACD1A996A0
:101ED0002CAD3DAD4EAD5FADA9975CD36B017C01E0
:101EE000A5962CAD3DAD4EAD5FADA597CB54DF4F64
:101EF000688179818A819B81C55BD0404BD34B013E
:101F00005C01CB52DF4F288139814A815B81C55DFD
:101F1000D040C301B2013ED39B01AC01C501B40165
:101F200082D19B01AC01AD966CAD7DAD8EAD9FAD08
:101F3000AD9730D39B01AC01C701B60174D1C35832
:101F4000DF4F288139814A815B81CD57D04022D330
:101F50006B017C01A5962CAD3DAD4EAD5FADA59757
:101F6000C355DF4F688179818A819B81CD5AD040EA
:101F700011D34B015C01C353DF4F288139814A8162
:101F80005B81CD5CD040C301B20104D39B01AC01A5
:101F9000C501B40148D1A9962CAD3DAD4EAD5FADA4
:101FA000A997F8D24B015C01A5962CAD3DAD4EAD85
:101FB0005FADA597C354DF4F688179818A819B818A
:101FC000CD5BD040E7D2E5966CAF7DAF8EAF9FAFD3
:101FD000E597C352DF4F288139814A815B81CD5D0E
:101FE000D040C301B201D6D29B01AC01E5966CADE5
:101FF0007DAD8EAD9FADE59716D19B01AC01AD9641
:102000006CAD7DAD8EAD9FADAD97C4D29B01AC01E3
:10201000C501B40108D19B01AC01E1966CAD7DAD69
:102020008EAD9FADE197B6D29B01AC01C701B60161
:10203000FAD0D10114966D937D938D939C9317974D
:10204000A5962CAD3DAD4EAD5FADA597C755DF4F05
:10205000688179818A819B81C95AD0409BD26B016A
:102060007C01C753DF4F288139814A815B81C95C7C
:10207000D040C301B2018ED29B01AC01C701B601B1
:10208000D2D0A9962CAD3DAD4EAD5FADA99782D211
:102090006B017C01A5962CAD3DAD4EAD5FADA59716
:1020A000C754DF4F688179818A819B81C95BD040A9
:1020B00071D24B015C01C752DF4F288139814A81BF
:1020C0005B81C95DD040C301B20164D29B01AC0108
:1020D000C501B401A8D09B01AC01AD966CAD7DAD3E
:1020E0008EAD9FADAD9756D29B01AC01C701B60135
:1020F0009AD0C358DF4F288139814A815B81CD57FF
:10210000D04048D26B017C01A5962CAD3DAD4EADC3
:102110005FADA597CF54DF4F688179818A819B811C
:10212000C15BD04037D24B015C01CF52DF4F2881D9
:1021300039814A815B81C15DD040C301B2012AD29D
:102140009B01AC01C501B4016ED0A9962CAD3DAD8B
:102150004EAD5FADA9971ED24B015C01A5962CAD8B
:102160003DAD4EAD5FADA597CF53DF4F688179810F
:102170008A819B81C15CD0400DD2A5966CAF7DAFAA
:102180008EAF9FAFA597CF51DF4F288139814A810C
:102190005B81C15ED040C301B201FCD19B01AC01A7
:1021A000A5966CAD7DAD8EAD9FADA5973CD09B0146
:1021B000AC01AD966CAD7DAD8EAD9FADAD97EAD166
:1021C0009B01AC01C501B4012ED09B01AC01E1968D
:1021D0006CAD7DAD8EAD9FADE197DCD19B01AC01C7
:1021E000C701B60120D0F10160877187828793878C
:1021F000CC51DF4F0FB6F894DEBF0FBECDBFDF91DD
:10220000CF911F910F91FF90EF90DF90CF90BF90F3
:10221000AF909F908F907F906F905F904F903F9086
:102220002F9008955058BB27AA270ED075C166D1AC
:1022300030F06BD120F031F49F3F11F41EF45BC1FC
:102240000EF4E095E7FB51C1E92F77D180F3BA177F
:10225000620773078407950718F071F49EF58FC124
:102260000EF4E0950B2EBA2FA02D0B01B9019001B1
:102270000C01CA01A0011124FF27591B99F0593FF5
:1022800050F4503E68F11A16F040A22F232F342F3D
:102290004427585FF3CF469537952795A795F0408B
:1022A0005395C9F77EF41F16BA0B620B730B840BA0
:1022B000BAF09150A1F0FF0FBB1F661F771F881F58
:1022C000C2F70EC0BA0F621F731F841F48F48795B0
:1022D00077956795B795F7959E3F08F0B3CF93959F
:1022E000880F08F09927EE0F979587950895D9D014
:1022F00008F481E008950CD00FC107D140F0FED062
:1023000030F021F45F3F19F0F0C0511139C1F3C032
:1023100014D198F39923C9F35523B1F3951B550BA9
:10232000BB27AA2762177307840738F09F5F5F4FA8
:10233000220F331F441FAA1FA9F333D00E2E3AF0E9
:10234000E0E830D091505040E695001CCAF729D003
:10235000FE2F27D0660F771F881FBB1F2617370752
:102360004807AB07B0E809F0BB0B802DBF01FF2782
:1023700093585F4F2AF09E3F510568F0B6C000C1E8
:102380005F3FECF3983EDCF3869577956795B795BC
:10239000F7959F5FC9F7880F911D9695879597F9D7
:1023A0000895E1E0660F771F881FBB1F6217730750
:1023B0008407BA0720F0621B730B840BBA0BEE1F65
:1023C00088F7E095089504D06894B111D9C00895B4
:1023D000BCD088F09F5790F0B92F9927B751A0F043
:1023E000D1F0660F771F881F991F1AF0BA95C9F7A9
:1023F00012C0B13081F0C3D0B1E00895C0C0672FE2
:10240000782F8827B85F39F0B93FCCF38695779558
:102410006795B395D9F73EF4909580957095619541
:102420007F4F8F4F9F4F0895E89409C097FB3EF46C
:1024300090958095709561957F4F8F4F9F4F992311
:10244000A9F0F92F96E9BB279395F695879577958F
:102450006795B795F111F8CFFAF4BB0F11F460FF4F
:102460001BC06F5F7F4F8F4F9F4F16C0882311F0A7
:1024700096E911C0772321F09EE8872F762F05C0BB
:10248000662371F096E8862F70E060E02AF09A9556
:10249000660F771F881FDAF7880F9695879597F94B
:1024A0000895990F0008550FAA0BE0E8FEEF1616E5
:1024B0001706E807F907C0F012161306E407F50738
:1024C00098F0621B730B840B950B39F40A2661F0AC
:1024D000232B242B252B21F408950A2609F4A1404F
:1024E000A6958FEF811D811D089597F99F6780E85C
:1024F00070E060E008959FEF80EC089500240A9456
:102500001616170618060906089500240A941216CE
:102510001306140605060895092E0394000C11F401
:10252000882352F0BB0F40F4BF2B11F460FF04C0AE
:102530006F5F7F4F8F4F9F4F089557FD9058440F07
:10254000551F59F05F3F71F04795880F97FB991F12
:1025500061F09F3F79F087950895121613061406CF
:10256000551FF2CF4695F1DF08C01616170618065C
:10257000991FF1CF86957105610508940895E89437
:10258000BB2766277727CB0197F908958ADF08F4E0
:102590008FEF08950BD0C0CFB1DF28F0B6DF18F071
:1025A000952309F0A2CFA7CF1124EACFC6DFA0F36D
:1025B000959FD1F3950F50E0551F629FF001729FD8
:1025C000BB27F00DB11D639FAA27F00DB11DAA1FF7
:1025D000649F6627B00DA11D661F829F2227B00D44
:1025E000A11D621F739FB00DA11D621F839FA00DCF
:1025F000611D221F749F3327A00D611D231F849F1F
:10260000600D211D822F762F6A2F11249F57504075
:102610008AF0E1F088234AF0EE0FFF1FBB1F661F10
:10262000771F881F91505040A9F79E3F510570F0C9
:102630005CCFA6CF5F3FECF3983EDCF386957795B1
:102640006795B795F795E7959F5FC1F7FE2B880FC4
:10265000911D9695879597F9089523DF880B990B1F
:1026600008950F931F93CF93DF93EC018B01009795
:1026700031F46115710519F480E090E037C06EE027
:1026800070E081E090E0A2D0FC010097A9F380E81F
:1026900083830115110571F01387028781E8838315
:1026A0008091AE1C9091AF1C892B21F4F093AF1C4C
:1026B000E093AE1C2097C9F0D187C08783818260E8
:1026C00083838091B01C9091B11C892B71F4F0939D
:1026D000B11CE093B01C8091B21C9091B31C892B6B
:1026E00021F4F093B31CE093B21CCF01DF91CF91A2
:1026F0001F910F910895CF93DF93EC012B8120FF61
:1027000033C026FF0AC02F7B2B838E819F810196C9
:102710009F838E838A8190E029C022FF0FC0E881C9
:10272000F9818081992787FD9095009719F420629F
:102730002B831AC03196F983E8830EC0EA85FB85A6
:10274000199597FF09C02B81019611F480E101C012
:1027500080E2822B8B8308C02E813F812F5F3F4F09
:102760003F832E83992702C08FEF9FEFDF91CF9198
:1027700008950F931F93CF93DF93E091B01CF091D6
:10278000B11C238121FF1BC0EC0100E010E0899106
:102790006091B01C7091B11CDB011896ED91FC9119
:1027A0001997882331F01995892B89F30FEF1FEFC3
:1027B000EECF8AE01995892B11F4C80102C08FEF82
:1027C0009FEFDF91CF911F910F9108950F931F936A
:1027D000CF93DF93869F8001879F100D969F100DEA
:1027E0001124C8010DD0EC01009721F0A80160E090
:1027F00070E02DD1CE01DF91CF911F910F910895FF
:10280000CF93DF938230910510F482E090E0E09165
:10281000B61CF091B71C20E030E0A0E0B0E03097AB
:1028200039F14081518148175907B8F048175907C5
:1028300071F482819381109729F013969C938E9363
:1028400012972CC09093B71C8093B61C27C02115FB
:10285000310531F04217530718F0A901DB0101C01F
:10286000EF019A01BD01DF010280F381E02DD7CF96
:1028700021153105F9F0281B390B2430310580F47E
:102880008A819B816115710521F0FB01938382830D
:1028900004C09093B71C8093B61CFE01329644C0CE
:1028A000FE01E20FF31F8193919322503109398386
:1028B00028833AC02091B41C3091B51C232B41F4DD
:1028C00020910402309105023093B51C2093B41C72
:1028D00020910202309103022115310541F42DB7F8
:1028E0003EB74091060250910702241B350BE09140
:1028F000B41CF091B51CE217F307A0F42E1B3F0B9C
:102900002817390778F0AC014E5F5F4F2417350761
:1029100048F04E0F5F1F5093B51C4093B41C819339
:10292000919302C0E0E0F0E0CF01DF91CF910895F4
:10293000CF93DF93009709F487C0FC01329713828D
:102940001282C091B61CD091B71C209781F42081CF
:102950003181280F391F8091B41C9091B51C8217CA
:10296000930779F5F093B51CE093B41C6DC0DE01BC
:1029700020E030E0AE17BF0750F412964D915C9105
:1029800013979D014115510509F1DA01F3CFB38386
:10299000A28340815181840F951F8A179B0771F490
:1029A0008D919C911197840F951F0296918380833E
:1029B00012968D919C9113979383828321153105F3
:1029C00029F4F093B71CE093B61C3EC0D9011396CE
:1029D000FC93EE9312974D915D91A40FB51FEA17EA
:1029E000FB0779F480819181840F951F0296D901AC
:1029F00011969C938E938281938113969C938E93D0
:102A00001297E0E0F0E08A819B81009719F0FE01C7
:102A1000EC01F9CFCE01029628813981820F931FF4
:102A20002091B41C3091B51C2817390769F43097F0
:102A300029F41092B71C1092B61C02C013821282A5
:102A4000D093B51CC093B41CDF91CF910895DC01E5
:102A500001C06D9341505040E0F70895F894FFCFC6
:102A600001000000B81C20000700000008C105009C
:102A70000100000000000000000000000000000055
:102A80000000000000000000000000000000000046
:102A90000000000000000000000000000000000036
:102AA0000000566A96434FDE8B4319D32043C40E71
:102AB0009143D3E1864392E9144316328E4350C9C1
:102AC00083433B43084301718C4361B68143D30781
:102AD000F5420000000000000000000000000000BF
:102AE00000000000000000000000000000000000E6
:102AF0000000000000007BCD8F431CE17D43DDEB37
:102B00002E431C9E8B439F307543EF1F234391D46C
:102B10008843EB1F6E43348A1643D7DC8643321A50
:102B20006843E9980843BD848543EEE2624352DA84
:102B3000F042000000000000000000000000000063
:102B4000000000000000000000001BB58E431F6164
:102B50006E433A0C4143DA0C8A43D1B66443AEC8A3
:102B60003543DBDC8643C10F5C4320192A43627D79
:102B7000844345DD5343AA691D4306B6824319BD0C
:102B80004B435CE60E4336708143964B43436EF8ED
:102B9000F94200000000000000000000000035774E
:102BA0009243EAAE6543D0E25643CBB48B4302D1A5
:102BB0005A43F9D64B434EB1874399D15043811EB6
:102BC000414307C184438F064743762436436F7ED3
:102BD000824310EB3C43DF502A4397C2804370E2AC
:102BE000314360C81C43C8FB7E43AEE62443CDD7C7
:102BF0000B430000000000000000000000003577DB
:102C00009243D0E25643EAAE6543CBB48B43F9D648
:102C10004B4302D15A434EB18743811E414399D160
:102C2000504307C18443762436438F0647436F7E63
:102C30008243DF502A4310EB3C4397C2804360C875
:102C40001C4370E23143C8FB7E43CDD70B43AEE655
:102C5000244300000000000000000000000000000D
:102C6000000000000000000000001BB58E433A0C7D
:102C700041431F616E43DA0C8A43AEC83543D1B677
:102C80006443DBDC864320192A43C10F5C43627D29
:102C90008443AA691D4345DD534306B682435CE67F
:102CA0000E4319BD4B43367081436EF8F942964B83
:102CB000434300000000000000000000000000008E
:102CC0000000000000000000000000000000000004
:102CD0000000000000007BCD8F43DDEB2E431CE1A4
:102CE0007D431C9E8B43EF1F23439F30754391D43C
:102CF0008843348A1643EB1F6E43D7DC8643E9983A
:102D00000843321A6843BD84854352DAF042EEE24A
:102D1000624300000000000000000000000000000E
:102D200000000000000000000000000000000000A3
:102D30000000000000000000000000000000000093
:102D40000000566A964319D320434FDE8B43C40ECE
:102D5000914392E91443D3E1864316328E433B43B9
:102D6000084350C9834301718C43D307F54261B6D0
:102D7000814300000000000000000000000000008F
:102D80000000000000000000000093EC944318D9FC
:102D90008F43835534433DD48B43A520884336D19C
:102DA0002843DD8F874306D9834305E91C43BC9C38
:102DB0008443B5C18043EC2F1043D675824360D263
:102DC0007C43511F024393EE804366527943BDD545
:102DD000E342000000000000000000000000C60305
:102DE0008E43DB678443DB46424335908743F044A0
:102DF0007D434EE536432A6F8343E89C7443A152DA
:102E00002B43544B804325606D43C30C1F431394E5
:102E10007B431A086743BF7211435D9077435F5548
:102E20006143CA7F01431672744340285C430DCE50
:102E3000D942EED28E437C297D4347CF5343DF37BF
:102E40008743C9267143BD6C4843C7998243A6771F
:102E5000674356613D438E1E7E43ABD75E430B19DD
:102E60003243C84F78439BB8564383022643BD6E16
:102E70007343FABC4E43E554184348556F43CE8C18
:102E80004643F3940743D2F76B43C2B23D437B7E84
:102E9000DE42B8A88A438DB26A43074F5D4371A7EB
:102EA000844369C05F43B2445243B76F80436FDECF
:102EB0005543CEC64743081C7A436C594C43643B88
:102EC0003D43136A74430FB44243F71532438D8672
:102ED0006F43F56938438C9B2543AA536B43BEB2BD
:102EE0002C43827016434BC9674346DF1D43D99874
:102EF0000043B8A88A43074F5D438DB26A4371A768
:102F00008443B244524369C05F43B76F8043CEC627
:102F100047436FDE5543081C7A43643B3D436C597D
:102F20004C43136A7443F71532430FB442438D8602
:102F30006F438C9B2543F5693843AA536B438270DA
:102F40001643BEB22C434BC96743D998004346DFB2
:102F50001D43EED28E4347CF53437C297D43DF3759
:102F60008743BD6C4843C9267143C7998243566164
:102F70003D43A67767438E1E7E430B193243ABD782
:102F80005E43C84F7843830226439BB85643BD6EC9
:102F90007343E5541843FABC4E4348556F43F394CA
:102FA0000743CE8C4643D2F76B437B7EDE42C2B2F0
:102FB0003D43000000000000000000000000C603C8
:102FC0008E43DB464243DB678443359087434EE5BF
:102FD0003643F0447D432A6F8343A1522B43E89C40
:102FE0007443544B8043C30C1F4325606D431394BB
:102FF0007B43BF7211431A0867435D907743CA7FD2
:1030000001435F556143167274430DCED942402887
:103010005C43000000000000000000000000000011
:103020000000000000000000000093EC9443835572
:10303000344318D98F433DD48B4336D12843A52040
:103040008843DD8F874305E91C4306D98343BC9C35
:103050008443EC2F1043B5C18043D6758243511F82
:10306000024360D27C4393EE8043BDD5E342665277
:103070007943000000000000000000000000062668
:103080008D43EA4A9343243D4043603B854349874F
:10309000894355C73443218C80433BD48443BC2EA1
:1030A00029433EF47943066E814346FA1C43972236
:1030B0007443B68F7D432F9E0F43904C6F431B612B
:1030C0007943264B00430F526B43042C7643C8D6FA
:1030D000DA4211CD8843693F884332FC4D43ACFE50
:1030E0008143858081438E924243A9A37A4356A4AB
:1030F0007943955637436A10734386047243EDBC97
:103100002B43EC896C43306B6B433A331F435ABEFD
:103110006643BF8665437EE610439A8461432F2D44
:1031200060435D71FE426DC95C436B495B438464DF
:10313000C942A25F8243852879439F8653438D66A7
:103140007A43D2D26E437C91484309177243FA0006
:103150006643B4C43D43FAE06A43D7F35D43EC935E
:103160003243635C64431B45564371602643FF4F03
:103170005E4378A84E43AA2E1843F89658431DCFB5
:10318000464322C3054306165343A2483E435A50C2
:10319000C44296C07F43CCE868437F845C43672980
:1031A0007643AAD25E43940E5243E2216E43DE7C04
:1031B000554360F147435BFD66437F5E4C4396A5F4
:1031C0003D43B7666043DA084343C79D32437429E1
:1031D0005A4332F938431B062643221E54434E56A7
:1031E0002D43F41A1643C01F4E4312131E432228C8
:1031F000F74296C07F437F845C43CCE868436729ED
:103200007643940E5243AAD25E43E2216E4360F1AC
:103210004743DE7C55435BFD664396A53D437F5E99
:103220004C43B7666043C79D3243DA084343742971
:103230005A431B06264332F93843221E5443F41ADC
:1032400016434E562D43C01F4E432228F7421213F9
:103250001E43A25F82439F865343852879438D6630
:103260007A437C914843D2D26E4309177243B4C467
:103270003D43FA006643FAE06A43EC933243D7F3E6
:103280005D43635C6443716026431B455643FF4FB7
:103290005E43AA2E184378A84E43F896584322C39B
:1032A00005431DCF4643061653435A50C442A24815
:1032B0003E4311CD884332FC4D43693F8843ACFE09
:1032C00081438E92424385808143A9A37A439556D8
:1032D000374356A479436A107343EDBC2B438604ED
:1032E0007243EC896C433A331F43306B6B435ABED5
:1032F00066437EE61043BF8665439A8461435D71F1
:10330000FE422F2D60436DC95C438464C9426B4902
:103310005B430000000000000000000000000626E3
:103320008D43243D4043EA4A9343603B854355C760
:10333000344349878943218C8043BC2E29433BD4A5
:1033400084433EF4794346FA1C43066E8143972238
:1033500074432F9E0F43B68F7D43904C6F43264B93
:1033600000431B6179430F526B43C8D6DA42042CE9
:1033700076430000000000000000000000005C6ECA
:103380008143BB658F43797444439998774324D62E
:103390008843EA1A394328C76E43CCBC8443E09A79
:1033A0002D432E2E6743AFA881431B702143E24F6C
:1033B0006043DE767E43F4F813432BE8594376A14D
:1033C0007A434231044382C9534321B67743CDA6A1
:1033D000DF4257C27D43B19D874351DA5143DCA19F
:1033E00072436BC08143F6A8464395826943C3E7A5
:1033F0007A433DA93B43B25F614332D27343274DC9
:10340000304381C059437EB16D4362FB23431B5659
:103410005243F34368430ECD1543AAD94A43426948
:103420006343B9DC03432DF34243B9145F4359AD01
:10343000CC42DECF7343B1937A43591D574364FFA7
:103440006943ECE57043AC7A4C43E85061434898DB
:1034500068431A074243AB3059439C0A6143E03941
:1034600037430B42514318E6594397762B437A333F
:1034700049438AEC52435BC01D43BAA04043E0E29B
:103480004B43DCC40B436AE036438A7D44435861B6
:10349000C942437A6F43796C6B43C3B05F43A00466
:1034A0006643BFD1614334A25543556D5D4382F4F9
:1034B0005843E4F24B4387395543C75A50430025DC
:1034C0004243BA104D4391A347430EB637431E996A
:1034D000444370603E436FE42B4315543B4322E268
:1034E000334308181D435D4B3043C39D2643DD1114
:1034F0000543437A6F43C3B05F43796C6B43A004C9
:10350000664334A25543BFD16143556D5D43E4F238
:103510004B4382F458438739554300254243C75AE9
:103520005043BA104D430EB6374391A347431E99FB
:1035300044436FE42B4370603E4315543B430818EB
:103540001D4322E233435D4B3043DD110543C39DF0
:103550002643DECF7343591D5743B1937A4364FF2B
:103560006943AC7A4C43ECE57043E85061431A0779
:10357000424348986843AB305943E03937439C0A8B
:1035800061430B42514397762B4318E659437A33F4
:1035900049435BC01D438AEC5243BAA04043DCC49C
:1035A0000B43E0E24B436AE036435861C9428A7DEF
:1035B000444357C27D4351DA5143B19D8743DCA157
:1035C0007243F6A846436BC08143958269433DA987
:1035D0003B43C3E77A43B25F6143274D304332D266
:1035E000734381C0594362FB23437EB16D431B5635
:1035F00052430ECD1543F3436843AAD94A43B9DC7D
:103600000343426963432DF3424359ADCC42B9149D
:103610005F430000000000000000000000005C6E3E
:10362000814379744443BB658F4399987743EA1A81
:10363000394324D6884328C76E43E09A2D43CCBC37
:1036400084432E2E67431B702143AFA88143E24F72
:103650006043F4F81343DE767E432BE8594342314E
:10366000044376A17A4382C95343CDA6DF4221B6F3
:103670007743000000000000000000000000BF4D84
:103680007343509A9143F6BD4C43676B684380E3A4
:103690008A43828641430E0B5F43EAD886435558DE
:1036A00036433758564343DE8343A2A72A4383DA7F
:1036B0004D43CA8F8143ECD31D432C2B45438B8E46
:1036C0007F43DFE30E43B9C93B436DEB7C439185F8
:1036D000F7420D786F43373D8A4304AD5943EF8479
:1036E0006443F24084435F974E43FAD75A434F06F0
:1036F000804338EF4343D7AF51431B3E7943F71E16
:103700003943DF924843737D7343B6952D43C20D11
:103710003F43F0876E439D89204384823443A33F17
:103720006A4303731043FAC02743229C66438EC347
:10373000F042C359664391258043DA795E430931EB
:103740005C4327B67643E01354437AB25243C7B57D
:103750006E434C164A4346564943E29B674319FA67
:103760003F4319A83F436B1361432B373543701612
:103770003543A8E85A43E70729436EA12843BCF51F
:10378000544306D61943A3A5174389184F43ACC722
:1037900001437F3D62432EC071438F926643FD48D3
:1037A0005843925E68434DC95C43EDC74E43AAED52
:1037B0005F4340965343073E45438AF15743E47EB7
:1037C0004A4314313B43BC155043E01541437CF45C
:1037D0002F43400A4843A1CE3643D230224360668D
:1037E0003F4372AC2A43B5660D43CA6E3543A2FE11
:1037F00019437F3D62438F9266432EC07143FD485B
:1038000058434DC95C43925E6843EDC74E434096B2
:103810005343AAED5F43073E4543E47E4A438AF1A2
:10382000574314313B43E0154143BC1550437CF4EE
:103830002F43A1CE3643400A4843D230224372ACD4
:103840002A4360663F43B5660D43A2FE1943CA6E24
:103850003543C3596643DA795E4391258043093184
:103860005C43E013544327B676437AB252434C1676
:103870004A43C7B56E434656494319FA3F43E29B54
:10388000674319A83F432B3735436B1361437016C9
:103890003543E7072943A8E85A436EA1284306D6D3
:1038A0001943BCF55443A3A51743ACC7014389187A
:1038B0004F430D786F4304AD5943373D8A43EF843E
:1038C00064435F974E43F2408443FAD75A4338EF3C
:1038D00043434F068043D7AF5143F71E39431B3E46
:1038E0007943DF924843B6952D43737D7343C20DF0
:1038F0003F439D892043F0876E43848234430373A2
:103900001043A33F6A43FAC027438EC3F042229C70
:103910006643000000000000000000000000BF4DF2
:103920007343F6BD4C43509A9143676B684382865C
:10393000414380E38A430E0B5F4355583643EAD830
:10394000864337585643A2A72A4343DE834383DA8C
:103950004D43ECD31D43CA8F81432C2B4543DFE3FA
:103960000E438B8E7F43B9C93B439185F7426DEB84
:103970007C43000000000000000000000000000088
:103980000000000000000000000090625C43BCA941
:103990008F4314834E434A2352432A098B4310BB5F
:1039A000434385394843E8E4874306D93843D81967
:1039B0003E434F928543AE4A2D433B2E33430ED8B0
:1039C0008343DC5020432F8F2643CF9E824394971E
:1039D0001043BCC26443CC08914340226643945ECA
:1039E0005943D413894357BB5A43BFEE4E43667CB9
:1039F00084431A58504336BA4443BB078143323B91
:103A0000464381373A43287C7C43BFDB3B43DACBD8
:103A10002E43F6E277432FA3304330802143B31C7B
:103A200074439EA52343451F10430F1D7143E1D3EB
:103A30001243CCE25B43A15785435D056A438D1F6A
:103A40005143792680431F895F43C3C446438D3A5F
:103A5000784390F355433D433C4317687143D8A8DE
:103A60004C43510C3143DE686B430C3443433553B4
:103A700024433A076643F3123943D8791443842721
:103A80006143BC772D43377DF74237BE5C43EC8FF3
:103A90001E4396D75743C4267C437C737143FA3A3E
:103AA0004D433080724359956743EDD242433C48C1
:103AB0006A43B5C35E43E916384336DB6243176E8B
:103AC00056438C6C2C4310E35B43D7344E4396DC57
:103AD0001E43FB245543ACBD45437A290D43CF6CAF
:103AE0004E43E7903C432243D242167D47433CD3AA
:103AF000314396D757437C737143C4267C43FA3ACB
:103B00004D435995674330807243EDD24243B5C36C
:103B10005E433C486A43E9163843176E564336DB2A
:103B200062438C6C2C43D7344E4310E35B4396DCEA
:103B30001E43ACBD4543FB2455437A290D43E79012
:103B40003C43CF6C4E432243D2423CD33143167D9B
:103B50004743CCE25B435D056A43A15785438D1F14
:103B600051431F895F4379268043C3C4464390F382
:103B700055438D3A78433D433C43D8A84C4317689E
:103B80007143510C31430C344343DE686B4335536E
:103B90002443F31239433A076643D8791443BC7778
:103BA0002D4384276143377DF742EC8F1E4337BE98
:103BB0005C43BCC2644340226643CC089143945E9C
:103BC000594357BB5A43D4138943BFEE4E431A5847
:103BD0005043667C844336BA4443323B4643BB077A
:103BE000814381373A43BFDB3B43287C7C43DACBBC
:103BF0002E432FA33043F6E27743308021439EA526
:103C00002343B31C7443451F1043E1D312430F1DDC
:103C100071430000000000000000000000000000F0
:103C20000000000000000000000090625C4314836C
:103C30004E43BCA98F434A23524310BB43432A0936
:103C40008B438539484306D93843E8E48743D8197C
:103C50003E43AE4A2D434F9285433B2E3343DC50C7
:103C600020430ED883432F8F264394971043CF9E33
:103C7000824300000000000000000000000000007F
:103C80000000000000000000000000000000000034
:103C9000000000000000A6C348433C1D9243D1A190
:103CA0005643E0EB3D439F0F8E4351794C43A4BAFA
:103CB00032431B658B437464424306922643528908
:103CC000894328D43743418C1843DB4888434D133C
:103CD0002C43000000000000000000000000B07C49
:103CE000514365239243A4746C43EF5946430765DF
:103CF0008B43129C6143FA603B43BC5E8743A4EE56
:103D00005743E60130437A6A844316B14E435D9FC0
:103D100023436023824338664543074C1543C26200
:103D200080431D8E3B439B1C034381327E43606B6B
:103D300030438398544330188F4368AD7B43C83673
:103D4000494378728743C0BC6F4341323E431BD521
:103D5000824380046643A3F53243929A7E43EE4D3C
:103D60005D43D4EF264342D37843690C5543A359AE
:103D700019435CFB734311E04C4324BD0843A6EC9C
:103D80006F43796A44432F6DE142829B6C43A727BE
:103D90003B437C875043FA4F864315FE80433B519B
:103DA00045434A8180434CC0764366433A43855736
:103DB000784319C56D4323D12E43431D7143AEE8AB
:103DC0006543EF5F2243D6C96A4345AF5E439D0416
:103DD00014435E1B654314D0574387CA014330EF39
:103DE0005F434A135143A469C6426D345B43FA3FB3
:103DF0004A437C87504315FE8043FA4F86433B512C
:103E000045434CC076434A81804366433A4319C5D3
:103E10006D438557784323D12E43AEE86543431D58
:103E20007143EF5F224345AF5E43D6C96A439D04A9
:103E3000144314D057435E1B654387CA01434A139A
:103E4000514330EF5F43A469C642FA3F4A436D34A1
:103E50005B438398544368AD7B4330188F43C83627
:103E60004943C0BC6F437872874341323E4380046C
:103E700066431BD58243A3F53243EE4D5D43929AD0
:103E80007E43D4EF2643690C554342D37843A3596C
:103E9000194311E04C435CFB734324BD0843796A2A
:103EA0004443A6EC6F432F6DE142A7273B43829B1F
:103EB0006C43000000000000000000000000B07C27
:103EC0005143A4746C4365239243EF594643129CBB
:103ED000614307658B43FA603B43A4EE5743BC5EE6
:103EE0008743E601304316B14E437A6A84435D9FAF
:103EF00023433866454360238243074C15431D8E98
:103F00003B43C26280439B1C0343606B304381325E
:103F10007E430000000000000000000000000000E0
:103F20000000000000000000000000000000000091
:103F3000000000000000A6C34843D1A156433C1D29
:103F40009243E0EB3D4351794C439F0F8E43A4BA1B
:103F50003243746442431B658B430692264328D444
:103F6000374352898943418C18434D132C43DB4816
:103F70008843000000000000000000000000000076
:103F80000000000000000000000000000000000031
:103F90000000000000000000000000000000000021
:103FA000000054263843B9DD9843180068433E9E0C
:103FB0002C430C1894434C935E43326B20438F7612
:103FC000914310FE5543E1FA12439FD68F437EB7CB
:103FD0004D43000000000000000000000000000051
:103FE00000000000000000000000000000000000D1
:103FF0000000000000000A2C36434B1B9143661D55
:104000007043B7922A4312FC8C4366136743AB415B
:104010001E4302438A4336175F43899D1043C25AA9
:10402000884313AB57434AB8004329108743187F8E
:1040300050430000000000000000000000000000ED
:10404000000000000000000000005A673943F1FE44
:104050008C4318737C43A9EA2D43C44E8843CD0991
:10406000734300E12143A70B85434C3B6B435CBA90
:10407000144354958243F05B64430EA305437EB51D
:104080008043291B5E435E00E64220AE7E43E04B48
:10409000584300000000000000000000000011E88C
:1040A000404397558C430B1E8743C9813543D90440
:1040B0008643D72F814314E4294341DB8143BFD793
:1040C0007943548E1D4328487D436AE7724337E0A5
:1040D0000F438A12784333FD6C4311AAFF4227D263
:1040E000734388DA67433339D642066F70432266DA
:1040F000634300000000000000000000000011E821
:1041000040430B1E874397558C43C9813543D72FB6
:104110008143D904864314E42943BFD7794341DB63
:104120008143548E1D436AE7724328487D4337E03C
:104130000F4333FD6C438A12784311AAFF4288DA99
:10414000674327D273433339D64222666343066FEF
:1041500070430000000000000000000000000000AC
:10416000000000000000000000005A673943187387
:104170007C43F1FE8C43A9EA2D43CD097343C44E21
:10418000884300E121434C3B6B43A70B85435CBA5A
:104190001443F05B6443549582430EA30543291BEB
:1041A0005E437EB580435E00E642E04B584320AE5E
:1041B0007E4300000000000000000000000000003E
:1041C00000000000000000000000000000000000EF
:1041D0000000000000000A2C3643661D70434B1B94
:1041E0009143B7922A436613674312FC8C43AB4159
:1041F0001E4336175F4302438A43899D104313AB26
:104200005743C25A88434AB80043187F5043291085
:1042100087430000000000000000000000000000D4
:10422000000000000000000000000000000000008E
:10423000000000000000000000000000000000007E
:1042400000005426384318006843B9DD98433E9E69
:104250002C434C935E430C189443326B204310FE66
:1042600055438F769143E1FA12437EB74D439FD673
:104270008F43496E697469616C697A6174696F6EA4
:0C42800020636F6D706C6574652E00008B
:00000001FF
