:100000004AC1000069C1000067C1000065C100006D
:1000100063C1000061C100005FC100005DC100005C
:100020005BC1000059C1000057C1000055C100006C
:1000300053C1000051C100004FC100004DC100007C
:100040004BC1000049C1000047C1000045C100008C
:1000500043C1000041C100003FC100003DC100009C
:100060003BC1000005C5000037C1000035C10000DC
:1000700033C1000031C100002FC100002DC10000BC
:100080002BC1000029C1000027C1000025C10000CC
:10009000F4C5000021C100001FC100001DC1000007
:1000A0001BC1000019C1000017C1000015C10000EC
:1000B00013C1000011C100000FC100000DC10000FC
:1000C0000BC1000009C1000007C10000072C7AA580
:1000D000BA6CC590DA3B9365FC8BBC53F810FD3CC1
:1000E0005692834DBD879D3AB63DCBC9BF5BBE736B
:1000F000DA0FC93F05A84CCDB2D44EB93836A902A3
:100100000C50B9918688083CA6AAAA2ABE00000015
:10011000803F07634236B79BD8A71A39685618AE96
:10012000BAAB558C1D3CB7CC5763BD6DEDFD753E2C
:10013000F6177231BF000000803F08000000BE9239
:100140002449123EABAAAA2ABECDCCCC4C3E00001C
:100150000080BEABAAAAAA3E00000000BF000000BB
:10016000803F0000000000084178D3BB4387D113D3
:100170003D190E3CC3BD4282AD2B3E68EC8276BE7B
:10018000D98FE1A93E4C80EFFFBE01C4FF7F3F0045
:10019000000000006E616E00696E660000407A101B
:1001A000F35A00A0724E18090010A5D4E80000E828
:1001B0007648170000E40B54020000CA9A3B000086
:1001C00000E1F505000080969800000040420F0015
:1001D0000000A08601000000102700000000E803D6
:1001E000000000006400000000000A0000000000A1
:1001F0000100000000002C76D888DC674F0823DF60
:10020000C1DFAE59E1B1B796E5E3E453C63AE65132
:10021000997696E8E6C28426EB898C9B62ED407C59
:100220006FFCEFBC9C9F40F2BAA56FA5F490055AF5
:100230002AF75C936B6CF9676DC11BFCE0E40D471A
:10024000FEF520E6B500D0ED902E0300943577053D
:100250000080841E080000204E0A000000C80C33F5
:100260003333330F986E12831141EF8D2114893B84
:10027000E65516CFFEE6DB18D1844B381BF77C1D04
:10028000901DA4BBE424203284725E228100C9F157
:1002900024ECA1E53D2711241FBECFEFD1E2DEBF44
:1002A000CDBF00E00CBF15E0A0E0B2E0ECE4F1E56A
:1002B00000E00BBF02C007900D92AE36B107D9F730
:1002C00017E0AEE6B5E001C01D92AA3FB107E1F725
:1002D0000E94BA1A0C94A42893CE80915B05909149
:1002E0005C050895809370050895809372050895C4
:1002F000FC01E259FA4F65830895809371050895D2
:1003000020E030E090911206982311F021E030E0D7
:10031000C90108958091110690E00895FC01E25F03
:10032000F94F858190E00895362F20E0280F391F7E
:10033000C9010895282F30E0C90108958070892FE0
:1003400090E008950F931F93CF93DF93809156060B
:1003500090915706892B09F4B8C0809170058E3FA3
:1003600009F4A9C080915B0590915C05892B29F463
:100370001092550686E0809354068091550690E0D1
:100380006091540670E0681B790B825F994F45D3EA
:1003900090915506980F90935506809154069817A2
:1003A00018F446D2019771F070915506472F50E02E
:1003B000DA0111978A010250104060E0ED01C25F3E
:1003C000D94F18C080915506882309F071C086E086
:1003D00090E073C0F901E25FF94F80818F3F19F41B
:1003E00081818F3F61F02017310719F488818F3F99
:1003F00031F06F5F262F30E02A173B075CF366234E
:10040000A1F090E0421B530B08C0E25FF94FDF01FF
:10041000A20FB31F8C9180839F5FE92FF0E0E41758
:10042000F5079CF3761B7093550620915506809135
:100430005406281728F1909170058091100698179E
:10044000B9F5609111066C5F60935406261788F425
:10045000822F90E070E0681B790B825F994FDDD2AC
:1004600090915506980F90935506809154069817D1
:1004700038F080911106A82FB0E020E090E00CC089
:1004800085E090E090935C0580935B051EC0E25F81
:10049000F94F8281980F2F5FE22FF0E0AE17BF0770
:1004A000B4F7A25FB94F909513968C91891719F004
:1004B00087E090E002C081E090E090935C0580933B
:1004C0005B051092570610925606DF91CF911F914F
:1004D0000F9108951F9380915606909157060197AA
:1004E00009F45DC081E090E0909357068093560632
:1004F00080917105893940F490917205892F81505E
:10050000863028F0933819F084E090E02FC08FEF08
:1005100080936E0580936F0580917105A82FB0E0E0
:1005200020E090E005C0E259FA4F8281980F2F5FDA
:10053000E22FF0E0AE17BF07B4F7A259BA4F90957B
:1005400013969C9380915B0590915C0506970297AA
:1005500008F434D1109171051C5F8EE695E0612F8F
:1005600070E031D1181759F082E090E090935C056B
:1005700080935B05109257061092560610C080912A
:100580007205823029F48091740590E0069602C0CD
:1005900086E090E03CD110925C0510925B051F91C3
:1005A000089598DF80915B0590915C05892B39F463
:1005B000C9DE80915B0590915C050597C9F30895AC
:1005C000282F8091560690915706892B89F4209305
:1005D000700583E08093720560937305CA014093B0
:1005E000740580709093750585E080937105D9CF6F
:1005F000FFCF282F8091560690915706892BB1F492
:100600002093700582E08093720560937305809358
:10061000740584E080937105C4DF3091140620E0F6
:1006200080911306280F311DC9010895FFCF282F8F
:100630008091560690915706892B69F42093700596
:1006400083E080937205609373054093740584E0A2
:1006500080937105A6CFFFCF282F809156069091E9
:100660005706892B91F42093700582E080937205E0
:100670006093730581E08093740584E08093710535
:1006800090DF8091130690E00895FFCF282F80918E
:10069000560690915706892B49F42093700581E006
:1006A0008093720582E0809371057BCFFFCF85C078
:1006B0000F931F938C016F5F7F4F882777FD809585
:1006C000982F0E946C1E9B01AC0160E074E284EFE5
:1006D00099E40E94D11DAB01BC01C80115D0892B42
:1006E00019F420E030E00CC081E090E090935C05CC
:1006F00080935B05109257061092560621E030E079
:10070000C9011F910F910895EF92FF920F931F93CC
:100710007A018B0182E48093C00088E98093C10054
:1007200086E08093C20060E074E284EF99E4A8015F
:1007300097010E94D11D0E943E1E6150704070932F
:10074000C5006093C40060E074E284E799E4A80106
:1007500097010E94D11D20E030E040E451E40E9466
:10076000991F6093E8077093E9078093EA079093D5
:10077000EB072091E8073091E9074091EA07509193
:10078000EB0760E070E08AE793E40E94D11D0E94CD
:100790003E1E7093E7076093E6077298739A8FEF97
:1007A0008093C600109258071092590781E090E09C
:1007B0001F910F91FF90EF90089508958091590730
:1007C000809358070895AC01F8947398729A20E0CA
:1007D00030E011C08091C00085FFFCCF8091C00047
:1007E00080648093C000FA01E20FF31F8081809340
:1007F000C6002F5F3F4F2617370764F38091C00074
:1008000086FFFCCF7298739A7894C901089510926C
:10081000EF071092EE072091E6073091E707265F79
:100820003F4F280F391F3093ED072093EC070895B1
:10083000AF92BF92CF92DF92EF92FF920F931F93EE
:100840008091EE079091EF0701969093EF078093C8
:10085000EE072091EE073091EF078091EC07909121
:10086000ED078217930718F421E030E074C0A090E0
:10087000E807B090E907C090EA07D090EB07C601FF
:10088000B5012BEA3AEA4AEA50E40E94991F7B013B
:100890008C0120E030E040E85FE30E94CA1D88231D
:1008A00014F461E054C0C801B70120E030E04FE724
:1008B00053E40E94951F18160CF045C0C601B501FF
:1008C00020E030E04AE754E40E94D11D5B016C0156
:1008D00020E030E04AE755E40E94991F7B018C013B
:1008E00020E030E040E85FE30E94CA1D88231CF44A
:1008F00061E070E024C0C801B70120E03FEF4FE79E
:1009000057E40E94951F1816B4F4C601B50120E003
:1009100030E040E251E40E94991F0E943E1E80E9AF
:1009200091E005C0FC013197F1F76150704061150D
:100930007105C1F70EC0C801B7010E943E1ECB0170
:100940000197F1F706C0C801B7010E943E1E6A95E3
:10095000F1F720E030E0C9011F910F91FF90EF9077
:10096000DF90CF90BF90AF900895909158078091FD
:100970005907981719F420E030E017C090915807F4
:1009800080915907981738F480915907909158072A
:10099000282F30E008C08091590790915807282FE0
:1009A00030E020503F4F291B3109C90108951F93A2
:1009B000182FDBDF8F3F910591F0E0915907F0E0B0
:1009C000E85AF94F1083809159078F3F19F410921C
:1009D000590705C0809159078F5F809359071F9170
:1009E00008959091580780915907981711F4EFEFE7
:1009F00012C0E0915807F0E0E85AF94FE081809189
:100A000058078F3F19F41092580705C08091580776
:100A10008F5F809358078E2F0895EF92FF920F9368
:100A20001F93CF93DF937C01EB0190915807809146
:100A30005907981719F400E010E012C096DF8C01F6
:100A4000C817D9070CF48E01C0E0D0E006C0C9DF9A
:100A5000F701EC0FFD1F80832196C017D107BCF36F
:100A6000C801DF91CF911F910F91FF90EF900895F2
:100A70001F920F920FB60F920BB60F9211242F9365
:100A80003F934F935F936F937F938F939F93AF9316
:100A9000BF93EF93FF938091C60089DFFF91EF91A1
:100AA000BF91AF919F918F917F916F915F914F9186
:100AB0003F912F910F900BBE0F900FBE0F901F9084
:100AC0001895AC0120E030E00CC08091C80085FF93
:100AD000FCCFFA01E20FF31F80818093CE002F5FDD
:100AE0003F4F261737078CF30895DC019091DA0702
:100AF0008091DB07981711F480E008959091DA0750
:100B00008091DB07981719F420E030E017C090912E
:100B1000DA078091DB07981738F48091DB07909112
:100B2000DA07282F30E008C08091DB079091DA07C0
:100B3000282F30E020583F4F291B3109A9016217A7
:100B400073070CF4AB0120E030E020C09091DA078D
:100B50008091DB07981711F49FEF12C0E091DA073C
:100B6000F0E0E65AF84F90818091DA078F3719F458
:100B70001092DA0705C08091DA078F5F8093DA0759
:100B8000FD01E20FF31F90832F5F3F4F24173507BE
:100B9000ECF2842F08959091DA078091DB07981783
:100BA00019F420E030E017C09091DA078091DB075C
:100BB000981738F48091DB079091DA07282F30E0FE
:100BC00008C08091DB079091DA07282F30E0205889
:100BD0003F4F291B3109C9010895482F9091DA0729
:100BE0008091DB079817D1F09091DA078091DB07AD
:100BF000981738F48091DB079091DA07282F30E0BE
:100C000008C08091DB079091DA07282F30E0205848
:100C10003F4F291B31092F37310591F0E091DB0758
:100C2000F0E0E65AF84F40838091DB078F3719F4E4
:100C30001092DB0708958091DB078F5F8093DB07BD
:100C400008959091DA078091DB07981711F4EFEF80
:100C500012C0E091DA07F0E0E65AF84FE0818091A7
:100C6000DA078F3719F41092DA0705C08091DA0796
:100C70008F5F8093DA078E2F08951F920F920FB621
:100C80000F920BB60F9211242F933F934F935F93C4
:100C90006F937F938F939F93AF93BF93EF93FF9344
:100CA0008091CE009ADFFF91EF91BF91AF919F911C
:100CB0008F917F916F915F914F913F912F910F9005
:100CC0000BBE0F900FBE0F901F901895DF93CF9320
:100CD0000F920F92CDB7DEB7982F8A3099F48DE03E
:100CE00089839A83FE0131969E012D5F3F4F80914B
:100CF000C80085FFFCCF81918093CE00E217F307F7
:100D0000B1F706C08091C80085FFFCCF9093CE005C
:100D100080E090E00F900F90CF91DF910895909137
:100D2000DA078091DB079817D1F39091DA07809169
:100D3000DB07981738F48091DB079091DA07282FAA
:100D400030E008C08091DB079091DA07282F30E06F
:100D500020583F4F291B3109232B09F39091DA07C3
:100D60008091DB07981711F4EFEF15C0E091DA07D7
:100D7000F0E0E65AF84FE0818091DA078F3719F4F6
:100D80001092DA0705C08091DA078F5F8093DA0747
:100D9000ED3009F4EAE08E2F90E008950E946C1E79
:100DA0009B01AC0160E074E284EF99E40E94D11DE4
:100DB0000E943E1E6150704022E42093C80028E942
:100DC0002093C90026E02093CA002FEF2093CE0085
:100DD0001092DA071092DB07272F332727FD3A9569
:100DE0002093CD006093CC007298739A86E696E0CB
:100DF0006FE876E00E9421269093DD078093DC0760
:100E000008956F927F928F929F92AF92BF92CF92EE
:100E1000DF92EF92FF920F931F93CF93DF93EC013A
:100E2000E880F9800A811B81C801B701A8019701F8
:100E30000E949020882309F060C0AC80BD80CE80E5
:100E4000DF80C601B501A60195010E94902088238C
:100E5000C9F5C801B7012BED3FE049E450E40E9419
:100E6000951F18161CF0370148010AC0C801B701C8
:100E70002BED3FE049EC50E40E94651D3B014C0125
:100E8000C601B5012BED3FE049E450E40E94951FF7
:100E900018161CF0A60195010AC0C601B5012BED7C
:100EA0003FE049EC50E40E94651D9B01AC01C40188
:100EB000B3019F775F770E94CA1D18165CF4860104
:100EC000750108C0C801B701A80197010E949020D0
:100ED0008823F9F46E2D7F2D802F912FDF91CF91F4
:100EE0001F910F91FF90EF90DF90CF90BF90AF9048
:100EF0009F908F907F906F900895EC80FD800E8181
:100F00001F81C801B701A80197010E949020882382
:100F100009F30F2EF0E0EF2EF0E0FF2EF0EC0F2F94
:100F2000FFE71F2FF02DD6CFEF92FF920F931F9365
:100F300020E030E044E353E40E94991F2BED3FE0B2
:100F400049E450EC0E94D11D20E030E044E353E43A
:100F50000E94661D7B018C0120E030E040E050E003
:100F60000E94CA1D882354F4C801B70120E030E074
:100F700044EB53E40E94661D7B018C016E2D7F2D96
:100F8000802F912F1F910F91FF90EF9008954F9216
:100F90005F926F927F928F929F92AF92BF92CF9209
:100FA000DF92EF92FF920F931F93CF93DF93282F3F
:100FB000392F2B01161617060CF048C0690188243A
:100FC0008A9499249A940F2EFFE7AF2EF02D0F2EBE
:100FD000FFE7BF2EF02D66247724C0E0D0E0F601B5
:100FE000E080F18002811381C801B701282D392DDD
:100FF0004A2D5B2D0E94CA1D882314F43E0106C0B1
:10100000882D992DAA2DBB2D7C018D01219684E080
:1010100090E0C80ED91EC415D5053CF4D801C7010F
:101020008E2C992EAA2EBB2EDACFC801B7012FEF36
:101030003FEF4FE75FE70E94651D9F7720E030E0BC
:1010400040E85FE30E94CA1D88231CF466246A946A
:10105000762C862D972DDF91CF911F910F91FF90C8
:10106000EF90DF90CF90BF90AF909F908F907F9048
:101070006F905F904F9008952F923F924F925F92A2
:101080006F927F928F929F92AF92BF92CF92DF9298
:10109000EF92FF920F931F93DF93CF9300D00F92A5
:1010A000CDB7DEB7282F392F2B01161617060CF0F7
:1010B0006FC069018FEF89838A830F2EFFE72F2E80
:1010C000F02D0F2EFFE73F2EF02DBB24BA94AA245B
:1010D000AA940F2EFFE79F2EF02D0F2EFFE78F2EE5
:1010E000F02D662477241C821B82F601E080F180BB
:1010F00002811381C801B70129813A81422D532D04
:101100000E94CA1D88236CF4D801C701E9829A8322
:101110002A2E3B2E8B2D9A2DA92DB82D7C018D01C9
:1011200013C0C801B7012B2D3A2D492D582D0E940F
:10113000CA1D88231CF46B807C8006C08B2D9A2DE1
:10114000A92DB82D7C018D018B819C8101969C83FA
:101150008B83E4E0F0E0CE0EDF1E841595053CF4B1
:10116000D801C701BE2CA92E9A2E8B2EBECFC80146
:10117000B7012FEF3FEF4FE75FE70E94651D9F77B5
:1011800020E030E040E85FE30E94CA1D88231CF4A1
:1011900066246A94762C862D972D0F900F900F90D1
:1011A0000F90CF91DF911F910F91FF90EF90DF9003
:1011B000CF90BF90AF909F908F907F906F905F90F7
:1011C0004F903F902F900895AF92BF92CF92DF92B1
:1011D000EF92FF920F931F93DF93CF93CDB7DEB7BC
:1011E0002C970FB6F894DEBF0FBECDBFE982FA820E
:1011F0000B831C832D833E834F83588769877A87AF
:101200008B879C87A984BA84CB84DC8429813A812A
:101210004B815C81CA01B9010E94991FE62EF72E0D
:10122000082F192F2D813E814F815885CA01B901A0
:101230000E94991F262F372F482F592FC801B70119
:101240000E94661D20E030E040E152E40E94CA1D89
:101250001816DCF0C601B50120E030E040E551ECA5
:101260000E94951F88238CF010E0C601B50120E094
:1012700030E040E051EC0E94CA1D18160CF411E059
:1012800081E08127282F30E002C020E030E0822F6B
:10129000932F2C960FB6F894DEBF0FBECDBFCF9123
:1012A000DF911F910F91FF90EF90DF90CF90BF9053
:1012B000AF9008952F923F924F925F926F927F92DC
:1012C0008F929F92AF92BF92CF92DF92EF92FF9256
:1012D0000F931F93DF93CF93CDB7DEB7C257D040A4
:1012E0000FB6F894DEBF0FBECDBFE9A6FAA60BA7D6
:1012F0001CA72DA73EA74FA758AB69AB7AAB8BAB0A
:101300009CAB89A59AA5ABA5BCA525968CAF9DAF36
:10131000AEAFBFAF25978DA59EA5AFA5B8A9219665
:101320008CAF9DAFAEAFBFAF219789A99AA9ABA9EA
:10133000BCA989AF9AAFABAFBCAF25966CAD7DAD04
:101340008EAD9FAD259720E030E040E450E40E9450
:10135000FC1FA2966FAFA297A3967FAFA397A49608
:101360008FAFA497A5969FAFA59721966CAD7DAD45
:101370008EAD9FAD21979B01AC010E94991FA6964F
:101380006FAFA697A7967FAFA797A8968FAFA8979E
:10139000A9969FAFA99721966CAD7DAD8EAD9FADFF
:1013A000219720E030E040E450E40E94FC1FAA9620
:1013B0006FAFAA97AB967FAFAB97AC968FAFAC975A
:1013C000AD969FAFAD9725966CAD7DAD8EAD9FADC3
:1013D00025979B01AC010E94991FAE966FAFAE9707
:1013E000AF967FAFAF97E0968FAFE097E1969FAF54
:1013F000E19769AD7AAD8BAD9CAD9B01AC010E94CC
:10140000991F262E372E482E592E29962CAE3DAEEA
:101410004EAE5FAE299721966CAD7DAD8EAD9FAD82
:10142000219720E030E040E451E40E94991F2D967E
:101430006CAF7DAF8EAF9FAF2D97A5966CAD7DAD98
:101440008EAD9FADA59726E534E549E354E40E94AF
:10145000651D7B018C0121966CAD7DAD8EAD9FAD80
:1014600021972DE932EC4FE053EC0E94991F9B012C
:10147000AC01C801B7010E94661D7B018C01A996D1
:101480006CAD7DAD8EAD9FADA99726E630E94AE8FB
:1014900051E40E94991F9B01AC01C801B7010E9451
:1014A000661D7B018C01AD966CAD7DAD8EAD9FADA3
:1014B000AD9727ED33EB4DED5FE30E94991F9B0144
:1014C000AC01C801B7010E94661D5B016C01E19689
:1014D0006CAD7DAD8EAD9FADE19727ED33EB4DED5E
:1014E0005FE30E94991F7B018C0121966CAD7DAD5D
:1014F0008EAD9FAD219720E030E040EC50E40E949B
:10150000661D9B01AC01C801B7010E94991F9B0198
:10151000AC01C601B5010E94661D7B018C01C201B0
:10152000B10127ED33EB4DED50E40E94991F9B0173
:10153000AC01C801B7010E94661D7B018C01219698
:101540006CAD7DAD8EAD9FAD219727ED33EB4DEDAD
:101550005FE30E94991F9B01AC01C201B1010E948F
:10156000991F9B01AC01C801B7010E94661D7B0158
:101570008C012D966CAD7DAD8EAD9FAD2D9720E08D
:1015800030E046EA52E40E94651D9B01AC01A99639
:101590006CAD7DAD8EAD9FADA9970E94661D9B0180
:1015A000AC01C201B1010E94661D9B01AC012596F0
:1015B0006CAD7DAD8EAD9FAD25970E94991F9B01AF
:1015C000AC01C801B7010E94661D61966CAF7DAF8A
:1015D0008EAF9FAF619725966CAD7DAD8EAD9FAD03
:1015E000259720E030E040E850E40E94FC1FE62E02
:1015F000F72E082F192F21966CAD7DAD8EAD9FADC6
:10160000219720E030E040E850E40E94FC1FA62E25
:10161000B72EC82ED92E69AD7AAD8BAD9CAD20E02A
:1016200030E040E850E40E94FC1F662E772E882EA2
:10163000992EC201B101A20191010E94661D659619
:101640006CAF7DAF8EAF9FAF659725966CAD7DADCE
:101650008EAD9FAD259727ED33EB4DE550E40E940D
:10166000991F69966CAF7DAF8EAF9FAF6997A996B2
:101670006CAD7DAD8EAD9FADA9979B01AC010E9475
:10168000661D6D966CAF7DAF8EAF9FAF6D97D2012B
:10169000C101B058A1968CAF9DAFAEAFBFAFA197BF
:1016A000A5966CAD7DAD8EAD9FADA59727ED33EBC7
:1016B0004DED50E40E94991F20E034E240E256E4F0
:1016C0000E94661DA80197010E94661D7B018C0186
:1016D000AD966CAD7DAD8EAD9FADAD9720E030E0A9
:1016E00040E451E40E94991F9B01AC01C801B7017D
:1016F0000E94661DA60195010E94661D7B018C015A
:10170000C201B10120E030E04DE953EC0E94991F85
:101710009B01AC01C801B7010E94661DA4019301A1
:101720000E94661D7B018C01C201B10120E030E006
:101730004DE153E40E94651D9B01AC012D966CADFB
:101740007DAD8EAD9FAD2D970E94991F9B01AC0181
:10175000C801B7010E94661D7B018C0165966CADC6
:101760007DAD8EAD9FAD659720E030E04DE753E451
:101770000E94651D9B01AC01A9966CAD7DAD8EAD3F
:101780009FADA9970E94991F9B01AC01C801B701A9
:101790000E94661D7B018C0121966CAD7DAD8EADE6
:1017A0009FAD219720E030E040E551EC0E94991F69
:1017B00020E030E04DE953E40E94651D6D962CADAC
:1017C0003DAD4EAD5FAD6D970E94661D9B01AC01B6
:1017D00065966CAD7DAD8EAD9FAD65970E94661D23
:1017E0009B01AC0169966CAD7DAD8EAD9FAD6997E7
:1017F0000E94991F9B01AC01C801B7010E94661DA0
:101800007B018C012D966CAD7DAD8EAD9FAD2D977E
:1018100020E030E043E653E40E94651D9B01AC01EB
:101820006D966CAD7DAD8EAD9FAD6D970E94661DC2
:101830009B01AC0165966CAD7DAD8EAD9FAD65979E
:101840000E94661D9B01AC01E1966CAD7DAD8EAD35
:101850009FADE1970E94991F9B01AC01C801B701A0
:101860000E94661D9B01AC01A1966CAD7DAD8EAD55
:101870009FADA1970E94991F0E9452205B016C01AD
:10188000E1966CAD7DAD8EAD9FADE19720E030E08F
:1018900040E452E40E94661D7B018C0121966CADF0
:1018A0007DAD8EAD9FAD219720E030E040EC51E45E
:1018B0000E94991F9B01AC01C801B7010E94661DDF
:1018C0007B018C01A9966CAD7DAD8EAD9FADA997C6
:1018D00020E030E040E450E40E94991F9B01AC01FD
:1018E000C801B7010E94661D7B018C0121966CAD79
:1018F0007DAD8EAD9FAD219720E030E040E850E413
:101900000E94661D9B01AC0169966CAD7DAD8EADEC
:101910009FAD69970E94991F9B01AC01C801B70157
:101920000E94661D7B018C01C201B10120E030E004
:1019300040E850E40E94991F9B01AC01C801B70127
:101940000E94661D20E030E040EA50EC0E94991FA2
:101950007B018C01C601B501A60195010E94661D9F
:101960009B01AC0161966CAD7DAD8EAD9FAD619775
:101970000E94661DA80197010E94D11D1B012C0128
:10198000C601B50120E030E040E050EC0E94991F14
:101990009B01AC0161966CAD7DAD8EAD9FAD619745
:1019A0000E94661DA80197010E94D11D7B018C0138
:1019B000C201B1019F7720E030E040E85FE30E9480
:1019C000951F18160CF04DC0C201B10120E030E0A7
:1019D00040E85FE30E94651D9F7727E137EB41ED0B
:1019E00058E30E94CA1D88236CF480E090E0A0E0D8
:1019F000B0E089839A83AB83BC838D839E83AF835E
:101A0000B8873CC0C201B10120E030E040E85FE3AC
:101A10000E94661D9F7727E137EB41ED58E30E9456
:101A2000CA1D88238CF48BED9FE0A9E4B0E4898380
:101A30009A83AB83BC838BED9FE0A9E4B0EC8D83EC
:101A40009E83AF83B8871AC080E090E0A0ECBFE728
:101A500089839A83AB83BC838D839E83AF83B8874E
:101A60000DC0C201B1010E94571D69837A838B8327
:101A70009C8390586D837E838F839887C801B701BC
:101A80009F7720E030E040E85FE30E94951F181642
:101A90000CF059C0C801B70120E030E040E85FE336
:101AA0000E94651D9F7727E137EB41ED58E30E94C7
:101AB000CA1D8823CCF480E090E0A0E0B0E08987E4
:101AC0009A87AB87BC878D879E87AF87B88BDE01EF
:101AD0001196B8AFAFABFE017196FEABEDABE396DE
:101AE000FFAFEEAFE3973DC0C801B70120E030E0A3
:101AF00040E85FE30E94661D9F7727E137EB41EDE9
:101B000058E30E94CA1D88238CF48BED9FE0A9E462
:101B1000B0E489879A87AB87BC878BED9FE0A9E407
:101B2000B0EC8D879E87AF87B88BD1CF80E090E0F7
:101B3000A0ECBFE789879A87AB87BC878D879E8794
:101B4000AF87B88BC4CFC801B7010E94571D698702
:101B50007A878B879C8790586D877E878F87988B35
:101B6000B6CFAFA9B8AD2D903D904D905C90C2011D
:101B7000B101A20191010E949020882359F08FEFBA
:101B80009FEFAFE7BFE7EDA9FEA980839183A28312
:101B9000B38386C0C201B1010E94CE1D5B016C01FE
:101BA00025966CAD7DAD8EAD9FAD259728ED33EBC1
:101BB0004DED5FE30E94661D7B018C01C601B501FE
:101BC00020E030E040EA50E40E94991F20E030E03D
:101BD00040E05FE30E94991F9B01AC01C801B7017F
:101BE0000E94661D9B01AC010E94991F662E772EF4
:101BF000882E992EC601B50126E630E94AE051E467
:101C00000E94991F20E030E040EC50E40E94661DE5
:101C100020E030E040E05FE30E94991F21962CAD68
:101C20003DAD4EAD5FAD21970E94661D9B01AC019D
:101C30000E94991FA62EB72EC82ED92EC201B1011F
:101C40000E94482020E030E040EA50EC0E94991FBA
:101C50009B01AC0169AD7AAD8BAD9CAD0E94661D58
:101C60009B01AC010E94991FE62EF72E082F192F19
:101C7000C401B301A60195010E94661DA801970148
:101C80000E94661D20E030E040E153E40E94651DA3
:101C90009F77ADA9BEA96D937D938D939C93139768
:101CA000EFA9F8AD3496F8AFEFAB2DA93EA92C5FA4
:101CB0003F4F3EAB2DABE3968EAD9FADE397E8175C
:101CC000F90709F04ECF8E010F5E1F4FC80164E087
:101CD00070E05DD97C01C80164E070E0CDD9BC0141
:101CE0009FEFE9169FEFF90629F420E030E040EC81
:101CF0005FE70CC0C701880F991F880F991FFE016D
:101D0000E80FF91F2181328143815481AFEF6F3F8A
:101D10007A0729F480E090E0A0ECBFE70CC0CB018B
:101D2000880F991F880F991FFE01E80FF91F818105
:101D30009281A381B48129A33AA34BA35CA38DA371
:101D40009EA3AFA3B8A7CE0181965BD8EDD8CE589D
:101D5000DF4F0FB6F894DEBF0FBECDBFCF91DF913E
:101D60001F910F91FF90EF90DF90CF90BF90AF90B9
:101D70009F908F907F906F905F904F903F902F90AB
:101D800008952F923F924F925F926F927F928F921F
:101D90009F92AF92BF92CF92DF92EF92FF920F93FA
:101DA0001F93DF93CF93CDB7DEB7CE56D0400FB69B
:101DB000F894DEBF0FBECDBFE9A6FAA60BA71CA7FD
:101DC0002DA73EA74FA758AB69AB7AAB8BAB9CABAB
:101DD00089A59AA5ABA5BCA525968CAF9DAFAEAF46
:101DE000BFAF25978DA59EA5AFA5B8A921968CAFAD
:101DF0009DAFAEAFBFAF219789A99AA9ABA9BCA9E6
:101E000089AF9AAFABAFBCAF25966CAD7DAD8EAD53
:101E10009FAD259720E030E040E450E40E94FC1F95
:101E20006E966FAF6E976F967FAF6F97A0968FAFDE
:101E3000A097A1969FAFA19725966CAD7DAD8EAD75
:101E40009FAD25979B01AC010E94991FA2966FAF91
:101E5000A297A3967FAFA397A4968FAFA497A596BA
:101E60009FAFA59721966CAD7DAD8EAD9FAD2197AF
:101E70009B01AC010E94991FA6966FAFA697A796EB
:101E80007FAFA797A8968FAFA897A9969FAFA9975E
:101E900021966CAD7DAD8EAD9FAD219720E030E0F9
:101EA00040E450E40E94FC1FAA966FAFAA97AB963D
:101EB0007FAFAB97AC968FAFAC97AD969FAFAD971A
:101EC00069AD7AAD8BAD9CAD9B01AC010E94991FB1
:101ED000262E372E482E592E29962CAE3DAE4EAECC
:101EE0005FAE299721966CAD7DAD8EAD9FAD2197EC
:101EF00020E030E040E451EC0E94991F2D966CAF39
:101F00007DAF8EAF9FAF2D97A1966CAD7DAD8EADA1
:101F10009FADA19726E534E549E354E40E94651D91
:101F20005B016C01A5966CAD7DAD8EAD9FADA597A7
:101F300027ED33EB4DED5FEB0E94991F7B018C0188
:101F400021966CAD7DAD8EAD9FAD219720E030E048
:101F500040EC50E40E94651D9B01AC01C801B70133
:101F60000E94991F9B01AC01C601B5010E94661D2C
:101F70007B018C0121966CAD7DAD8EAD9FAD21971F
:101F80002DE932EC4FE053E40E94991F9B01AC0114
:101F9000C801B7010E94661D7B018C01A9966CAD3A
:101FA0007DAD8EAD9FADA99726E630E94AE851E4B4
:101FB0000E94991F9B01AC01C801B7010E94661DD8
:101FC0007B018C01AD966CAD7DAD8EAD9FADAD97B7
:101FD00027ED33EB4DED5FEB0E94991F9B01AC01A8
:101FE000C801B7010E94661D7B018C01C201B101CD
:101FF00027ED33EB4DED50E40E94991F9B01AC019E
:10200000C801B7010E94661D7B018C0121966CAD51
:102010007DAD8EAD9FAD219727ED33EB4DED5FEBA1
:102020000E94991F9B01AC01C201B1010E94991F3E
:102030009B01AC01C801B7010E94661D7B018C01A8
:102040002D966CAD7DAD8EAD9FAD2D9720E030E02F
:1020500046EA52E40E94651D9B01AC01A9966CAD55
:102060007DAD8EAD9FADA9970E94661D9B01AC0111
:10207000C201B1010E94661D9B01AC0125966CADA9
:102080007DAD8EAD9FAD25970E94991F9B01AC0140
:10209000C801B7010E94661D61966CAF7DAF8EAF1F
:1020A0009FAF619725966CAD7DAD8EAD9FAD2597A9
:1020B00020E030E040E850E40E94FC1FE62EF72EBE
:1020C000082F192F21966CAD7DAD8EAD9FAD219758
:1020D00020E030E040E850E40E94FC1FA62EB72E1E
:1020E000C82ED92E69AD7AAD8BAD9CAD20E030E025
:1020F00040E850E40E94FC1F662E772E882E992E11
:10210000C201B101A20191010E94661D65966CAFEA
:102110007DAF8EAF9FAF6597A9966CAD7DAD8EAD4F
:102120009FADA9979B01AC010E94661D69966CAF9B
:102130007DAF8EAF9FAF6997D201C101B0586D9648
:102140008CAF9DAFAEAFBFAF6D97A1966CAD7DADBF
:102150008EAD9FADA19727ED33EB4DED50E40E947E
:10216000991F20E034E240E256E40E94661DA80177
:1021700097010E94661D7B018C01AD966CAD7DAD13
:102180008EAD9FADAD9720E030E040E451EC0E9471
:10219000991F9B01AC01C801B7010E94661DA601F1
:1021A00095010E94661D7B018C01C201B10120E0F6
:1021B00030E04DE953EC0E94991F9B01AC01C8012E
:1021C000B7010E94661DA40193010E94661D7B0158
:1021D0008C01C201B10120E030E04DE153E40E94E6
:1021E000651D9B01AC012D966CAD7DAD8EAD9FAD97
:1021F0002D970E94991F9B01AC01C801B7010E9455
:10220000661D7B018C0165966CAD7DAD8EAD9FAD7D
:10221000659720E030E04DE753E40E94651D9B0187
:10222000AC01A9966CAD7DAD8EAD9FADA9970E9416
:10223000991F9B01AC01C801B7010E94661D7B017B
:102240008C012D966CAD7DAD8EAD9FAD2D9720E0B0
:1022500030E043E653E40E94651D69962CAD3DAD28
:102260004EAD5FAD69970E94661D9B01AC016596FE
:102270006CAD7DAD8EAD9FAD65970E94661D9B01D7
:10228000AC01A5966CAD7DAD8EAD9FADA5970E94BE
:10229000991F9B01AC01C801B7010E94661D5B013B
:1022A0006C0125966CAD7DAD8EAD9FAD259727ED6C
:1022B00033EB4DE550E40E94991F7B018C01219680
:1022C0006CAD7DAD8EAD9FAD219720E030E040E557
:1022D00051E40E94991F20E030E04DE953E40E9450
:1022E000651D9B01AC0169966CAD7DAD8EAD9FAD5A
:1022F00069970E94661D9B01AC0165966CAD7DAD32
:102300008EAD9FAD65970E94661D9B01AC01C80113
:10231000B7010E94991F9B01AC01C601B5010E9443
:10232000661D9B01AC016D966CAD7DAD8EAD9FAD14
:102330006D970E94991F0E9452203B014C01A59667
:102340006CAD7DAD8EAD9FADA59720E030E040E453
:1023500052E40E94661D5B016C0125966CAD7DAD5B
:102360008EAD9FAD259727ED33EB4DE550EC0E94E8
:10237000991F7B018C0121966CAD7DAD8EAD9FAD1B
:10238000219720E030E040E850E40E94651D9B0169
:10239000AC01C801B7010E94991F9B01AC01C601A5
:1023A000B5010E94661D7B018C0121966CAD7DAD4F
:1023B0008EAD9FAD219720E030E040EC51EC0E94C3
:1023C000991F9B01AC01C801B7010E94661D7B01EA
:1023D0008C01A9966CAD7DAD8EAD9FADA99720E027
:1023E00030E040E450E40E94991F9B01AC01C80119
:1023F000B7010E94661D7B018C01C201B10120E082
:1024000030E040E850E40E94991F9B01AC01C801F4
:10241000B7010E94661D20E030E040EA50EC0E94C7
:10242000991F7B018C01C401B301A40193010E9497
:10243000661D9B01AC0161966CAD7DAD8EAD9FAD0F
:1024400061970E94661DA80197010E94D11D1B0182
:102450002C01C401B30120E030E040E050EC0E94C8
:10246000991F9B01AC0161966CAD7DAD8EAD9FADAA
:1024700061970E94661DA80197010E94D11D7B01F2
:102480008C01C201B1019F7720E030E040E85FE3BA
:102490000E94951F18160CF04DC0C201B10120E03A
:1024A00030E040E85FE30E94651D9F7727E137EB4E
:1024B00041ED58E30E94CA1D88236CF480E090E04F
:1024C000A0E0B0E089839A83AB83BC838D839E8335
:1024D000AF83B8873CC0C201B10120E030E040E8E2
:1024E0005FE30E94661D9F7727E137EB41ED58E3DC
:1024F0000E94CA1D88238CF48BED9FE0A9E4B0E410
:1025000089839A83AB83BC838BED9FE0A9E4B0EC15
:102510008D839E83AF83B8871AC080E090E0A0ECE3
:10252000BFE789839A83AB83BC838D839E83AF830C
:10253000B8870DC0C201B1010E94571D69837A831B
:102540008B839C8390586D837E838F839887C8018B
:10255000B7019F7720E030E040E85FE30E94951FDD
:1025600018160CF059C0C801B70120E030E040E86F
:102570005FE30E94651D9F7727E137EB41ED58E34C
:102580000E94CA1D8823CCF480E090E0A0E0B0E077
:1025900089879A87AB87BC878D879E87AF87B88BE3
:1025A000DE011196B8AFAFABFE017196FEABEDAB9D
:1025B000AF96FFAFEEAFAF973DC0C801B70120E0C7
:1025C00030E040E85FE30E94661D9F7727E137EB2C
:1025D00041ED58E30E94CA1D88238CF48BED9FE0E7
:1025E000A9E4B0E489879A87AB87BC878BED9FE02D
:1025F000A9E4B0EC8D879E87AF87B88BD1CF80E000
:1026000090E0A0ECBFE789879A87AB87BC878D876E
:102610009E87AF87B88BC4CFC801B7010E94571DF2
:1026200069877A878B879C8790586D877E878F878D
:10263000988BB6CFAFA9B8AD2D903D904D905C90E2
:10264000C201B101A20191010E949020882359F09A
:102650008FEF9FEFAFE7BFE7EDA9FEA980839183DE
:10266000A283B38386C0C201B1010E94CE1D5B016B
:102670006C0125966CAD7DAD8EAD9FAD259728ED97
:1026800033EB4DED5FE30E94661D7B018C01C601BB
:10269000B50120E030E040EA50E40E94991F20E0BC
:1026A00030E040E05FE30E94991F9B01AC01C8014C
:1026B000B7010E94661D9B01AC010E94991F662E06
:1026C000772E882E992EC601B50126E630E94AE01C
:1026D00051EC0E94991F20E030E040EC50E40E9451
:1026E000651D20E030E040E05FE30E94991F2196E5
:1026F0002CAD3DAD4EAD5FAD21970E94661D9B0197
:10270000AC010E94991FA62EB72EC82ED92EC20149
:10271000B1010E94482020E030E040EA50EC0E94E5
:10272000991F9B01AC0169AD7AAD8BAD9CAD0E9448
:10273000661D9B01AC010E94991FE62EF72E082F03
:10274000192FC401B301A60195010E94661DA801BD
:1027500097010E94661D20E030E040E153E40E94B2
:10276000651D9F77ADA9BEA96D937D938D939C93B5
:102770001397EFA9F8AD3496F8AFEFAB2DA93EA9AA
:102780002C5F3F4F3EAB2DABAF968EAD9FADAF975D
:10279000E817F90709F04ECF8E010F5E1F4FC801F1
:1027A00064E070E00E94C7077C01C80164E070E04B
:1027B0000E943C08BC019FEFE9169FEFF90629F43F
:1027C00020E030E040EC5FE70CC0C701880F991FA4
:1027D000880F991FFE01E80FF91F21813281438183
:1027E0005481AFEF6F3F7A0729F480E090E0A0ECCE
:1027F000BFE70CC0CB01880F991F880F991FFE01FE
:10280000E80FF91F81819281A381B48129A33AA3A2
:102810004BA35CA38DA39EA3AFA3B8A7CE018196C3
:102820000E9401070E949407C259DF4F0FB6F89427
:10283000DEBF0FBECDBFCF91DF911F910F91FF90F3
:10284000EF90DF90CF90BF90AF909F908F907F9050
:102850006F905F904F903F902F9008952F923F92EE
:102860004F925F926F927F928F929F92AF92BF92A0
:10287000CF92DF92EF92FF920F931F93DF93CF934C
:10288000CDB7DEB7CA55D0400FB6F894DEBF0FBE45
:10289000CDBFE9A6FAA60BA71CA72DA73EA74FA759
:1028A00058AB69AB7AAB8BAB9CAB89A59AA5ABA5B2
:1028B000BCA589AF9AAFABAFBCAFADA4BEA4CFA44B
:1028C000D8A889A99AA9ABA9BCA98DAB9EABAFAB7F
:1028D000B8AF69AD7AAD8BAD9CAD9B01AC010E94E8
:1028E000991F2E966FAF2E972F967FAF2F976096DA
:1028F0008FAF609761969FAF619769AD7AAD8BADF1
:102900009CAD20E030E040E450E40E94FC1F629661
:102910006FAF629763967FAF639764968FAF64974C
:1029200065969FAF6597C601B501A60195010E9406
:10293000991F262E372E482E592E25962CAE3DAEA9
:102940004EAE5FAE25976DA97EA98FA998AD9B016C
:10295000AC010E94991F66966FAF669767967FAF2E
:10296000679768968FAF689769969FAF69976996E2
:102970008CAD9DADAEADBFAD699721968CAF9DAFCF
:10298000AEAFBFAF219761966CAD7DAD8EAD9FAD03
:10299000619721EE36E446E251E40E94991F26E554
:1029A00034E549EB53E40E94651D65962CAD3DADC1
:1029B0004EAD5FAD65970E94651D7B018C01C20124
:1029C000B10127ED33EB4DE550E40E94991F9B01C7
:1029D000AC01C801B7010E94661D7B018C0169969C
:1029E0006CAD7DAD8EAD9FAD699727ED33EB4DE5B9
:1029F00050E40E94991F9B01AC01C801B7010E94DD
:102A0000661D7B018C01C201B10120E030E046EA85
:102A100052E40E94651D9B01AC0169966CAD7DADD1
:102A20008EAD9FAD69970E94661D9B01AC0169AD9B
:102A30007AAD8BAD9CAD0E94991F9B01AC01C80182
:102A4000B7010E94651D29966CAF7DAF8EAF9FAF19
:102A5000299769AD7AAD8BAD9CAD20E030E040E8C0
:102A600050E40E94FC1F662E772E882E992EC601F8
:102A7000B50120E030E040E850E40E94FC1FE62E63
:102A8000F72E082F192F6DA97EA98FA998AD20E0E8
:102A900030E040E850E40E94FC1FA62EB72EC82E5E
:102AA000D92E21968CAD9DADAEADBFAD2197B0585E
:102AB0002D968CAF9DAFAEAFBFAF2D9765966CAD29
:102AC0007DAD8EAD9FAD659727ED33EB4DE551ECB8
:102AD0000E94991F20E034E240E256E4F7D7A401B7
:102AE0009301F4D7A8019701F1D77B018C01699676
:102AF0006CAD7DAD8EAD9FAD699720E030E04DE9C6
:102B000053EC0E94991F9B01AC01C801B701DED7AD
:102B1000A6019501DBD75B016C01C201B101A201E5
:102B20009101D4D77B018C0169966CAD7DAD8EADE2
:102B30009FAD699720E030E046ED52E4C6D79B0197
:102B4000AC01C801B7010E94991F9B01AC01C601ED
:102B5000B501BCD75B016C0169AD7AAD8BAD9CADA5
:102B600027ED33EB4DE551EC0E94991F7B018C0161
:102B7000C201B10120E030E04DE153E4A6D79B0152
:102B8000AC0169966CAD7DAD8EAD9FAD69979ED75A
:102B90009B01AC01C801B7010E94991F9B01AC01C8
:102BA000C601B50193D75B016C0161966CAD7DAD3B
:102BB0008EAD9FAD61979B01AC0188D77B018C01E5
:102BC000C201B10120E030E045E053E47ED79B0133
:102BD000AC0169966CAD7DAD8EAD9FAD699776D732
:102BE0009B01AC01C801B7010E94991F9B01AC0178
:102BF000C601B5016BD79B01AC012D966CAD7DADC7
:102C00008EAD9FAD2D970E94991F0E9452205B01AF
:102C10006C0169AD7AAD8BAD9CAD27ED33EB4DED1D
:102C200050EC0E94991F20E030E040E451E44ED780
:102C30009B01AC0161966CAD7DAD8EAD9FAD619792
:102C400045D79B01AC0169966CAD7DAD8EAD9FAD56
:102C500069973CD720E030E040E251EC0E94991F98
:102C60007B018C0129966CAD7DAD8EAD9FAD299712
:102C7000A60195012BD7A801970193D73B014C01E1
:102C800029966CAD7DAD8EAD9FAD2997A6019501BE
:102C90001CD7A801970185D77B018C01C401B30122
:102CA0009F7720E030E040E85FE30E94951F181610
:102CB0000CF049C0C401B30120E030E040E85FE31C
:102CC00004D79F7727E137EB41ED58E363D788239B
:102CD0006CF480E090E0A0E0B0E089839A83AB835D
:102CE000BC838D839E83AF83B88739C0C401B30191
:102CF00020E030E040E85FE3E9D69F7727E137EB5B
:102D000041ED58E347D788238CF48BED9FE0A9E48D
:102D1000B0E489839A83AB83BC838BED9FE0A9E405
:102D2000B0EC8D839E83AF83B88719C080E090E0BC
:102D3000A0ECBFE789839A83AB83BC838D839E839A
:102D4000AF83B8870CC0C401B301B1D669837A835D
:102D50008B839C8390586D837E838F839887C80173
:102D6000B7019F7720E030E040E85FE30E94951FC5
:102D700018160CF058C0C801B70120E030E040E858
:102D80005FE3A3D69F7727E137EB41ED58E302D706
:102D90008823E4F480E090E0A0E0B0E089879A879F
:102DA000AB87BC878D879E87AF87B88B2E01089431
:102DB000411C511C0F2EF1E12F2E3324F02D2C0E2F
:102DC0003D1E6B963FAE2EAE6B973AC0C801B70161
:102DD00020E030E040E85FE379D69F7727E137EBEA
:102DE00041ED58E3D7D688238CF48BED9FE0A9E41E
:102DF000B0E489879A87AB87BC878BED9FE0A9E415
:102E0000B0EC8D879E87AF87B88BD0CF80E090E005
:102E1000A0ECBFE789879A87AB87BC878D879E87A1
:102E2000AF87B88BC3CFC801B70141D669877A870E
:102E30008B879C8790586D877E878F87988BB6CFBE
:102E4000F2016080718082809380C401B301A4018B
:102E500093010E949020882351F08FEF9FEFAFE7FE
:102E6000BFE7F10180839183A283B38356C0C4017D
:102E7000B30194D67B018C0169AD7AAD8BAD9CAD6D
:102E800028ED33EB4DE550E420D65B016C01C80121
:102E9000B70120E030E040EA50EC0E94991F9B010E
:102EA000AC01C601B50112D69B01AC010E94991F6D
:102EB000A62EB72EC82ED92EC401B3010E944820D9
:102EC00020E030E040EA50EC0E94991F9B01AC01E9
:102ED0006DA97EA98FA998ADF9D59B01AC010E947F
:102EE000991FE62EF72E082F192F25966CAD7DAD74
:102EF0008EAD9FAD2597A6019501E8D5A801970154
:102F0000E5D520E030E040E153E4DFD59F77D10103
:102F10006D937D938D939C931397E4E0F0E04E0EB8
:102F20005F1E2E0E3F1E6B968EAD9FAD6B974816A3
:102F3000590609F085CF8E010F5E1F4FC80164E06E
:102F400070E00E94C7077C01C80164E070E00E9445
:102F50003C08BC019FEFE9169FEFF90629F420E039
:102F600030E040EC5FE70CC0C701880F991F880F65
:102F7000991FFE01E80FF91F21813281438154819D
:102F8000AFEF6F3F7A0729F480E090E0A0ECBFE755
:102F90000CC0CB01880F991F880F991FFE01E80F05
:102FA000F91F81819281A381B48129A33AA34BA304
:102FB0005CA38DA39EA3AFA3B8A7CE0181960E9468
:102FC00001070E949407C65ADF4F0FB6F894DEBF80
:102FD0000FBECDBFCF91DF911F910F91FF90EF906A
:102FE000DF90CF90BF90AF909F908F907F906F9029
:102FF0005F904F903F902F9008956F927F928F92A5
:103000009F92AF92BF92CF92DF92EF92FF920F9377
:103010001F93DF93CF93CDB7DEB72C970FB6F894FD
:10302000DEBF0FBECDBF3C018C2CC9829D2CDA8245
:10303000AE2CEB82BF2CFC82C02E0D83D12E1E83C2
:10304000B22F2F83A32F3887F42F4987E52F5A8774
:10305000862F6B87972F7C87E82CF92C0A2D1B2D48
:103060002C2D3D2D4B2F5A2F6F2F7E2FF7DBF30189
:1030700061937193819391936F01E980FA800B8141
:103080001C812D813E814F81588569857A858B858C
:103090009C850E94C10EF6016083718382839383B5
:1030A000AA24BB246894A3F8A60CB71CE980FA8074
:1030B0000B811C812D813E814F81588569857A85E0
:1030C0008B859C850E945A097B018C01F5016083E8
:1030D000718382839383F301208131814281538103
:1030E000CA01B9010E949020882399F4F601208139
:1030F000318142815381CA01B9010E949020882305
:1031000041F4C801B701A80197010E9490208823CB
:1031100099F080E090E0A0ECBFE7F3018083918319
:10312000A283B383F60180839183A283B383F501E5
:1031300080839183A283B3832C960FB6F894DEBF6D
:103140000FBECDBFCF91DF911F910F91FF90EF90F8
:10315000DF90CF90BF90AF909F908F907F906F90B7
:103160000895EF92FF920F931F93682F809163054C
:10317000909164058230910509F467C08330910510
:1031800024F4019709F0EFC108C08330910509F4D8
:10319000DFC0049709F0E7C15EC1643269F582E0DF
:1031A00090E0909364058093630580E090E0A0E058
:1031B000B0E08093DE079093DF07A093E007B09321
:1031C000E1078093E2079093E307A093E407B093AD
:1031D000E5078093670590936805A0936905B09310
:1031E0006A0587E090E090936C0580936B0581EB16
:1031F00093E00E94EB26B7C1693769F480916505B9
:10320000909166050997D1F48AE090E09093660565
:1032100080936505A8C16E3689F48091650590910B
:103220006605069759F484EC93E00E94EB2685E04E
:1032300090E0909366058093650595C185E090E0E8
:1032400090936605809365058EC1862F80538A30E2
:1032500028F570E060537040882777FD8095982F9F
:103260003BD57B018C016091DE077091DF07809177
:10327000E0079091E10720E030E040E251E459D6C8
:103280009B01AC01C801B70121D46093DE077093A4
:10329000DF078093E0079093E10765C16C3209F086
:1032A00043C083E090E09093640580936305809130
:1032B0006B0590916C05089789F48091DE079091D9
:1032C000DF07A091E007B091E107B0588093DE07D7
:1032D0009093DF07A093E007B093E10787E090E0C9
:1032E00090936C0580936B0500D000D0EDB7FEB7CE
:1032F000319683ED93E0918380838091DE079091F6
:10330000DF07A091E007B091E10782839383A48354
:10331000B5830E94DA268DB79EB706960FB6F8944D
:103320009EBF0FBE8DBF1FC16D3239F488E090E0A3
:1033300090936C0580936B0516C184EE93E00E9418
:10334000EB2681E090E090936405809363050BC1C8
:10335000862F80538A3028F570E0605370408827AC
:1033600077FD8095982FB8D47B018C016091E2079E
:103370007091E3078091E4079091E50720E030E049
:1033800040E251E4D6D59B01AC01C801B7019ED300
:103390006093E2077093E3078093E4079093E50757
:1033A000E2C06C3209F043C084E090E09093640581
:1033B0008093630580916B0590916C05089789F463
:1033C0008091E2079091E307A091E407B091E507AF
:1033D000B0588093E2079093E307A093E407B0937B
:1033E000E50787E090E090936C0580936B0500D033
:1033F00000D0EDB7FEB731968FEE93E091838083D6
:103400008091E2079091E307A091E407B091E5076E
:1034100082839383A483B5830E94DA268DB79EB7F7
:1034200006960FB6F8949EBF0FBE8DBF9CC06D323E
:1034300039F488E090E090936C0580936B0593C01D
:1034400084EE93E00E94EB2681E090E09093640587
:103450008093630588C0862F80538A3028F570E0FA
:1034600060537040882777FD8095982F35D47B0175
:103470008C01609167057091680580916905909154
:103480006A0520E030E040E251E453D59B01AC01F5
:10349000C801B7011BD360936705709368058093DB
:1034A000690590936A055FC06A3209F049C080914E
:1034B0006B0590916C05089789F480916705909150
:1034C0006805A0916905B0916A05B05880936705B9
:1034D00090936805A0936905B0936A0587E090E032
:1034E00090936C0580936B0500D000D0EDB7FEB7CC
:1034F000319680E094E0918380838091670590917C
:103500006805A0916905B0916A0582839383A483BD
:10351000B5830E94DA2686E090E09093660580935A
:10352000650581E090E090936405809363058DB715
:103530009EB706960FB6F8949EBF0FBE8DBF13C000
:103540006D3239F488E090E090936C0580936B05C0
:103550000AC081E194E00E94EB2681E090E0909324
:1035600064058093630580E090E01F910F91FF90C8
:10357000EF9008952F923F924F925F926F927F92B9
:103580008F929F92AF92BF92CF92DF92EF92FF9273
:103590000F931F93DF93CF93CDB7DEB7A2970FB6EC
:1035A000F894DEBF0FBECDBF60E071EE80E090E02A
:1035B0000E94CE0680E090E061E070E00E94580337
:1035C00081E090E061E070E00E94580382E090E0CA
:1035D00061E070E00E945803789420E137E240E90E
:1035E00051E0CA010197F1F721503040D1F780E056
:1035F00090E0A4E3B3E48D879E87AF87B88B898B77
:103600009A8BAB8BBC8B8D8B9E8BAF8BB88F81E0F5
:1036100090E06EE170E040E058E00E94E0026989CD
:103620007A898B899C8925D3882777FD8095982F67
:1036300053D328E73BE046E351E47BD41AD39B0104
:10364000AC0182E090E06EE170E0A9010E94E0022E
:103650006D897E898F89988D0CD3882777FD809519
:10366000982F3AD328E73BE046E351E462D401D3F4
:103670009B01AC0183E090E06EE170E0A9010E9443
:10368000E0028BE194E00E94EB260F2EF0EF4F2E2C
:10369000F7E05F2EF02DF201808191810E946C266F
:1036A00060DD892B21F084E394E00E94EB26809179
:1036B0006505909166058630910509F09FC160917E
:1036C000DE077091DF078091E0079091E10720E02D
:1036D00030E04AE754E465D23B014C0189A29AA24A
:1036E0006091E2077091E3078091E4079091E5070C
:1036F00020E030E04AE754E454D25B016C016D8F66
:10370000BE8ECF8ED8A260916705709168058091BA
:10371000690590916A0520E030E04AE754E441D21F
:103720007B018C01698FFA8E0B8F1C8F8CE394E0E8
:103730000E94EB268DB79EB70E970FB6F8949EBFEA
:103740000FBE8DBFEDB7FEB7319681E594E0918352
:103750008083862D972DA82DB92D82839383A483F2
:10376000B5838A2D9B2DAC2DBD2D86839783A08795
:10377000B1878E2D9F2DA02FB12F82879387A4878D
:10378000B5870E94DA268E2D9F2DA02FB12F898715
:103790009A87AB87BC878A2D9B2DAC2DBD2D8D8341
:1037A0009E83AF83B887862D972DA82DB92D898349
:1037B0009A83AB83BC83EDB7FEB73E960FB6F89401
:1037C000FEBF0FBEEDBFE980FA800B811C812D8109
:1037D0003E814F81588569857A858B859C850E94BD
:1037E000E408892B09F4FBC080E794E00E94EB26F3
:1037F000298D3A8D4B8D5C8D822F932FA42FB52F61
:1038000089879A87AB87BC872D8D3E8D4F8D58A1B8
:10381000822F932FA42FB52F8D839E83AF83B887DC
:1038200049A15AA1862D972DA42FB52F89839A835C
:10383000AB83BC83CE010D96C980DA80EB80FC801F
:103840000D811E812F81388549855A856B857C8540
:10385000D4DB2D853E854F855889CA01B90160D4D6
:10386000882369F00F920F9281E894E0EDB7FEB7DC
:10387000928381830E94DA260F900F90A9C088E975
:1038800094E00E94EB26EDB7FEB73E970FB6F89492
:10389000FEBF0FBEEDBF31968CEA94E0918380832A
:1038A00049A15AA1862D972DA42FB52F82839383EA
:1038B000A483B5832D8D3E8D4F8D58A1822F932FDC
:1038C000A42FB52F86839783A087B187298D3A8D42
:1038D0004B8D5C8D822F932FA42FB52F82879387DA
:1038E000A487B5870E94DA26EDB7FEB731968FEC34
:1038F00094E0918380838D859E85AF85B88982838E
:103900009383A483B58389899A89AB89BC8986838B
:103910009783A087B1878D899E89AF89B88D82876B
:103920009387A487B5870E94DA260DB71EB70F5F6D
:103930001F4F88EF94E0F801918380836D857E8529
:103940008F85988996D1882777FD8095982FC4D147
:1039500028E73BE046E351E4ECD2F801628373834D
:103960008483958369897A898B899C8982D1882708
:1039700077FD8095982FB0D128E73BE046E351E4EE
:10398000D8D2F80166837783808791876D897E8995
:103990008F89988D6ED1882777FD8095982F9CD13F
:1039A00028E73BE046E351E4C4D2F801628773871D
:1039B000848795870E94DA268DB79EB70E960FB63C
:1039C000F8949EBF0FBE8DBF81E295E00E94EB266A
:1039D000E9E0F0E0F0936605E09365055CCE80E3F6
:1039E00095E00E94EB2684E495E00E94EB2685E0BA
:1039F00090E090936605809365054DCE0A9709F097
:103A00004ACE6D857E858F85988933D1882777FD4D
:103A10008095982F61D128E73BE046E351E489D2B5
:103A200028D19B01AC0181E090E06EE170E0A9013A
:103A30000E94E00269897A898B899C891AD188273A
:103A400077FD8095982F48D128E73BE046E351E485
:103A500070D20FD19B01AC0182E090E06EE170E08A
:103A6000A9010E94E0026D897E898F89988D01D11C
:103A7000882777FD8095982F2FD128E73BE046E3F4
:103A800051E457D2F6D09B01AC0183E090E06EE1A7
:103A900070E0A9010E94E0028CE495E00E94EB2610
:103AA000E5E0F0E0F0936605E0936505F4CD9F93C3
:103AB0009F774DD10F9000203AF49058A2EA2AED5A
:103AC0003FE049E450E413D0E5C15058BB27AA2792
:103AD0000ED0E0C1A9D130F0AED120F031F49F3F3B
:103AE00011F41EF479C10EF4E095E7FB6FC1E92FE4
:103AF000F3D180F3BA17620773078407950718F0AC
:103B000071F49EF50BC20EF4E0950B2EBA2FA02D8A
:103B10000B01B90190010C01CA01A0011124FF277A
:103B2000591B99F0593F50F4503E68F11A16F04075
:103B3000A22F232F342F4427585FF3CF4695379574
:103B40002795A795F0405395C9F77EF41F16BA0B39
:103B5000620B730B840BBAF09150A1F0FF0FBB1FE7
:103B6000661F771F881FC2F70EC0BA0F621F731F30
:103B7000841F48F4879577956795B795F7959E3F8D
:103B800008F0B3CF9395880F08F09927EE0F97951B
:103B900087950895F7D008F481E0089554D1E3950E
:103BA0008AC10CD077C147D140F03ED130F021F42A
:103BB0005F3F19F00BC15111B2C10EC18DD198F305
:103BC0009923C9F35523B1F3951B550BBB27AA279E
:103BD00062177307840738F09F5F5F4F220F331F10
:103BE000441FAA1FA9F333D00E2E3AF0E0E830D0DC
:103BF00091505040E695001CCAF729D0FE2F27D0DF
:103C0000660F771F881FBB1F261737074807AB07AC
:103C1000B0E809F0BB0B802DBF01FF2793585F4F21
:103C20002AF09E3F510568F0D1C079C15F3FECF3A7
:103C3000983EDCF3869577956795B795F7959F5FE6
:103C4000C9F7880F911D9695879597F90895E1E03A
:103C5000660F771F881FBB1F621773078407BA0799
:103C600020F0621B730B840BBA0BEE1F88F7E095F4
:103C7000089504D06894B11152C1089535D188F0E7
:103C80009F5790F0B92F9927B751A0F0D1F0660F48
:103C9000771F881F991F1AF0BA95C9F712C0B13063
:103CA00081F03CD1B1E0089539C1672F782F882782
:103CB000B85F39F0B93FCCF3869577956795B395A2
:103CC000D9F73EF490958095709561957F4F8F4F11
:103CD0009F4F0895E89409C097FB3EF49095809516
:103CE000709561957F4F8F4F9F4F9923A9F0F92FC2
:103CF00096E9BB279395F695879577956795B79540
:103D0000F111F8CFFAF4BB0F11F460FF1BC06F5F25
:103D10007F4F8F4F9F4F16C0882311F096E911C037
:103D2000772321F09EE8872F762F05C0662371F058
:103D300096E8862F70E060E02AF09A95660F771F6C
:103D4000881FDAF7880F9695879597F90895DF937E
:103D5000CF931F930F938B01EC01ECECF0E03FD07D
:103D600099D09801AE018B01EC0160E070E080E831
:103D70009FE3ABDE97D19801AE010F911F91CF91D8
:103D8000DF91E3C0990F0008550FAA0BE0E8FEEFA2
:103D900016161706E807F907C0F012161306E4070F
:103DA000F50798F0621B730B840B950B39F40A2608
:103DB00061F0232B242B252B21F408950A2609F4E6
:103DC000A140A6958FEF811D811D089597F99F67EA
:103DD00080E870E060E008959FEF80EC0895DF9345
:103DE000CF931F930F93FF92EF92DF927B018C0191
:103DF000689405C0DA2EEF01A8D0FE01E894A591E1
:103E00002591359145915591AEF3EF0170DEFE019C
:103E10009701A801DA9479F7DF90EF90FF900F9166
:103E20001F91CF91DF91089500240A94161617066A
:103E300018060906089500240A941216130614069B
:103E400005060895C9CF50D0E8F3E894E0E0BB2719
:103E50009F57F0F02AED3FE049EC06C0EE0FBB0F94
:103E6000661F771F881F28F0B23A6207730784071E
:103E700028F0B25A620B730B840BE3959A9572F794
:103E8000803830F49A95BB0F661F771F881FD2F7D2
:103E900090487DC1092E0394000C11F4882352F040
:103EA000BB0F40F4BF2B11F460FF04C06F5F7F4F66
:103EB0008F4F9F4F0895EF93E0FF06C0A2EA2AEDCF
:103EC0003FE049EC5FEB13DEE5DF0F90039401FC6C
:103ED0009058E4EFF0E06EC157FD9058440F551F25
:103EE00059F05F3F71F04795880F97FB991F61F07C
:103EF0009F3F79F087950895121613061406551FF3
:103F0000F2CF4695F1DF08C0161617061806991F5E
:103F1000F1CF86957105610508940895E894BB2753
:103F200066277727CB0197F908952CDF08F48FEFE8
:103F300008950BD0AFCF78DF28F07DDF18F0952300
:103F400009F044CF49CF1124EACFC6DFA0F3959FF3
:103F5000D1F3950F50E0551F629FF001729FBB2770
:103F6000F00DB11D639FAA27F00DB11DAA1F649F1C
:103F70006627B00DA11D661F829F2227B00DA11DCF
:103F8000621F739FB00DA11D621F839FA00D611D55
:103F9000221F749F3327A00D611D231F849F600D76
:103FA000211D822F762F6A2F11249F5750408AF0AF
:103FB000E1F088234AF0EE0FFF1FBB1F661F771F3B
:103FC000881F91505040A9F79E3F510570F0FECEDA
:103FD000A6CF5F3FECF3983EDCF386957795679527
:103FE000B795F795E7959F5FC1F7FE2B880F911D59
:103FF0009695879597F90895FA01EE0FFF1F309671
:104000002105310599F16115710561F48038BFE32F
:104010009B0749F168949038810561F08038BFEFC3
:104020009B0741F0992342F5FF3FE105310521054A
:1040300011F1E8940894E795D901AA2329F4AB2F4C
:10404000BE2FF85FD0F310C0FF5F70F4A695E0F7C5
:10405000F73950F019F0FF3A38F49F779F930CD05E
:104060000F9007FC905808953EF0B6CE60E070E0E7
:1040700080E89FE308954FE79F775F934F933F93C7
:104080002F93EBD02F913F914F915F9152DF51C011
:104090009F93D9DE0F9007FCEE5F0DCF11F40EF465
:1040A0009BCE73C021DFD0F39923D9F3CEF39F5772
:1040B000550B87FF78D00024A0E640EA9001805895
:1040C0005695979528F4805C660F771F881F20F01F
:1040D00026173707480730F4621B730B840B20291F
:1040E00031294A2BA69517940794202531254A2774
:1040F00058F7660F771F881F20F0261737074807E5
:1041000030F4620B730B840B200D311D411DA09503
:1041100081F7B901842F9158880F96958795089556
:1041200031DE880B990B089519F40EF04FCEF6CEC0
:1041300053CEDADEC8F39638C0F707F80F92E8944A
:104140002BE33AEA48EB5FE702DF0F920F920F9200
:104150004DB75EB70F92C1D0E2E1F1E040DE4F9182
:104160005F91EF91FF91E595EE1FFF1F49F0FE571C
:10417000E0684427EE0F441FFA95E1F74195550B8F
:1041800033D00F9007FE27C008959F3F31F0915024
:1041900020F4879577956795B795880F911D96952B
:1041A000879597F9089591505040660F771F881FA3
:1041B000D2F708959F938F937F936F93FF93EF931D
:1041C0009B01AC01B6DEEF91FF9109DE2F913F918B
:1041D0004F915F91AECE9B01AC0160E070E080E852
:1041E0009FE3DFCCF3CDD1CF7FDEE8F39923D9F382
:1041F000940F511DBBF39150504094F059F0882317
:1042000032F0660F771F881F91505040C1F79E3FD4
:10421000510544F7880F911D9695879597F9089554
:104220005F3FACF0983E9CF0BB27869577956795ED
:10423000B79508F4B1609395C1F7BB0F58F711F427
:1042400060FFE8CF6F5F7F4F8F4F9F4FE3CF67CE09
:104250000EF09BCFC1CD6894B9CD46DEC8F399234B
:10426000D1F3C6F3DF93CF931F930F93FF92C92F20
:10427000DD2788232AF02197660F771F881FDAF73A
:1042800020E030E040E85FEB9FE3883920F0803E9B
:1042900030F021968F771ADCEAE3F1E003C016DCF8
:1042A000E7E6F1E09CDD8B01BE01EC01FB2E6F57D0
:1042B00071097595771F880B990B0EDD28E132E7A0
:1042C00041E35FE342DEAF2D9801AE01FF900F9115
:1042D0001F91CF91DF910BDCDDCDFA01DC01AA0F3C
:1042E000BB1F9B01AC01BF5728F42227332744276B
:1042F00050781FC0B75188F4AB2F002446953795EE
:104300002795011CA395D2F3002069F0220F331FDB
:10431000441FB395DAF30DD0D8CB61307105A0E816
:104320008A07B94630F49B01AC01662777278827B6
:104330009078309621F0208331834283538308950F
:104340002F923F924F925F926F927F928F929F92A5
:10435000AF92BF92CF92DF92EF92FF920F931F9393
:10436000DF93CF93CDB7DEB761970FB6F894DEBF7A
:104370000FBECDBF3C017F876E876A01FC011782AB
:104380001682838181FD03C06FEF7FEF52C39E01D0
:104390002F5F3F4F398B288BF3012381EE85FF85FB
:1043A00023FD859123FF8191FF87EE87882309F400
:1043B0003DC3853251F4EE85FF8523FD859123FFB2
:1043C0008191FF87EE87853221F490E0B301C6D456
:1043D000E3CF982F10E0882499241032B0F49B3258
:1043E00069F09C3228F4903251F0933271F40BC092
:1043F0009D3239F0903349F4116028C01260146086
:1044000025C0186023C0106121C017FD2AC0892F64
:1044100080538A3078F416FF06C0FAE09F9E902CF5
:104420001124980E13C03AE0839E802C1124880E2C
:1044300010620CC09E3221F416FDF8C2106406C052
:104440009C3611F4106802C0983659F4EE85FF8549
:1044500023FD959123FF9191FF87EE87992309F022
:10446000BCCF892F8554833020F4812F8061905EEA
:1044700007C0892F8556833008F08FC1812F8F7E2A
:1044800086FD02C076E0972E6FE3F62EF822953671
:1044900019F4F0E4FF2A07C0963619F420E8F22A4E
:1044A00002C091109A94F7FE0AC03BE3391518F444
:1044B0005CE3B52E02C0B92CB39427E009C047E0F5
:1044C000491520F4BB2447E0942EF7CF292DBB24B7
:1044D000C60104969D878C87F60160817181828177
:1044E0009381AE014F5F5F4F0B2DBDD26C010981EF
:1044F000202E332400FF04C003FD02C01DE209C0CA
:10450000F1FE02C01BE205C0F2FC02C010E001C0D7
:1045100010E2C1018C709070892BA1F1112311F46C
:1045200083E001C084E0881510F0882409C0881A4F
:10453000F3FC06C080E290E0B30110D48A94D1F776
:10454000112321F0812F90E0B30108D423FE03C092
:1045500004E911E00DC008E911E00AC0E114F1041A
:1045600009F0805290E0B301F9D30F5F1F4F05C0EF
:10457000EF2CFF24F0E1EF22FF24F801849188233F
:1045800069F708C1F7FE12C0BC0C24FE04C08A8182
:10459000813309F4BA941B141CF0BB24B3942DC0CE
:1045A000F8E0FB1550F538E0B32E27C0F6FC25C027
:1045B000892D90E08C159D054CF02CEFC2162FEF45
:1045C000D20624F030E8F32A01C09A94992049F0E9
:1045D000E2E0F0E0EC0FFD1FE90DF11D808180337A
:1045E000A1F3F7FE0AC0B92CB394892D90E0C81648
:1045F000D90614F0992401C09C18F7FC03C025E0EB
:1046000030E009C01C141D041CF021E030E003C0A0
:1046100096012F5F3F4F112311F02F5F3F4F9920DD
:1046200029F0892D90E00196280F391F882D90E000
:104630002817390714F0882401C0821A4F2C5524FA
:10464000C20189709070892B31F007C080E290E040
:10465000B30184D38A948820C9F7112321F0812FD4
:1046600090E0B3017BD343FE06C007C080E390E037
:10467000B30174D38A948820C9F7F7FE44C0860139
:10468000D7FE02C000E010E076010894E11CF11CA6
:10469000E01AF10A41E050E04C0F5D1FE40EF51EF8
:1046A00026014B185108892D90E0AA24BB24A81A92
:1046B000B90A5FEF0F3F150721F48EE290E0B301D6
:1046C0004DD3C016D10634F0401651061CF4F70144
:1046D000808101C080E3015010400894E11CF11C6E
:1046E0000A151B0524F090E0B30138D3E2CF0C1576
:1046F0001D0539F49A81963318F4953311F424FE8C
:1047000081E390E045C08A81813309F00F7E90E01B
:10471000B30124D3992091F08EE290E0B3011ED32F
:1047200012E0E1E0F0E0EC0FFD1FE10FF11D1F5F73
:10473000808190E0B30112D39A9499F744FC03C0AE
:1047400085E690E002C085E490E0B30107D3D7FC92
:1047500005C0C114D10441F404FF06C0D094C19433
:10476000D108D3948DE201C08BE290E0B301F6D280
:1047700080E305C08F5F26EF3FEFC20ED31E3AE005
:10478000C316D104BCF790E0B301E8D2C601C096CD
:10479000B301E4D2CC84DD8446C1933631F0933743
:1047A00099F0933509F055C022C0F60180818983C4
:1047B0005E010894A11CB11C22E030E0C20ED31EA1
:1047C00021E0E22EF12C11C0F601A080B18016FD8F
:1047D00003C06FEF7FEF02C0692D70E022E030E090
:1047E000C20ED31EC50122D27C011F7712C0F60172
:1047F000A080B18016FD03C06FEF7FEF02C0692D6E
:1048000070E022E030E0C20ED31EC50104D27C016C
:10481000106813FF06C019C080E290E0B3019ED279
:104820008A94882D90E0E816F906B0F30EC0F501E1
:1048300017FD859117FF81915F0190E0B3018ED242
:1048400081108A940894E108F108E114F10479F7E1
:10485000EAC0943611F0993681F517FF08C0F601C9
:10486000208131814281538184E090E00AC0F601C9
:10487000808191819C01442737FD4095542F82E02F
:1048800090E0C80ED91E9FE6F92EF12257FF09C00D
:1048900050954095309521953F4F4F4F5F4F90E891
:1048A000F92ACA01B901AE014F5F5F4F2AE030E03B
:1048B000C7D2E82EE889EE1A40C0953721F41F7E52
:1048C0002AE030E01CC0197F9F3661F0903720F459
:1048D000983509F0ABC00FC0903739F0983709F020
:1048E000A5C004C028E030E00AC0106114FD1460C7
:1048F00020E130E004C014FD166020E132E017FF33
:1049000008C0F601608171818281938144E050E0AA
:1049100008C0F60180819181BC0180E090E042E016
:1049200050E0C40ED51EAE014F5F5F4F89D2E82E16
:104930005889E51A8FE7F82EF122F6FE0BC08EEFAC
:10494000F822E91438F4F4FE07C0F2FC05C09FEE2B
:10495000F92202C01E2D01C0192DF4FE0DC0FE016A
:10496000EE0DF11D8081803319F4E9EEFE2208C0BE
:104970001F5FF2FE05C003C08F2D867809F01F5F10
:104980000F2DF3FC13C0F0FE0EC0181510F09E2C76
:104990000AC09E2C980C911A182D05C080E290E058
:1049A000B301DCD11F5F1815C8F304C0181510F44B
:1049B000811A01C0882404FF0EC080E390E0B30197
:1049C000CDD102FF1BC001FD03C088E790E00EC0FF
:1049D00088E590E00BC0802F867881F001FF02C04F
:1049E0008BE201C080E2F7FC8DE290E0B301B6D12A
:1049F00005C080E390E0B301B1D19A94E914C8F303
:104A0000EA94E1E0F0E0EC0FFD1FEE0DF11D808176
:104A100090E0B301A3D1EE2099F705C080E290E0C9
:104A2000B3019CD18A948820C9F7B6CCF301668182
:104A30007781CB0161960FB6F894DEBF0FBECDBF74
:104A4000CF91DF911F910F91FF90EF90DF90CF906A
:104A5000BF90AF909F908F907F906F905F904F909E
:104A60003F902F900895283008F027E03327DA018F
:104A7000990F311D87FD916000966105710539F42C
:104A800032602E5F3D9330E32A95E1F708959F3F12
:104A900030F080387105610509F03C5F3C5F3D9363
:104AA000913008F08068911DDF93CF931F930F938F
:104AB000FF92EF92192F987F9695E92F96959695EC
:104AC000E90FFF27EA50FE4F99273327EE24FF24F2
:104AD000A701E70105900894079428F4360FE71E14
:104AE000F81E491F511D660F771F881F991F0694D6
:104AF000A1F70590079428F4E70EF81E491F561FEA
:104B0000C11D770F881F991F661F0694A1F7059096
:104B1000079428F4F80E491F561FC71FD11D880F90
:104B2000991F661F771F0694A1F70590079420F43C
:104B3000490F561FC71FD81F990F661F771F881F61
:104B40000694A9F784911095177041F0D695C795F2
:104B500057954795F794E7941A95C1F7ECE9F1E07A
:104B600068941590159135916591959105907FE226
:104B70007395E118F10A430B560BC90BD009C0F726
:104B8000E10CF11E431F561FC91FD01D7EF4703368
:104B900011F48A95E6CFE894015030F0080F0AF43A
:104BA0000027021708F4202F2395022F7A3328F0CC
:104BB00079E37D932A95E9F710C07D932A9589F6CC
:104BC000069497956795379517951794E118F10A0C
:104BD000430B560BC90BD00998F023957E91739522
:104BE0007A3308F070E37C932013B8F77E917061FC
:104BF0007D9330F0839571E37D9370E32A95E1F71F
:104C00001124EF90FF900F911F91CF91DF91992781
:104C100087FD90950895FC0105906150704001104A
:104C2000D8F7809590958E0F9F1F0895FC016150D5
:104C3000704001900110D8F7809590958E0F9F1FBE
:104C400008950F931F93CF93DF938C01EB0100978F
:104C500031F46115710519F420E030E037C081E0CE
:104C600090E06EE070E04AD1FC019C01009771F188
:104C700080E88383209771F0D387C28781E883839C
:104C80008091F0079091F107892B21F4F093F107BF
:104C9000E093F00701151105C9F0118700878381A2
:104CA000826083838091F2079091F307892B71F4DE
:104CB000F093F307E093F2078091F4079091F507E2
:104CC000892B21F4F093F507E093F407C901DF91F4
:104CD000CF911F910F910895CF93DF93EC014B81FA
:104CE00040FF1AC046FF0AC04F7B4B838E819F81D5
:104CF00001969F838E838A81282F2BC042FF13C089
:104D0000E881F9818081282F332727FD30952115EF
:104D1000310529F440624B832FEF3FEF1BC03196E2
:104D2000F983E88311C0EA85FB85CE0119959C01C2
:104D300097FF0AC09B812F5F3F4F11F080E201C0B7
:104D400080E1892B8B83E8CF8E819F8101969F83A1
:104D50008E8330E0C901DF91CF9108950F931F93A7
:104D6000CF93DF938C01EB018B8181FF1BC082FF0E
:104D70000DC02E813F818C819D812817390764F4F5
:104D8000E881F9810193F983E88306C0E885F98514
:104D9000802F1995892B31F48E819F8101969F83F5
:104DA0008E8302C00FEF1FEFC801DF91CF911F91DB
:104DB0000F910895DF93CF93CDB7DEB7FE013696FE
:104DC000619171918091F2079091F307AF01B8DA88
:104DD000CF91DF9108950F931F93CF93DF938C01B1
:104DE000E091F207F091F307838181FF21C0C0E0D9
:104DF000D0E00DC0E091F207F091F30720853185F6
:104E0000BF01F9011995892B11F0CFEFDFEFF80100
:104E100081918F01882371F7E091F207F091F307F8
:104E2000208531858AE0BF01F9011995892B11F0A0
:104E3000CFEFDFEFCE01DF91CF911F910F9108955A
:104E4000FA01AA27283051F1203181F1E8946F93BB
:104E50006E7F6E5F7F4F8F4F9F4FAF4FB1E03ED061
:104E6000B4E03CD0670F781F891F9A1FA11D680FFF
:104E7000791F8A1F911DA11D6A0F711D811D911D32
:104E8000A11D20D009F468943F912AE0269F1124A7
:104E90003019305D3193DEF6CF010895462F47700B
:104EA000405D4193B3E00FD0C9F7F6CF462F4F7066
:104EB000405D4A3318F0495D31FD4052419302D0C4
:104EC000A9F7EACFB4E0A69597958795779567956A
:104ED000BA95C9F700976105710508959B01AC016A
:104EE0000A2E06945795479537952795BA95C9F791
:104EF000620F731F841F951FA01D08950F931F93AA
:104F0000CF93DF93689F8001699F100D789F100DEC
:104F10001124C8010DD0EC01009721F060E070E091
:104F2000A8010BD1CE01DF91CF911F910F91089570
:104F3000CF93DF93BC018230910510F462E070E002
:104F4000A091F807B091F907ED01E0E0F0E040E052
:104F500050E021C0888199818617970769F48A817A
:104F60009B81309719F09383828304C09093F90753
:104F70008093F807FE0134C06817790738F44115AB
:104F8000510519F08417950708F4AC01FE018A81D8
:104F90009B819C01E9012097E9F641155105A9F192
:104FA000CA01861B970B049708F4BA01E0E0F0E011
:104FB0002AC08D919C91119784179507F9F4641775
:104FC000750781F412968D919C911397309719F083
:104FD0009383828304C09093F9078093F807FD01BF
:104FE00032964FC0CA01861B970BFD01E80FF91FCF
:104FF0006193719302978D939C9343C0FD018281CD
:1050000093819C01D9011097A1F68091F6079091A8
:10501000F707892B41F480915F059091600590938B
:10502000F7078093F607409161055091620541159D
:10503000510541F44DB75EB780915D0590915E05D5
:10504000481B590B2091F6073091F70724173507B5
:10505000B0F4CA01821B930B8617970780F0AB014F
:105060004E5F5F4F8417950750F0420F531F5093C8
:10507000F7074093F607F9016193719302C0E0E0EE
:10508000F0E0CF01DF91CF910895CF93DF930097A8
:1050900009F450C0EC0122971B821A82A091F807F4
:1050A000B091F907109709F140E050E0AC17BD0747
:1050B00008F1BB83AA83FE0121913191E20FF31F16
:1050C000AE17BF0779F48D919C911197280F391F66
:1050D0002E5F3F4F3983288312968D919C911397B1
:1050E0009B838A834115510571F4D093F907C093CE
:1050F000F80720C012968D919C911397AD010097EF
:1051000011F0DC01D3CFFA01D383C2832191319115
:10511000E20FF31FCE17DF0769F488819981280F0A
:10512000391F2E5F3F4FFA01318320838A819B8193
:1051300093838283DF91CF910895DC0101C06D9349
:0C51400041505040E0F70895F894FFCF74
:10514C00496E70757420766F6C746167652065723A
:10515C00726F722100416E676C65206C696D6974A9
:10516C00206572726F7221004F766572686561748A
:10517C00206572726F7221004F7574206F662072F9
:10518C00616E6765206572726F722100436865639A
:10519C006B73756D206572726F7221004F7665723C
:1051AC006C6F6164206572726F722100496E73744A
:1051BC0072756374696F6E20636F646520657272BB
:1051CC006F722100434F4D4D5F54584641494C3A44
:1051DC00204661696C6564207472616E736D6974CC
:1051EC0020696E737472756374696F6E207061637D
:1051FC006B65742100434F4D4D5F54584552524FCF
:10520C00523A20496E636F727265637420696E73D3
:10521C007472756374696F6E207061636B65742151
:10522C0000434F4D4D5F52584641494C3A20466120
:10523C00696C656420676574207374617475732080
:10524C007061636B65742066726F6D20646576693E
:10525C0063652100434F4D4D5F52585741495449A6
:10526C004E473A204E6F7720726563696576696E9A
:10527C006720737461747573207061636B6574213E
:10528C0000434F4D4D5F525854494D454F55543A7C
:10529C00205468657265206973206E6F2073746189
:1052AC00747573207061636B65742100434F4D4DB1
:1052BC005F5258434F52525550543A20496E636FC7
:1052CC00727265637420737461747573207061639A
:1052DC006B657421005468697320697320756E6B5B
:1052EC006E6F776E206572726F7220636F646521CA
:1052FC00000A52656164696E67205061636B657466
:10530C002E2E2E000A41626F72742053656E64213A
:10531C00210A005265616420583A20256620746881
:10532C006F750A000A426164204461746121005265
:10533C0065616420593A2025662074686F750A00EF
:10534C0052656164205A3A2025662074686F750A8C
:10535C00000A626164204461746100496E69746979
:10536C00616C697A6174696F6E20636F6D706C65C6
:10537C0074652E000A4572726F7221000A0A4E651E
:10538C007720696E707574207265636569766564E3
:10539C00000A496E20696E636865733A0A583A20B0
:1053AC0025660A593A2025660A5A3A2025660A00CB
:1053BC000A506F696E742069732056616C69642E93
:1053CC00004E6F204B696E656D6174696320536F7D
:1053DC006C7574696F6E2E000A50726F706F736506
:1053EC006420706F736974696F6E3A005820506F47
:1053FC00733A2025663B20205920506F733A2025A4
:10540C00663B20205A20506F733A2025660A0041D3
:10541C006E676C6520313A2025663B2020416E6713
:10542C006C6520323A2025663B2020416E676C6506
:10543C0020333A2025660A004D6F746F7220313A82
:10544C002025663B20204D6F746F7220323A202548
:10545C00663B20204D6F746F7220333A2025660A0C
:10546C0000436F6E6669726D3F2028792F6E29009C
:10547C00506F696E74206973206E6F742056616C66
:10548C0069642E0041626F72742E0A00436F6D6D59
:10549C00616E642073656E74210A0001002000FAAD
:0E54AC0007000001000500000008C107000015
:00000001FF
