S013000044656C74614472697665722E73726563BB
S11300004AC1000069C1000067C1000065C1000069
S113001063C1000061C100005FC100005DC1000058
S11300205BC1000059C1000057C1000055C1000068
S113003053C1000051C100004FC100004DC1000078
S11300404BC1000049C1000047C1000045C1000088
S113005043C1000041C100003FC100003DC1000098
S11300603BC1000005C5000037C1000035C10000D8
S113007033C1000031C100002FC100002DC10000B8
S11300802BC1000029C1000027C1000025C10000C8
S1130090F4C5000021C100001FC100001DC1000003
S11300A01BC1000019C1000017C1000015C10000E8
S11300B013C1000011C100000FC100000DC10000F8
S11300C00BC1000009C1000007C10000072C7AA57C
S11300D0BA6CC590DA3B9365FC8BBC53F810FD3CBD
S11300E05692834DBD879D3AB63DCBC9BF5BBE7367
S11300F0DA0FC93F05A84CCDB2D44EB93836A9029F
S11301000C50B9918688083CA6AAAA2ABE00000011
S1130110803F07634236B79BD8A71A39685618AE92
S1130120BAAB558C1D3CB7CC5763BD6DEDFD753E28
S1130130F6177231BF000000803F08000000BE9235
S11301402449123EABAAAA2ABECDCCCC4C3E000018
S11301500080BEABAAAAAA3E00000000BF000000B7
S1130160803F0000000000084178D3BB4387D113CF
S11301703D190E3CC3BD4282AD2B3E68EC8276BE77
S1130180D98FE1A93E4C80EFFFBE01C4FF7F3F0041
S1130190000000006E616E00696E660000407A1017
S11301A0F35A00A0724E18090010A5D4E80000E824
S11301B07648170000E40B54020000CA9A3B000082
S11301C000E1F505000080969800000040420F0011
S11301D00000A08601000000102700000000E803D2
S11301E0000000006400000000000A00000000009D
S11301F00100000000002C76D888DC674F0823DF5C
S1130200C1DFAE59E1B1B796E5E3E453C63AE6512E
S1130210997696E8E6C28426EB898C9B62ED407C55
S11302206FFCEFBC9C9F40F2BAA56FA5F490055AF1
S11302302AF75C936B6CF9676DC11BFCE0E40D4716
S1130240FEF520E6B500D0ED902E03009435770539
S11302500080841E080000204E0A000000C80C33F1
S11302603333330F986E12831141EF8D2114893B80
S1130270E65516CFFEE6DB18D1844B381BF77C1D00
S1130280901DA4BBE424203284725E228100C9F153
S113029024ECA1E53D2711241FBECFEFD1E2DEBF40
S11302A0CDBF00E00CBF15E0A0E0B2E0E4E3F1E56F
S11302B000E00BBF02C007900D92A439B107D9F733
S11302C018E0A4E9B5E001C01D92A032B107E1F73E
S11302D00E94B91A0C94982893CE8091820590912B
S11302E0830508958093960508958093980508954D
S11302F0FC01EC56FA4F65830895809397050895A1
S113030020E030E090913806982311F021E030E0AD
S1130310C90108958091370690E00895FC01EC5CD2
S1130320F94F858190E00895362F20E0280F391F7A
S1130330C9010895282F30E0C90108958070892FDC
S113034090E008950F931F93CF93DF9380917C06E1
S113035090917D06892B09F4B8C0809196058E3F53
S113036009F4A9C08091820590918305892B29F411
S113037010927B0686E080937A0680917B0690E05B
S113038060917A0670E0681B790B8C5C994F45D3B9
S113039090917B06980F90937B0680917A0698172C
S11303A018F446D2019771F070917B06472F50E004
S11303B0DA0111978A010250104060E0ED01CC5C33
S11303C0D94F18C080917B06882309F071C086E05C
S11303D090E073C0F901EC5CF94F80818F3F19F410
S11303E081818F3F61F02017310719F488818F3F95
S11303F031F06F5F262F30E02A173B075CF366234A
S1130400A1F090E0421B530B08C0EC5CF94FDF01F4
S1130410A20FB31F8C9180839F5FE92FF0E0E41754
S1130420F5079CF3761B70937B0620917B068091E5
S11304307A06281728F19091960580913606981728
S1130440B9F5609137066C5F60937A06261788F4D5
S1130450822F90E070E0681B790B8C5C994FDDD2A1
S113046090917B06980F90937B0680917A0698175B
S113047038F080913706A82FB0E020E090E00CC05F
S113048085E090E090938305809382051EC0EC5C28
S1130490F94F8281980F2F5FE22FF0E0AE17BF076C
S11304A0B4F7AC5CB94F909513968C91891719F0F9
S11304B087E090E002C081E090E090938305809310
S11304C0820510927D0610927C06DF91CF911F91D8
S11304D00F9108951F9380917C0690917D0601975A
S11304E009F45DC081E090E090937D0680937C06E2
S11304F080919705893940F490919805892F81500E
S1130500863028F0933819F084E090E02FC08FEF04
S1130510809394058093950580919705A82FB0E06A
S113052020E090E005C0EC56FA4F8281980F2F5FCF
S1130530E22FF0E0AE17BF07B4F7AC56BA4F909570
S113054013969C9380918205909183050697029758
S113055008F434D1109197051C5F84E995E0612F6C
S113056070E031D1181759F082E090E09093830540
S11305708093820510927D0610927C0610C08091B3
S11305809805823029F480919A0590E0069602C07D
S113059086E090E03CD110928305109282051F9171
S11305A0089598DF8091820590918305892B39F411
S11305B0C9DE80918205909183050597C9F308955A
S11305C0282F80917C0690917D06892B89F42093B5
S11305D0960583E08093980560939905CA0140933A
S11305E09A05807090939B0585E080939705D9CFF9
S11305F0FFCF282F80917C0690917D06892BB1F442
S11306002093960582E080939805609399058093E2
S11306109A0584E080939705C4DF30913A0620E080
S113062080913906280F311DC9010895FFCF282F65
S113063080917C0690917D06892B69F42093960520
S113064083E0809398056093990540939A0584E02C
S113065080939705A6CFFFCF282F80917C06909199
S11306607D06892B91F42093960582E0809398056A
S11306706093990581E080939A0584E080939705BF
S113068090DF8091390690E00895FFCF282F809164
S11306907C0690917D06892B49F42093960581E090
S11306A08093980582E0809397057BCFFFCF85C028
S11306B00F931F938C016F5F7F4F882777FD809581
S11306C0982F0E94601E9B01AC0160E074E284EFED
S11306D099E40E94C51DAB01BC01C80115D0892B4A
S11306E019F420E030E00CC081E090E090938305A1
S11306F08093820510927D0610927C0621E030E002
S1130700C9011F910F910895EF92FF920F931F93C8
S11307107A018B0182E48093C00088E98093C10050
S113072086E08093C20060E074E284EF99E4A8015B
S113073097010E94C51D0E94321E61507040709343
S1130740C5006093C40060E074E284E799E4A80102
S113075097010E94C51D20E030E040E451E40E946E
S11307608D1F60930E0870930F0880931008909368
S1130770110820910E0830910F08409110085091F3
S1130780110860E070E08AE793E40E94C51D0E94AE
S1130790321E70930D0860930C087298739A8FEF51
S11307A08093C60010927E0710927F0781E090E04C
S11307B01F910F91FF90EF900895089580917F0706
S11307C080937E070895AC01F8947398729A20E0A0
S11307D030E011C08091C00085FFFCCF8091C00043
S11307E080648093C000FA01E20FF31F808180933C
S11307F0C6002F5F3F4F2617370764F38091C00070
S113080086FFFCCF7298739A7894C9010895109268
S113081015081092140820910C0830910D08265FD9
S11308203F4F280F391F309313082093120808955F
S1130830AF92BF92CF92DF92EF92FF920F931F93EA
S1130840809114089091150801969093150880934F
S11308501408209114083091150880911208909181
S113086013088217930718F421E030E074C0A090B5
S11308700E08B0900F08C0901008D0901108C6015F
S1130880B5012BEA3AEA4AEA50E40E948D1F7B0143
S11308908C0120E030E040E85FE30E94BE1D882325
S11308A014F461E054C0C801B70120E030E04FE720
S11308B053E40E94891F18160CF045C0C601B50107
S11308C020E030E04AE754E40E94C51D5B016C015E
S11308D020E030E04AE755E40E948D1F7B018C0143
S11308E020E030E040E85FE30E94BE1D88231CF452
S11308F061E070E024C0C801B70120E03FEF4FE79A
S113090057E40E94891F1816B4F4C601B50120E00B
S113091030E040E251E40E948D1F0E94321E80E9C3
S113092091E005C0FC013197F1F761507040611509
S11309307105C1F70EC0C801B7010E94321ECB0178
S11309400197F1F706C0C801B7010E94321E6A95EB
S1130950F1F720E030E0C9011F910F91FF90EF9073
S1130960DF90CF90BF90AF90089590917E078091D3
S11309707F07981719F420E030E017C090917E07A4
S113098080917F07981738F480917F0790917E07B4
S1130990282F30E008C080917F0790917E07282F90
S11309A030E020503F4F291B3109C90108951F939E
S11309B0182FDBDF8F3F910591F0E0917F07F0E086
S11309C0E258F94F108380917F078F3F19F41092FA
S11309D07F0705C080917F078F5F80937F071F91FA
S11309E0089590917E0780917F07981711F4EFEF97
S11309F012C0E0917E07F0E0E258F94FE081809167
S1130A007E078F3F19F410927E0705C080917E0700
S1130A108F5F80937E078E2F0895EF92FF920F933E
S1130A201F93CF93DF937C01EB0190917E0780911C
S1130A307F07981719F400E010E012C096DF8C01CC
S1130A40C817D9070CF48E01C0E0D0E006C0C9DF96
S1130A50F701EC0FFD1F80832196C017D107BCF36B
S1130A60C801DF91CF911F910F91FF90EF900895EE
S1130A701F920F920FB60F920BB60F9211242F9361
S1130A803F934F935F936F937F938F939F93AF9312
S1130A90BF93EF93FF938091C60089DFFF91EF919D
S1130AA0BF91AF919F918F917F916F915F914F9182
S1130AB03F912F910F900BBE0F900FBE0F901F9080
S1130AC01895AC0120E030E00CC08091C80085FF8F
S1130AD0FCCFFA01E20FF31F80818093CE002F5FD9
S1130AE03F4F261737078CF30895DC0190910008D7
S1130AF080910108981711F480E0089590910008FE
S1130B0080910108981719F420E030E017C0909103
S1130B10000880910108981738F480910108909199
S1130B200008282F30E008C0809101089091000847
S1130B30282F30E020583F4F291B3109A9016217A3
S1130B4073070CF4AB0120E030E020C09091000862
S1130B5080910108981711F49FEF12C0E0910008EA
S1130B60F0E0E058F84F9081809100088F3719F435
S1130B701092000805C0809100088F5F80930008E0
S1130B80FD01E20FF31F90832F5F3F4F24173507BA
S1130B90ECF2842F08959091000880910108981731
S1130BA019F420E030E017C090910008809101080A
S1130BB0981738F48091010890910008282F30E0AC
S1130BC008C08091010890910008282F30E0205837
S1130BD03F4F291B3109C9010895482F90910008FE
S1130BE0809101089817D1F0909100088091010834
S1130BF0981738F48091010890910008282F30E06C
S1130C0008C08091010890910008282F30E02058F6
S1130C103F4F291B31092F37310591F0E09101082D
S1130C20F0E0E058F84F4083809101088F3719F4C1
S1130C30109201080895809101088F5F8093010844
S1130C4008959091000880910108981711F4EFEF2E
S1130C5012C0E0910008F0E0E058F84FE081809184
S1130C6000088F3719F41092000805C0809100081D
S1130C708F5F809300088E2F08951F920F920FB6F6
S1130C800F920BB60F9211242F933F934F935F93C0
S1130C906F937F938F939F93AF93BF93EF93FF9340
S1130CA08091CE009ADFFF91EF91BF91AF919F9118
S1130CB08F917F916F915F914F913F912F910F9001
S1130CC00BBE0F900FBE0F901F901895DF93CF931C
S1130CD00F920F92CDB7DEB7982F8A3099F48DE03A
S1130CE089839A83FE0131969E012D5F3F4F809147
S1130CF0C80085FFFCCF81918093CE00E217F307F3
S1130D00B1F706C08091C80085FFFCCF9093CE0058
S1130D1080E090E00F900F90CF91DF910895909133
S1130D200008809101089817D1F3909100088091F0
S1130D300108981738F48091010890910008282F31
S1130D4030E008C08091010890910008282F30E01D
S1130D5020583F4F291B3109232B09F39091000898
S1130D6080910108981711F4EFEF15C0E091000885
S1130D70F0E0E058F84FE081809100088F3719F4D3
S1130D801092000805C0809100088F5F80930008CE
S1130D90ED3009F4EAE08E2F90E008950E94601E81
S1130DA09B01AC0160E074E284EF99E40E94C51DEC
S1130DB00E94321E6150704022E42093C80028E94A
S1130DC02093C90026E02093CA002FEF2093CE0081
S1130DD01092000810920108272F332727FD3A9517
S1130DE02093CD006093CC007298739A86E696E0C7
S1130DF06FE876E00E94152690930308809302081A
S1130E0008956F927F928F929F92AF92BF92CF92EA
S1130E10DF92EF92FF920F931F93CF93DF93EC0136
S1130E20E880F9800A811B81C801B701A8019701F4
S1130E300E948420882309F060C0AC80BD80CE80ED
S1130E40DF80C601B501A60195010E948420882394
S1130E50C9F5C801B7012BED3FE049E450E40E9415
S1130E60891F18161CF0370148010AC0C801B701D0
S1130E702BED3FE049EC50E40E94591D3B014C012D
S1130E80C601B5012BED3FE049E450E40E94891FFF
S1130E9018161CF0A60195010AC0C601B5012BED78
S1130EA03FE049EC50E40E94591D9B01AC01C40190
S1130EB0B3019F775F770E94BE1D18165CF486010C
S1130EC0750108C0C801B701A80197010E948420D8
S1130ED08823F9F46E2D7F2D802F912FDF91CF91F0
S1130EE01F910F91FF90EF90DF90CF90BF90AF9044
S1130EF09F908F907F906F900895EC80FD800E817D
S1130F001F81C801B701A80197010E94842088238A
S1130F1009F30F2EF0E0EF2EF0E0FF2EF0EC0F2F90
S1130F20FFE71F2FF02DD6CFEF92FF920F931F9361
S1130F3020E030E044E353E40E948D1F2BED3FE0BA
S1130F4049E450EC0E94C51D20E030E044E353E442
S1130F500E945A1D7B018C0120E030E040E050E00B
S1130F600E94BE1D882354F4C801B70120E030E07C
S1130F7044EB53E40E945A1D7B018C016E2D7F2D9E
S1130F80802F912F1F910F91FF90EF9008954F9212
S1130F905F926F927F928F929F92AF92BF92CF9205
S1130FA0DF92EF92FF920F931F93CF93DF93282F3B
S1130FB0392F2B01161617060CF048C06901882436
S1130FC08A9499249A940F2EFFE7AF2EF02D0F2EBA
S1130FD0FFE7BF2EF02D66247724C0E0D0E0F601B1
S1130FE0E080F18002811381C801B701282D392DD9
S1130FF04A2D5B2D0E94BE1D882314F43E0106C0B9
S1131000882D992DAA2DBB2D7C018D01219684E07C
S113101090E0C80ED91EC415D5053CF4D801C7010B
S11310208E2C992EAA2EBB2EDACFC801B7012FEF32
S11310303FEF4FE75FE70E94591D9F7720E030E0C4
S113104040E85FE30E94BE1D88231CF466246A9472
S1131050762C862D972DDF91CF911F910F91FF90C4
S1131060EF90DF90CF90BF90AF909F908F907F9044
S11310706F905F904F9008952F923F924F925F929E
S11310806F927F928F929F92AF92BF92CF92DF9294
S1131090EF92FF920F931F93DF93CF9300D00F92A1
S11310A0CDB7DEB7282F392F2B01161617060CF0F3
S11310B06FC069018FEF89838A830F2EFFE72F2E7C
S11310C0F02D0F2EFFE73F2EF02DBB24BA94AA2457
S11310D0AA940F2EFFE79F2EF02D0F2EFFE78F2EE1
S11310E0F02D662477241C821B82F601E080F180B7
S11310F002811381C801B70129813A81422D532D00
S11311000E94BE1D88236CF4D801C701E9829A832A
S11311102A2E3B2E8B2D9A2DA92DB82D7C018D01C5
S113112013C0C801B7012B2D3A2D492D582D0E940B
S1131130BE1D88231CF46B807C8006C08B2D9A2DE9
S1131140A92DB82D7C018D018B819C8101969C83F6
S11311508B83E4E0F0E0CE0EDF1E841595053CF4AD
S1131160D801C701BE2CA92E9A2E8B2EBECFC80142
S1131170B7012FEF3FEF4FE75FE70E94591D9F77BD
S113118020E030E040E85FE30E94BE1D88231CF4A9
S113119066246A94762C862D972D0F900F900F90CD
S11311A00F90CF91DF911F910F91FF90EF90DF90FF
S11311B0CF90BF90AF909F908F907F906F905F90F3
S11311C04F903F902F900895AF92BF92CF92DF92AD
S11311D0EF92FF920F931F93DF93CF93CDB7DEB7B8
S11311E02C970FB6F894DEBF0FBECDBFE982FA820A
S11311F00B831C832D833E834F83588769877A87AB
S11312008B879C87A984BA84CB84DC8429813A8126
S11312104B815C81CA01B9010E948D1FE62EF72E15
S1131220082F192F2D813E814F815885CA01B9019C
S11312300E948D1F262F372F482F592FC801B70121
S11312400E945A1D20E030E040E152E40E94BE1D9D
S11312501816DCF0C601B50120E030E040E551ECA1
S11312600E94891F88238CF010E0C601B50120E09C
S113127030E040E051EC0E94BE1D18160CF411E061
S113128081E08127282F30E002C020E030E0822F67
S1131290932F2C960FB6F894DEBF0FBECDBFCF911F
S11312A0DF911F910F91FF90EF90DF90CF90BF904F
S11312B0AF9008952F923F924F925F926F927F92D8
S11312C08F929F92AF92BF92CF92DF92EF92FF9252
S11312D00F931F93DF93CF93CDB7DEB7C257D040A0
S11312E00FB6F894DEBF0FBECDBFE9A6FAA60BA7D2
S11312F01CA72DA73EA74FA758AB69AB7AAB8BAB06
S11313009CAB89A59AA5ABA5BCA525968CAF9DAF32
S1131310AEAFBFAF25978DA59EA5AFA5B8A9219661
S11313208CAF9DAFAEAFBFAF219789A99AA9ABA9E6
S1131330BCA989AF9AAFABAFBCAF25966CAD7DAD00
S11313408EAD9FAD259720E030E040E450E40E944C
S1131350F01FA2966FAFA297A3967FAFA397A49610
S11313608FAFA497A5969FAFA59721966CAD7DAD41
S11313708EAD9FAD21979B01AC010E948D1FA69657
S11313806FAFA697A7967FAFA797A8968FAFA8979A
S1131390A9969FAFA99721966CAD7DAD8EAD9FADFB
S11313A0219720E030E040E450E40E94F01FAA9628
S11313B06FAFAA97AB967FAFAB97AC968FAFAC9756
S11313C0AD969FAFAD9725966CAD7DAD8EAD9FADBF
S11313D025979B01AC010E948D1FAE966FAFAE970F
S11313E0AF967FAFAF97E0968FAFE097E1969FAF50
S11313F0E19769AD7AAD8BAD9CAD9B01AC010E94C8
S11314008D1F262E372E482E592E29962CAE3DAEF2
S11314104EAE5FAE299721966CAD7DAD8EAD9FAD7E
S1131420219720E030E040E451E40E948D1F2D9686
S11314306CAF7DAF8EAF9FAF2D97A5966CAD7DAD94
S11314408EAD9FADA59726E534E549E354E40E94AB
S1131450591D7B018C0121966CAD7DAD8EAD9FAD88
S113146021972DE932EC4FE053EC0E948D1F9B0134
S1131470AC01C801B7010E945A1D7B018C01A996D9
S11314806CAD7DAD8EAD9FADA99726E630E94AE8F7
S113149051E40E948D1F9B01AC01C801B7010E9459
S11314A05A1D7B018C01AD966CAD7DAD8EAD9FADAB
S11314B0AD9727ED33EB4DED5FE30E948D1F9B014C
S11314C0AC01C801B7010E945A1D5B016C01E19691
S11314D06CAD7DAD8EAD9FADE19727ED33EB4DED5A
S11314E05FE30E948D1F7B018C0121966CAD7DAD65
S11314F08EAD9FAD219720E030E040EC50E40E9497
S11315005A1D9B01AC01C801B7010E948D1F9B01AC
S1131510AC01C601B5010E945A1D7B018C01C201B8
S1131520B10127ED33EB4DED50E40E948D1F9B017B
S1131530AC01C801B7010E945A1D7B018C012196A0
S11315406CAD7DAD8EAD9FAD219727ED33EB4DEDA9
S11315505FE30E948D1F9B01AC01C201B1010E9497
S11315608D1F9B01AC01C801B7010E945A1D7B016C
S11315708C012D966CAD7DAD8EAD9FAD2D9720E089
S113158030E046EA52E40E94591D9B01AC01A99641
S11315906CAD7DAD8EAD9FADA9970E945A1D9B0188
S11315A0AC01C201B1010E945A1D9B01AC012596F8
S11315B06CAD7DAD8EAD9FAD25970E948D1F9B01B7
S11315C0AC01C801B7010E945A1D61966CAF7DAF92
S11315D08EAF9FAF619725966CAD7DAD8EAD9FADFF
S11315E0259720E030E040E850E40E94F01FE62E0A
S11315F0F72E082F192F21966CAD7DAD8EAD9FADC2
S1131600219720E030E040E850E40E94F01FA62E2D
S1131610B72EC82ED92E69AD7AAD8BAD9CAD20E026
S113162030E040E850E40E94F01F662E772E882EAA
S1131630992EC201B101A20191010E945A1D659621
S11316406CAF7DAF8EAF9FAF659725966CAD7DADCA
S11316508EAD9FAD259727ED33EB4DE550E40E9409
S11316608D1F69966CAF7DAF8EAF9FAF6997A996BA
S11316706CAD7DAD8EAD9FADA9979B01AC010E9471
S11316805A1D6D966CAF7DAF8EAF9FAF6D97D20133
S1131690C101B058A1968CAF9DAFAEAFBFAFA197BB
S11316A0A5966CAD7DAD8EAD9FADA59727ED33EBC3
S11316B04DED50E40E948D1F20E034E240E256E4F8
S11316C00E945A1DA80197010E945A1D7B018C019A
S11316D0AD966CAD7DAD8EAD9FADAD9720E030E0A5
S11316E040E451E40E948D1F9B01AC01C801B70185
S11316F00E945A1DA60195010E945A1D7B018C016E
S1131700C201B10120E030E04DE953EC0E948D1F8D
S11317109B01AC01C801B7010E945A1DA4019301A9
S11317200E945A1D7B018C01C201B10120E030E00E
S11317304DE153E40E94591D9B01AC012D966CAD03
S11317407DAD8EAD9FAD2D970E948D1F9B01AC0189
S1131750C801B7010E945A1D7B018C0165966CADCE
S11317607DAD8EAD9FAD659720E030E04DE753E44D
S11317700E94591D9B01AC01A9966CAD7DAD8EAD47
S11317809FADA9970E948D1F9B01AC01C801B701B1
S11317900E945A1D7B018C0121966CAD7DAD8EADEE
S11317A09FAD219720E030E040E551EC0E948D1F71
S11317B020E030E04DE953E40E94591D6D962CADB4
S11317C03DAD4EAD5FAD6D970E945A1D9B01AC01BE
S11317D065966CAD7DAD8EAD9FAD65970E945A1D2B
S11317E09B01AC0169966CAD7DAD8EAD9FAD6997E3
S11317F00E948D1F9B01AC01C801B7010E945A1DB4
S11318007B018C012D966CAD7DAD8EAD9FAD2D977A
S113181020E030E043E653E40E94591D9B01AC01F3
S11318206D966CAD7DAD8EAD9FAD6D970E945A1DCA
S11318309B01AC0165966CAD7DAD8EAD9FAD65979A
S11318400E945A1D9B01AC01E1966CAD7DAD8EAD3D
S11318509FADE1970E948D1F9B01AC01C801B701A8
S11318600E945A1D9B01AC01A1966CAD7DAD8EAD5D
S11318709FADA1970E948D1F0E9446205B016C01C1
S1131880E1966CAD7DAD8EAD9FADE19720E030E08B
S113189040E452E40E945A1D7B018C0121966CADF8
S11318A07DAD8EAD9FAD219720E030E040EC51E45A
S11318B00E948D1F9B01AC01C801B7010E945A1DF3
S11318C07B018C01A9966CAD7DAD8EAD9FADA997C2
S11318D020E030E040E450E40E948D1F9B01AC0105
S11318E0C801B7010E945A1D7B018C0121966CAD81
S11318F07DAD8EAD9FAD219720E030E040E850E40F
S11319000E945A1D9B01AC0169966CAD7DAD8EADF4
S11319109FAD69970E948D1F9B01AC01C801B7015F
S11319200E945A1D7B018C01C201B10120E030E00C
S113193040E850E40E948D1F9B01AC01C801B7012F
S11319400E945A1D20E030E040EA50EC0E948D1FB6
S11319507B018C01C601B501A60195010E945A1DA7
S11319609B01AC0161966CAD7DAD8EAD9FAD619771
S11319700E945A1DA80197010E94C51D1B012C013C
S1131980C601B50120E030E040E050EC0E948D1F1C
S11319909B01AC0161966CAD7DAD8EAD9FAD619741
S11319A00E945A1DA80197010E94C51D7B018C014C
S11319B0C201B1019F7720E030E040E85FE30E947C
S11319C0891F18160CF04DC0C201B10120E030E0AF
S11319D040E85FE30E94591D9F7727E137EB41ED13
S11319E058E30E94BE1D88236CF480E090E0A0E0E0
S11319F0B0E089839A83AB83BC838D839E83AF835A
S1131A00B8873CC0C201B10120E030E040E85FE3A8
S1131A100E945A1D9F7727E137EB41ED58E30E945E
S1131A20BE1D88238CF48BED9FE0A9E4B0E4898388
S1131A309A83AB83BC838BED9FE0A9E4B0EC8D83E8
S1131A409E83AF83B8871AC080E090E0A0ECBFE724
S1131A5089839A83AB83BC838D839E83AF83B8874A
S1131A600DC0C201B1010E944B1D69837A838B832F
S1131A709C8390586D837E838F839887C801B701B8
S1131A809F7720E030E040E85FE30E94891F18164A
S1131A900CF059C0C801B70120E030E040E85FE332
S1131AA00E94591D9F7727E137EB41ED58E30E94CF
S1131AB0BE1D8823CCF480E090E0A0E0B0E08987EC
S1131AC09A87AB87BC878D879E87AF87B88BDE01EB
S1131AD01196B8AFAFABFE017196FEABEDABE396DA
S1131AE0FFAFEEAFE3973DC0C801B70120E030E09F
S1131AF040E85FE30E945A1D9F7727E137EB41EDF1
S1131B0058E30E94BE1D88238CF48BED9FE0A9E46A
S1131B10B0E489879A87AB87BC878BED9FE0A9E403
S1131B20B0EC8D879E87AF87B88BD1CF80E090E0F3
S1131B30A0ECBFE789879A87AB87BC878D879E8790
S1131B40AF87B88BC4CFC801B7010E944B1D69870A
S1131B507A878B879C8790586D877E878F87988B31
S1131B60B6CFAFA9B8AD2D903D904D905C90C20119
S1131B70B101A20191010E948420882359F08FEFC2
S1131B809FEFAFE7BFE7EDA9FEA980839183A2830E
S1131B90B38386C0C201B1010E94C21D5B016C0106
S1131BA025966CAD7DAD8EAD9FAD259728ED33EBBD
S1131BB04DED5FE30E945A1D7B018C01C601B50106
S1131BC020E030E040EA50E40E948D1F20E030E045
S1131BD040E05FE30E948D1F9B01AC01C801B70187
S1131BE00E945A1D9B01AC010E948D1F662E772E08
S1131BF0882E992EC601B50126E630E94AE051E463
S1131C000E948D1F20E030E040EC50E40E945A1DF9
S1131C1020E030E040E05FE30E948D1F21962CAD70
S1131C203DAD4EAD5FAD21970E945A1D9B01AC01A5
S1131C300E948D1FA62EB72EC82ED92EC201B10127
S1131C400E943C2020E030E040EA50EC0E948D1FCE
S1131C509B01AC0169AD7AAD8BAD9CAD0E945A1D60
S1131C609B01AC010E948D1FE62EF72E082F192F21
S1131C70C401B301A60195010E945A1DA801970150
S1131C800E945A1D20E030E040E153E40E94591DB7
S1131C909F77ADA9BEA96D937D938D939C93139764
S1131CA0EFA9F8AD3496F8AFEFAB2DA93EA92C5FA0
S1131CB03F4F3EAB2DABE3968EAD9FADE397E81758
S1131CC0F90709F04ECF8E010F5E1F4FC80164E083
S1131CD070E05DD97C01C80164E070E0CDD9BC013D
S1131CE09FEFE9169FEFF90629F420E030E040EC7D
S1131CF05FE70CC0C701880F991F880F991FFE0169
S1131D00E80FF91F2181328143815481AFEF6F3F86
S1131D107A0729F480E090E0A0ECBFE70CC0CB0187
S1131D20880F991F880F991FFE01E80FF91F818101
S1131D309281A381B48129A33AA34BA35CA38DA36D
S1131D409EA3AFA3B8A7CE0181965BD8EDD8CE5899
S1131D50DF4F0FB6F894DEBF0FBECDBFCF91DF913A
S1131D601F910F91FF90EF90DF90CF90BF90AF90B5
S1131D709F908F907F906F905F904F903F902F90A7
S1131D8008952F923F924F925F926F927F928F921B
S1131D909F92AF92BF92CF92DF92EF92FF920F93F6
S1131DA01F93DF93CF93CDB7DEB7CE56D0400FB697
S1131DB0F894DEBF0FBECDBFE9A6FAA60BA71CA7F9
S1131DC02DA73EA74FA758AB69AB7AAB8BAB9CABA7
S1131DD089A59AA5ABA5BCA525968CAF9DAFAEAF42
S1131DE0BFAF25978DA59EA5AFA5B8A921968CAFA9
S1131DF09DAFAEAFBFAF219789A99AA9ABA9BCA9E2
S1131E0089AF9AAFABAFBCAF25966CAD7DAD8EAD4F
S1131E109FAD259720E030E040E450E40E94F01F9D
S1131E206E966FAF6E976F967FAF6F97A0968FAFDA
S1131E30A097A1969FAFA19725966CAD7DAD8EAD71
S1131E409FAD25979B01AC010E948D1FA2966FAF99
S1131E50A297A3967FAFA397A4968FAFA497A596B6
S1131E609FAFA59721966CAD7DAD8EAD9FAD2197AB
S1131E709B01AC010E948D1FA6966FAFA697A796F3
S1131E807FAFA797A8968FAFA897A9969FAFA9975A
S1131E9021966CAD7DAD8EAD9FAD219720E030E0F5
S1131EA040E450E40E94F01FAA966FAFAA97AB9645
S1131EB07FAFAB97AC968FAFAC97AD969FAFAD9716
S1131EC069AD7AAD8BAD9CAD9B01AC010E948D1FB9
S1131ED0262E372E482E592E29962CAE3DAE4EAEC8
S1131EE05FAE299721966CAD7DAD8EAD9FAD2197E8
S1131EF020E030E040E451EC0E948D1F2D966CAF41
S1131F007DAF8EAF9FAF2D97A1966CAD7DAD8EAD9D
S1131F109FADA19726E534E549E354E40E94591D99
S1131F205B016C01A5966CAD7DAD8EAD9FADA597A3
S1131F3027ED33EB4DED5FEB0E948D1F7B018C0190
S1131F4021966CAD7DAD8EAD9FAD219720E030E044
S1131F5040EC50E40E94591D9B01AC01C801B7013B
S1131F600E948D1F9B01AC01C601B5010E945A1D40
S1131F707B018C0121966CAD7DAD8EAD9FAD21971B
S1131F802DE932EC4FE053E40E948D1F9B01AC011C
S1131F90C801B7010E945A1D7B018C01A9966CAD42
S1131FA07DAD8EAD9FADA99726E630E94AE851E4B0
S1131FB00E948D1F9B01AC01C801B7010E945A1DEC
S1131FC07B018C01AD966CAD7DAD8EAD9FADAD97B3
S1131FD027ED33EB4DED5FEB0E948D1F9B01AC01B0
S1131FE0C801B7010E945A1D7B018C01C201B101D5
S1131FF027ED33EB4DED50E40E948D1F9B01AC01A6
S1132000C801B7010E945A1D7B018C0121966CAD59
S11320107DAD8EAD9FAD219727ED33EB4DED5FEB9D
S11320200E948D1F9B01AC01C201B1010E948D1F52
S11320309B01AC01C801B7010E945A1D7B018C01B0
S11320402D966CAD7DAD8EAD9FAD2D9720E030E02B
S113205046EA52E40E94591D9B01AC01A9966CAD5D
S11320607DAD8EAD9FADA9970E945A1D9B01AC0119
S1132070C201B1010E945A1D9B01AC0125966CADB1
S11320807DAD8EAD9FAD25970E948D1F9B01AC0148
S1132090C801B7010E945A1D61966CAF7DAF8EAF27
S11320A09FAF619725966CAD7DAD8EAD9FAD2597A5
S11320B020E030E040E850E40E94F01FE62EF72EC6
S11320C0082F192F21966CAD7DAD8EAD9FAD219754
S11320D020E030E040E850E40E94F01FA62EB72E26
S11320E0C82ED92E69AD7AAD8BAD9CAD20E030E021
S11320F040E850E40E94F01F662E772E882E992E19
S1132100C201B101A20191010E945A1D65966CAFF2
S11321107DAF8EAF9FAF6597A9966CAD7DAD8EAD4B
S11321209FADA9979B01AC010E945A1D69966CAFA3
S11321307DAF8EAF9FAF6997D201C101B0586D9644
S11321408CAF9DAFAEAFBFAF6D97A1966CAD7DADBB
S11321508EAD9FADA19727ED33EB4DED50E40E947A
S11321608D1F20E034E240E256E40E945A1DA8018B
S113217097010E945A1D7B018C01AD966CAD7DAD1B
S11321808EAD9FADAD9720E030E040E451EC0E946D
S11321908D1F9B01AC01C801B7010E945A1DA60105
S11321A095010E945A1D7B018C01C201B10120E0FE
S11321B030E04DE953EC0E948D1F9B01AC01C80136
S11321C0B7010E945A1DA40193010E945A1D7B016C
S11321D08C01C201B10120E030E04DE153E40E94E2
S11321E0591D9B01AC012D966CAD7DAD8EAD9FAD9F
S11321F02D970E948D1F9B01AC01C801B7010E945D
S11322005A1D7B018C0165966CAD7DAD8EAD9FAD85
S1132210659720E030E04DE753E40E94591D9B018F
S1132220AC01A9966CAD7DAD8EAD9FADA9970E9412
S11322308D1F9B01AC01C801B7010E945A1D7B018F
S11322408C012D966CAD7DAD8EAD9FAD2D9720E0AC
S113225030E043E653E40E94591D69962CAD3DAD30
S11322604EAD5FAD69970E945A1D9B01AC01659606
S11322706CAD7DAD8EAD9FAD65970E945A1D9B01DF
S1132280AC01A5966CAD7DAD8EAD9FADA5970E94BA
S11322908D1F9B01AC01C801B7010E945A1D5B014F
S11322A06C0125966CAD7DAD8EAD9FAD259727ED68
S11322B033EB4DE550E40E948D1F7B018C01219688
S11322C06CAD7DAD8EAD9FAD219720E030E040E553
S11322D051E40E948D1F20E030E04DE953E40E9458
S11322E0591D9B01AC0169966CAD7DAD8EAD9FAD62
S11322F069970E945A1D9B01AC0165966CAD7DAD3A
S11323008EAD9FAD65970E945A1D9B01AC01C8011B
S1132310B7010E948D1F9B01AC01C601B5010E944B
S11323205A1D9B01AC016D966CAD7DAD8EAD9FAD1C
S11323306D970E948D1F0E9446203B014C01A5967B
S11323406CAD7DAD8EAD9FADA59720E030E040E44F
S113235052E40E945A1D5B016C0125966CAD7DAD63
S11323608EAD9FAD259727ED33EB4DE550EC0E94E4
S11323708D1F7B018C0121966CAD7DAD8EAD9FAD23
S1132380219720E030E040E850E40E94591D9B0171
S1132390AC01C801B7010E948D1F9B01AC01C601AD
S11323A0B5010E945A1D7B018C0121966CAD7DAD57
S11323B08EAD9FAD219720E030E040EC51EC0E94BF
S11323C08D1F9B01AC01C801B7010E945A1D7B01FE
S11323D08C01A9966CAD7DAD8EAD9FADA99720E023
S11323E030E040E450E40E948D1F9B01AC01C80121
S11323F0B7010E945A1D7B018C01C201B10120E08A
S113240030E040E850E40E948D1F9B01AC01C801FC
S1132410B7010E945A1D20E030E040EA50EC0E94CF
S11324208D1F7B018C01C401B301A40193010E949F
S11324305A1D9B01AC0161966CAD7DAD8EAD9FAD17
S113244061970E945A1DA80197010E94C51D1B0196
S11324502C01C401B30120E030E040E050EC0E94C4
S11324608D1F9B01AC0161966CAD7DAD8EAD9FADB2
S113247061970E945A1DA80197010E94C51D7B0106
S11324808C01C201B1019F7720E030E040E85FE3B6
S11324900E94891F18160CF04DC0C201B10120E042
S11324A030E040E85FE30E94591D9F7727E137EB56
S11324B041ED58E30E94BE1D88236CF480E090E057
S11324C0A0E0B0E089839A83AB83BC838D839E8331
S11324D0AF83B8873CC0C201B10120E030E040E8DE
S11324E05FE30E945A1D9F7727E137EB41ED58E3E4
S11324F00E94BE1D88238CF48BED9FE0A9E4B0E418
S113250089839A83AB83BC838BED9FE0A9E4B0EC11
S11325108D839E83AF83B8871AC080E090E0A0ECDF
S1132520BFE789839A83AB83BC838D839E83AF8308
S1132530B8870DC0C201B1010E944B1D69837A8323
S11325408B839C8390586D837E838F839887C80187
S1132550B7019F7720E030E040E85FE30E94891FE5
S113256018160CF059C0C801B70120E030E040E86B
S11325705FE30E94591D9F7727E137EB41ED58E354
S11325800E94BE1D8823CCF480E090E0A0E0B0E07F
S113259089879A87AB87BC878D879E87AF87B88BDF
S11325A0DE011196B8AFAFABFE017196FEABEDAB99
S11325B0AF96FFAFEEAFAF973DC0C801B70120E0C3
S11325C030E040E85FE30E945A1D9F7727E137EB34
S11325D041ED58E30E94BE1D88238CF48BED9FE0EF
S11325E0A9E4B0E489879A87AB87BC878BED9FE029
S11325F0A9E4B0EC8D879E87AF87B88BD1CF80E0FC
S113260090E0A0ECBFE789879A87AB87BC878D876A
S11326109E87AF87B88BC4CFC801B7010E944B1DFA
S113262069877A878B879C8790586D877E878F8789
S1132630988BB6CFAFA9B8AD2D903D904D905C90DE
S1132640C201B101A20191010E948420882359F0A2
S11326508FEF9FEFAFE7BFE7EDA9FEA980839183DA
S1132660A283B38386C0C201B1010E94C21D5B0173
S11326706C0125966CAD7DAD8EAD9FAD259728ED93
S113268033EB4DED5FE30E945A1D7B018C01C601C3
S1132690B50120E030E040EA50E40E948D1F20E0C4
S11326A030E040E05FE30E948D1F9B01AC01C80154
S11326B0B7010E945A1D9B01AC010E948D1F662E1A
S11326C0772E882E992EC601B50126E630E94AE018
S11326D051EC0E948D1F20E030E040EC50E40E9459
S11326E0591D20E030E040E05FE30E948D1F2196F9
S11326F02CAD3DAD4EAD5FAD21970E945A1D9B019F
S1132700AC010E948D1FA62EB72EC82ED92EC20151
S1132710B1010E943C2020E030E040EA50EC0E94ED
S11327208D1F9B01AC0169AD7AAD8BAD9CAD0E9450
S11327305A1D9B01AC010E948D1FE62EF72E082F17
S1132740192FC401B301A60195010E945A1DA801C5
S113275097010E945A1D20E030E040E153E40E94BA
S1132760591D9F77ADA9BEA96D937D938D939C93BD
S11327701397EFA9F8AD3496F8AFEFAB2DA93EA9A6
S11327802C5F3F4F3EAB2DABAF968EAD9FADAF9759
S1132790E817F90709F04ECF8E010F5E1F4FC801ED
S11327A064E070E00E94C7077C01C80164E070E047
S11327B00E943C08BC019FEFE9169FEFF90629F43B
S11327C020E030E040EC5FE70CC0C701880F991FA0
S11327D0880F991FFE01E80FF91F2181328143817F
S11327E05481AFEF6F3F7A0729F480E090E0A0ECCA
S11327F0BFE70CC0CB01880F991F880F991FFE01FA
S1132800E80FF91F81819281A381B48129A33AA39E
S11328104BA35CA38DA39EA3AFA3B8A7CE018196BF
S11328200E9401070E949407C259DF4F0FB6F89423
S1132830DEBF0FBECDBFCF91DF911F910F91FF90EF
S1132840EF90DF90CF90BF90AF909F908F907F904C
S11328506F905F904F903F902F9008952F923F92EA
S11328604F925F926F927F928F929F92AF92BF929C
S1132870CF92DF92EF92FF920F931F93DF93CF9348
S1132880CDB7DEB7CA55D0400FB6F894DEBF0FBE41
S1132890CDBFE9A6FAA60BA71CA72DA73EA74FA755
S11328A058AB69AB7AAB8BAB9CAB89A59AA5ABA5AE
S11328B0BCA589AF9AAFABAFBCAFADA4BEA4CFA447
S11328C0D8A889A99AA9ABA9BCA98DAB9EABAFAB7B
S11328D0B8AF69AD7AAD8BAD9CAD9B01AC010E94E4
S11328E08D1F2E966FAF2E972F967FAF2F976096E2
S11328F08FAF609761969FAF619769AD7AAD8BADED
S11329009CAD20E030E040E450E40E94F01F629669
S11329106FAF629763967FAF639764968FAF649748
S113292065969FAF6597C601B501A60195010E9402
S11329308D1F262E372E482E592E25962CAE3DAEB1
S11329404EAE5FAE25976DA97EA98FA998AD9B0168
S1132950AC010E948D1F66966FAF669767967FAF36
S1132960679768968FAF689769969FAF69976996DE
S11329708CAD9DADAEADBFAD699721968CAF9DAFCB
S1132980AEAFBFAF219761966CAD7DAD8EAD9FADFF
S1132990619721EE36E446E251E40E948D1F26E55C
S11329A034E549EB53E40E94591D65962CAD3DADC9
S11329B04EAD5FAD65970E94591D7B018C01C2012C
S11329C0B10127ED33EB4DE550E40E948D1F9B01CF
S11329D0AC01C801B7010E945A1D7B018C016996A4
S11329E06CAD7DAD8EAD9FAD699727ED33EB4DE5B5
S11329F050E40E948D1F9B01AC01C801B7010E94E5
S1132A005A1D7B018C01C201B10120E030E046EA8D
S1132A1052E40E94591D9B01AC0169966CAD7DADD9
S1132A208EAD9FAD69970E945A1D9B01AC0169ADA3
S1132A307AAD8BAD9CAD0E948D1F9B01AC01C8018A
S1132A40B7010E94591D29966CAF7DAF8EAF9FAF21
S1132A50299769AD7AAD8BAD9CAD20E030E040E8BC
S1132A6050E40E94F01F662E772E882E992EC60100
S1132A70B50120E030E040E850E40E94F01FE62E6B
S1132A80F72E082F192F6DA97EA98FA998AD20E0E4
S1132A9030E040E850E40E94F01FA62EB72EC82E66
S1132AA0D92E21968CAD9DADAEADBFAD2197B0585A
S1132AB02D968CAF9DAFAEAFBFAF2D9765966CAD25
S1132AC07DAD8EAD9FAD659727ED33EB4DE551ECB4
S1132AD00E948D1F20E034E240E256E4EBD7A401CB
S1132AE09301E8D7A8019701E5D77B018C0169968A
S1132AF06CAD7DAD8EAD9FAD699720E030E04DE9C2
S1132B0053EC0E948D1F9B01AC01C801B701D2D7C1
S1132B10A6019501CFD75B016C01C201B101A201ED
S1132B209101C8D77B018C0169966CAD7DAD8EADEA
S1132B309FAD699720E030E046ED52E4BAD79B019F
S1132B40AC01C801B7010E948D1F9B01AC01C601F5
S1132B50B501B0D75B016C0169AD7AAD8BAD9CADAD
S1132B6027ED33EB4DE551EC0E948D1F7B018C0169
S1132B70C201B10120E030E04DE153E49AD79B015A
S1132B80AC0169966CAD7DAD8EAD9FAD699792D762
S1132B909B01AC01C801B7010E948D1F9B01AC01D0
S1132BA0C601B50187D75B016C0161966CAD7DAD43
S1132BB08EAD9FAD61979B01AC017CD77B018C01ED
S1132BC0C201B10120E030E045E053E472D79B013B
S1132BD0AC0169966CAD7DAD8EAD9FAD69976AD73A
S1132BE09B01AC01C801B7010E948D1F9B01AC0180
S1132BF0C601B5015FD79B01AC012D966CAD7DADCF
S1132C008EAD9FAD2D970E948D1F0E9446205B01C3
S1132C106C0169AD7AAD8BAD9CAD27ED33EB4DED19
S1132C2050EC0E948D1F20E030E040E451E442D794
S1132C309B01AC0161966CAD7DAD8EAD9FAD61978E
S1132C4039D79B01AC0169966CAD7DAD8EAD9FAD5E
S1132C50699730D720E030E040E251EC0E948D1FAC
S1132C607B018C0129966CAD7DAD8EAD9FAD29970E
S1132C70A60195011FD7A801970187D73B014C01F5
S1132C8029966CAD7DAD8EAD9FAD2997A6019501BA
S1132C9010D7A801970179D77B018C01C401B30136
S1132CA09F7720E030E040E85FE30E94891F181618
S1132CB00CF049C0C401B30120E030E040E85FE318
S1132CC0F8D69F7727E137EB41ED58E357D78823B0
S1132CD06CF480E090E0A0E0B0E089839A83AB8359
S1132CE0BC838D839E83AF83B88739C0C401B3018D
S1132CF020E030E040E85FE3DDD69F7727E137EB63
S1132D0041ED58E33BD788238CF48BED9FE0A9E495
S1132D10B0E489839A83AB83BC838BED9FE0A9E401
S1132D20B0EC8D839E83AF83B88719C080E090E0B8
S1132D30A0ECBFE789839A83AB83BC838D839E8396
S1132D40AF83B8870CC0C401B301A5D669837A8365
S1132D508B839C8390586D837E838F839887C8016F
S1132D60B7019F7720E030E040E85FE30E94891FCD
S1132D7018160CF058C0C801B70120E030E040E854
S1132D805FE397D69F7727E137EB41ED58E3F6D61B
S1132D908823E4F480E090E0A0E0B0E089879A879B
S1132DA0AB87BC878D879E87AF87B88B2E0108942D
S1132DB0411C511C0F2EF1E12F2E3324F02D2C0E2B
S1132DC03D1E6B963FAE2EAE6B973AC0C801B7015D
S1132DD020E030E040E85FE36DD69F7727E137EBF2
S1132DE041ED58E3CBD688238CF48BED9FE0A9E426
S1132DF0B0E489879A87AB87BC878BED9FE0A9E411
S1132E00B0EC8D879E87AF87B88BD0CF80E090E001
S1132E10A0ECBFE789879A87AB87BC878D879E879D
S1132E20AF87B88BC3CFC801B70135D669877A8716
S1132E308B879C8790586D877E878F87988BB6CFBA
S1132E40F2016080718082809380C401B301A40187
S1132E5093010E948420882351F08FEF9FEFAFE706
S1132E60BFE7F10180839183A283B38356C0C40179
S1132E70B30188D67B018C0169AD7AAD8BAD9CAD75
S1132E8028ED33EB4DE550E414D65B016C01C80129
S1132E90B70120E030E040EA50EC0E948D1F9B0116
S1132EA0AC01C601B50106D69B01AC010E948D1F81
S1132EB0A62EB72EC82ED92EC401B3010E943C20E1
S1132EC020E030E040EA50EC0E948D1F9B01AC01F1
S1132ED06DA97EA98FA998ADEDD59B01AC010E9487
S1132EE08D1FE62EF72E082F192F25966CAD7DAD7C
S1132EF08EAD9FAD2597A6019501DCD5A80197015C
S1132F00D9D520E030E040E153E4D3D59F77D10117
S1132F106D937D938D939C931397E4E0F0E04E0EB4
S1132F205F1E2E0E3F1E6B968EAD9FAD6B9748169F
S1132F30590609F085CF8E010F5E1F4FC80164E06A
S1132F4070E00E94C7077C01C80164E070E00E9441
S1132F503C08BC019FEFE9169FEFF90629F420E035
S1132F6030E040EC5FE70CC0C701880F991F880F61
S1132F70991FFE01E80FF91F218132814381548199
S1132F80AFEF6F3F7A0729F480E090E0A0ECBFE751
S1132F900CC0CB01880F991F880F991FFE01E80F01
S1132FA0F91F81819281A381B48129A33AA34BA300
S1132FB05CA38DA39EA3AFA3B8A7CE0181960E9464
S1132FC001070E949407C65ADF4F0FB6F894DEBF7C
S1132FD00FBECDBFCF91DF911F910F91FF90EF9066
S1132FE0DF90CF90BF90AF909F908F907F906F9025
S1132FF05F904F903F902F9008956F927F928F92A1
S11330009F92AF92BF92CF92DF92EF92FF920F9373
S11330101F93DF93CF93CDB7DEB72C970FB6F894F9
S1133020DEBF0FBECDBF3C018C2CC9829D2CDA8241
S1133030AE2CEB82BF2CFC82C02E0D83D12E1E83BE
S1133040B22F2F83A32F3887F42F4987E52F5A8770
S1133050862F6B87972F7C87E82CF92C0A2D1B2D44
S11330602C2D3D2D4B2F5A2F6F2F7E2FF7DBF30185
S113307061937193819391936F01E980FA800B813D
S11330801C812D813E814F81588569857A858B8588
S11330909C850E94C10EF6016083718382839383B1
S11330A0AA24BB246894A3F8A60CB71CE980FA8070
S11330B00B811C812D813E814F81588569857A85DC
S11330C08B859C850E945A097B018C01F5016083E4
S11330D0718382839383F3012081318142815381FF
S11330E0CA01B9010E948420882391F4F601208149
S11330F0318142815381CA01B9010E94842088230D
S113310039F4C801B701A8019701FED7882399F0C3
S113311080E090E0A0ECBFE7F30180839183A28379
S1133120B383F60180839183A283B383F501808303
S11331309183A283B3832C960FB6F894DEBF0FBE9F
S1133140CDBFCF91DF911F910F91FF90EF90DF9052
S1133150CF90BF90AF909F908F907F906F90089585
S1133160EF92FF920F931F93682F80918A0590919D
S11331708B058230910509F467C08330910524F4EE
S1133180019709F0EFC108C08330910509F4DFC04D
S1133190049709F0E7C15EC1643269F582E090E00A
S11331A090938B0580938A0580E090E0A0E0B0E0E6
S11331B08093040890930508A0930608B093070829
S11331C08093080890930908A0930A08B0930B0809
S11331D080938E0590938F05A0939005B0939105ED
S11331E087E090E0909393058093920581EB93E0C0
S11331F00E94DF26B7C1693769F480918C059091EC
S11332008D050997D1F48AE090E090938D05809321
S11332108C05A8C16E3689F480918C0590918D053A
S1133220069759F484EC93E00E94DF2685E090E051
S113323090938D0580938C0595C185E090E09093E3
S11332408D0580938C058EC1862F80538A3028F596
S113325070E060537040882777FD8095982F30D5B3
S11332607B018C0160910408709105088091060827
S11332709091070820E030E040E251E44ED69B01F3
S1133280AC01C801B70116D4609304087093050813
S1133290809306089093070865C16C3209F043C017
S11332A083E090E090938B0580938A05809192054A
S11332B090919305089789F48091040890910508EA
S11332C0A0910608B0910708B05880930408909321
S11332D00508A0930608B093070887E090E0909350
S11332E093058093920500D000D0EDB7FEB73196D8
S11332F083ED93E091838083809104089091050885
S1133300A0910608B091070882839383A483B583B0
S11333100E94CE268DB79EB706960FB6F8949EBF30
S11333200FBE8DBF1FC16D3239F488E090E09093D9
S113333093058093920516C184EE93E00E94DF26E4
S113334081E090E090938B0580938A050BC1862FD2
S113335080538A3028F570E060537040882777FDE9
S11333608095982FADD47B018C01609108087091F1
S1133370090880910A0890910B0820E030E040E2AF
S113338051E4CBD59B01AC01C801B70193D3609341
S113339008087093090880930A0890930B08E2C008
S11333A06C3209F043C084E090E090938B058093E5
S11333B08A058091920590919305089789F48091EC
S11333C0080890910908A0910A08B0910B08B05818
S11333D08093080890930908A0930A08B0930B08F7
S11333E087E090E0909393058093920500D000D0FD
S11333F0EDB7FEB731968FEE93E091838083809191
S1133400080890910908A0910A08B0910B088283DA
S11334109383A483B5830E94CE268DB79EB7069668
S11334200FB6F8949EBF0FBE8DBF9CC06D3239F4A9
S113343088E090E0909393058093920593C084EE86
S113344093E00E94DF2681E090E090938B058093C7
S11334508A0588C0862F80538A3028F570E060532F
S11334607040882777FD8095982F2AD47B018C01A2
S113347060918E0570918F058091900590919105D2
S113348020E030E040E251E448D59B01AC01C801A2
S1133490B70110D360938E0570938F0580939005C8
S11334A0909391055FC06A3209F049C080919205FA
S11334B090919305089789F480918E0590918F05DA
S11334C0A0919005B0919105B05880938E0590938A
S11334D08F05A0939005B093910587E090E09093B9
S11334E093058093920500D000D0EDB7FEB73196D6
S11334F080E094E09183808380918E0590918F0584
S1133500A0919005B091910582839383A483B583A0
S11335100E94CE2686E090E090938D0580938C05E2
S113352081E090E090938B0580938A058DB79EB7D8
S113353006960FB6F8949EBF0FBE8DBF13C06D32B2
S113354039F488E090E090939305809392050AC043
S113355081E194E00E94DF2681E090E090938B0566
S113356080938A0580E090E01F910F91FF90EF9087
S113357008952F923F924F925F926F927F928F9213
S11335809F92AF92BF92CF92DF92EF92FF920F93EE
S11335901F93DF93CF93CDB7DEB76C970FB6F89434
S11335A0DEBF0FBECDBF60E071EE80E090E00E9410
S11335B0CE0680E090E061E070E00E94580381E074
S11335C090E061E070E00E94580382E090E061E0E6
S11335D070E00E945803789480E197E220E931E09A
S11335E0F9013197F1F70197D9F780E090E0A4E36E
S11335F0B3E48D879E87AF87B88B898B9A8BAB8B0F
S1133600BC8B8D8B9E8BAF8BB88F81E090E06EE18D
S113361070E040E058E00E94E00269897A898B8971
S11336209C891BD3882777FD8095982F49D328E759
S11336303BE046E351E471D410D39B01AC0182E03A
S113364090E06EE170E0A9010E94E0026D897E893C
S11336508F89988D02D3882777FD8095982F30D352
S113366028E73BE046E351E458D4F7D29B01AC0190
S113367083E090E06EE170E0A9010E94E0028BE13A
S113368094E00E94DF260F2EFDE02F2E3324F02D30
S11336902C0E3D1EE6E1F8E0808191810E946026B7
S11336A05FDD892B21F084E394E00E94DF26809182
S11336B08C0590918D058630910509F093C1609138
S11336C0040870910508809106089091070820E08D
S11336D030E04AE754E459D269837A838B839C832C
S11336E0609108087091090880910A0890910B086C
S11336F020E030E04AE754E448D26D837E838F8330
S1133700988760918E0570918F05809190059091B6
S1133710910520E030E04AE754E437D2698F7A8F8C
S11337208B8F9C8F372F482F592F862F932FA42FA1
S1133730B52F89879A87AB87BC870F920F928CE34A
S113374094E0EDB7FEB7928381830E94CE26AA242B
S1133750BB240F900F90E980FA800B811C812D818E
S11337603E814F81588569857A858B859C850E9429
S1133770E408892B71F0C101C980DA80EB80FC80F8
S11337800D811E812F81388549855A856B857C85FD
S113379034DC0894A11CB11C97EEA91693E0B90679
S11337A0D1F683E694E00E94DF2649805A806B803C
S11337B07C808D809E80AF80B884EDB7FEB73E9745
S11337C00FB6F894FEBF0FBEEDBF319688E794E0C4
S11337D09183808342825382648275828682978237
S11337E0A086B186298D3A8D4B8D5C8D822F932FC7
S11337F0A42FB52F82879387A487B5870E94CE26EE
S1133800EDB7FEB73E960FB6F894FEBF0FBEEDBF00
S1133810E980FA800B811C812D813E814F8158857E
S113382069857A858B859C850E94E408892B09F437
S1133830CAC087E994E00E94DF26C101C980DA800A
S1133840EB80FC800D811E812F81388549855A8546
S11338506B857C85D2DB2D853E854F855889CA01D1
S1133860B90152D4882369F00F920F9288EA94E048
S1133870EDB7FEB7928381830E94CE260F900F90FE
S11338809BC08FEB94E00E94DF26EDB7FEB73E9716
S11338900FB6F894FEBF0FBEEDBF319683ED94E0F2
S11338A09183808342825382648275828682978266
S11338B0A086B186298D3A8D4B8D5C8D822F932FF6
S11338C0A42FB52F82879387A487B5870E94CE261D
S11338D0EDB7FEB7319686EF94E0918380838D85B2
S11338E09E85AF85B88982839383A483B5838989B0
S11338F09A89AB89BC8986839783A087B1878D8990
S11339009E89AF89B88D82879387A487B5870E94E3
S1133910CE260DB71EB70F5F1F4F8FE195E0F8015C
S1133920918380836D857E858F85988996D188273C
S113393077FD8095982FC4D128E73BE046E351E416
S1133940ECD2F801628373838483958369897A89CD
S11339508B899C8982D1882777FD8095982FB0D157
S113396028E73BE046E351E4D8D2F8016683778345
S1133970808791876D897E898F89988D6ED18827FC
S113398077FD8095982F9CD128E73BE046E351E4EE
S1133990C4D2F80162877387848795870E94CE26F4
S11339A08DB79EB70E960FB6F8949EBF0FBE8DBF0F
S11339B088E495E00E94DF26E9E0F0E0F0938D05CD
S11339C0E0938C0567CE87E595E00E94DF268BE6C1
S11339D095E00E94DF2685E090E090938D0580932A
S11339E08C0558CE0A9709F055CE6D857E858F8556
S11339F0988933D1882777FD8095982F61D128E75E
S1133A003BE046E351E489D228D19B01AC0181E03B
S1133A1090E06EE170E0A9010E94E00269897A8970
S1133A208B899C891AD1882777FD8095982F48D156
S1133A3028E73BE046E351E470D20FD19B01AC018F
S1133A4082E090E06EE170E0A9010E94E0026D89DD
S1133A507E898F89988D01D1882777FD8095982F4D
S1133A602FD128E73BE046E351E457D2F6D09B013F
S1133A70AC0183E090E06EE170E0A9010E94E002F5
S1133A8083E795E00E94DF26E5E0F0E0F0938D0502
S1133A90E0938C05FFCD9F939F774DD10F9000202D
S1133AA03AF49058A2EA2AED3FE049E450E413D0F6
S1133AB0E5C15058BB27AA270ED0E0C1A9D130F0E8
S1133AC0AED120F031F49F3F11F41EF479C10EF40D
S1133AD0E095E7FB6FC1E92FF3D180F3BA176207D2
S1133AE073078407950718F071F49EF50BC20EF462
S1133AF0E0950B2EBA2FA02D0B01B90190010C01FA
S1133B00CA01A0011124FF27591B99F0593F50F411
S1133B10503E68F11A16F040A22F232F342F442769
S1133B20585FF3CF469537952795A795F040539561
S1133B30C9F77EF41F16BA0B620B730B840BBAF031
S1133B409150A1F0FF0FBB1F661F771F881FC2F79C
S1133B500EC0BA0F621F731F841F48F487957795B0
S1133B606795B795F7959E3F08F0B3CF9395880F67
S1133B7008F09927EE0F979587950895F7D008F4E4
S1133B8081E0089554D1E3958AC10CD077C147D11F
S1133B9040F03ED130F021F45F3F19F00BC15111D8
S1133BA0B2C10EC18DD198F39923C9F35523B1F352
S1133BB0951B550BBB27AA2762177307840738F098
S1133BC09F5F5F4F220F331F441FAA1FA9F333D0F7
S1133BD00E2E3AF0E0E830D091505040E695001CAB
S1133BE0CAF729D0FE2F27D0660F771F881FBB1F67
S1133BF0261737074807AB07B0E809F0BB0B802D41
S1133C00BF01FF2793585F4F2AF09E3F510568F08C
S1133C10D1C079C15F3FECF3983EDCF3869577958C
S1133C206795B795F7959F5FC9F7880F911D96958E
S1133C30879597F90895E1E0660F771F881FBB1FEA
S1133C40621773078407BA0720F0621B730B840B97
S1133C50BA0BEE1F88F7E095089504D06894B1116B
S1133C6052C1089535D188F09F5790F0B92F992704
S1133C70B751A0F0D1F0660F771F881F991F1AF073
S1133C80BA95C9F712C0B13081F03CD1B1E00895C2
S1133C9039C1672F782F8827B85F39F0B93FCCF343
S1133CA0869577956795B395D9F73EF49095809569
S1133CB0709561957F4F8F4F9F4F0895E89409C089
S1133CC097FB3EF490958095709561957F4F8F4F4B
S1133CD09F4F9923A9F0F92F96E9BB279395F69561
S1133CE0879577956795B795F111F8CFFAF4BB0FDF
S1133CF011F460FF1BC06F5F7F4F8F4F9F4F16C043
S1133D00882311F096E911C0772321F09EE8872FCC
S1133D10762F05C0662371F096E8862F70E060E088
S1133D202AF09A95660F771F881FDAF7880F969501
S1133D30879597F90895DF93CF931F930F938B0182
S1133D40EC01ECECF0E03FD099D09801AE018B018E
S1133D50EC0160E070E080E89FE3ABDE97D198016E
S1133D60AE010F911F91CF91DF91E3C0990F00082D
S1133D70550FAA0BE0E8FEEF16161706E807F90739
S1133D80C0F012161306E407F50798F0621B730BD4
S1133D90840B950B39F40A2661F0232B242B252B55
S1133DA021F408950A2609F4A140A6958FEF811DF8
S1133DB0811D089597F99F6780E870E060E0089599
S1133DC09FEF80EC0895DF93CF931F930F93FF929F
S1133DD0EF92DF927B018C01689405C0DA2EEF012B
S1133DE0A8D0FE01E894A59125913591459155916E
S1133DF0AEF3EF0170DEFE019701A801DA9479F7C2
S1133E00DF90EF90FF900F911F91CF91DF91089574
S1133E1000240A94161617061806090608950024A5
S1133E200A9412161306140605060895C9CF50D035
S1133E30E8F3E894E0E0BB279F57F0F02AED3FE079
S1133E4049EC06C0EE0FBB0F661F771F881F28F0D2
S1133E50B23A62077307840728F0B25A620B730BF5
S1133E60840BE3959A9572F7803830F49A95BB0FDA
S1133E70661F771F881FD2F790487DC1092E0394CF
S1133E80000C11F4882352F0BB0F40F4BF2B11F443
S1133E9060FF04C06F5F7F4F8F4F9F4F0895EF9374
S1133EA0E0FF06C0A2EA2AED3FE049EC5FEB13DE37
S1133EB0E5DF0F90039401FC9058E4EFF0E06EC14D
S1133EC057FD9058440F551F59F05F3F71F04795C7
S1133ED0880F97FB991F61F09F3F79F087950895AC
S1133EE0121613061406551FF2CF4695F1DF08C0CB
S1133EF0161617061806991FF1CF869571056105E8
S1133F0008940895E894BB2766277727CB0197F98F
S1133F1008952CDF08F48FEF08950BD0AFCF78DF2E
S1133F2028F07DDF18F0952309F044CF49CF112400
S1133F30EACFC6DFA0F3959FD1F3950F50E0551F4C
S1133F40629FF001729FBB27F00DB11D639FAA27EA
S1133F50F00DB11DAA1F649F6627B00DA11D661F39
S1133F60829F2227B00DA11D621F739FB00DA11D5A
S1133F70621F839FA00D611D221F749F3327A00D14
S1133F80611D231F849F600D211D822F762F6A2FB0
S1133F9011249F5750408AF0E1F088234AF0EE0F35
S1133FA0FF1FBB1F661F771F881F91505040A9F742
S1133FB09E3F510570F0FECEA6CF5F3FECF3983ED6
S1133FC0DCF3869577956795B795F795E7959F5FA9
S1133FD0C1F7FE2B880F911D9695879597F9089543
S1133FE0FA01EE0FFF1F30962105310599F1611595
S1133FF0710561F48038BFE39B0749F168949038F8
S1134000810561F08038BFEF9B0741F0992342F5A9
S1134010FF3FE1053105210511F1E8940894E79586
S1134020D901AA2329F4AB2FBE2FF85FD0F310C017
S1134030FF5F70F4A695E0F7F73950F019F0FF3AF6
S113404038F49F779F930CD00F9007FC90580895F5
S11340503EF0B6CE60E070E080E89FE308954FE75D
S11340609F775F934F933F932F93EBD02F913F9183
S11340704F915F9152DF51C09F93D9DE0F9007FC9F
S1134080EE5F0DCF11F40EF49BCE73C021DFD0F39D
S11340909923D9F3CEF39F57550B87FF78D000248B
S11340A0A0E640EA900180585695979528F4805CE4
S11340B0660F771F881F20F026173707480730F44C
S11340C0621B730B840B202931294A2BA695179464
S11340D00794202531254A2758F7660F771F881F34
S11340E020F026173707480730F4620B730B840B54
S11340F0200D311D411DA09581F7B901842F9158E0
S1134100880F96958795089531DE880B990B08954D
S113411019F40EF04FCEF6CE53CEDADEC8F396384D
S1134120C0F707F80F92E8942BE33AEA48EB5FE70D
S113413002DF0F920F920F924DB75EB70F92C1D06C
S1134140E2E1F1E040DE4F915F91EF91FF91E5955F
S1134150EE1FFF1F49F0FE57E0684427EE0F441F8F
S1134160FA95E1F74195550B33D00F9007FE27C020
S113417008959F3F31F0915020F487957795679586
S1134180B795880F911D9695879597F90895915045
S11341905040660F771F881FD2F708959F938F931F
S11341A07F936F93FF93EF939B01AC01B6DEEF9186
S11341B0FF9109DE2F913F914F915F91AECE9B010C
S11341C0AC0160E070E080E89FE3DFCCF3CDD1CFB9
S11341D07FDEE8F39923D9F3940F511DBBF391507B
S11341E0504094F059F0882332F0660F771F881FEF
S11341F091505040C1F79E3F510544F7880F911DDF
S11342009695879597F908955F3FACF0983E9CF09A
S1134210BB27869577956795B79508F4B160939514
S1134220C1F7BB0F58F711F460FFE8CF6F5F7F4F02
S11342308F4F9F4FE3CF67CE0EF09BCFC1CD6894D5
S1134240B9CD46DEC8F39923D1F3C6F3DF93CF93F8
S11342501F930F93FF92C92FDD2788232AF02197FC
S1134260660F771F881FDAF720E030E040E85FEB45
S11342709FE3883920F0803E30F021968F771ADC56
S1134280EAE3F1E003C016DCE7E6F1E09CDD8B0134
S1134290BE01EC01FB2E6F5771097595771F880BD2
S11342A0990B0EDD28E132E741E35FE342DEAF2DF7
S11342B09801AE01FF900F911F91CF91DF910BDC1C
S11342C0DDCDFA01DC01AA0FBB1F9B01AC01BF5776
S11342D028F422273327442750781FC0B75188F485
S11342E0AB2F0024469537952795011CA395D2F34F
S11342F0002069F0220F331F441FB395DAF30DD069
S1134300D8CB61307105A0E88A07B94630F49B0127
S1134310AC016627772788279078309621F0208390
S113432031834283538308952F923F924F925F9239
S11343306F927F928F929F92AF92BF92CF92DF92B1
S1134340EF92FF920F931F93DF93CF93CDB7DEB716
S113435061970FB6F894DEBF0FBECDBF3C017F87D7
S11343606E876A01FC0117821682838181FD03C076
S11343706FEF7FEF52C39E012F5F3F4F398B288B26
S1134380F3012381EE85FF8523FD859123FF819130
S1134390FF87EE87882309F43DC3853251F4EE8507
S11343A0FF8523FD859123FF8191FF87EE87853269
S11343B021F490E0B301C6D4E3CF982F10E0882411
S11343C099241032B0F49B3269F09C3228F4903274
S11343D051F0933271F40BC09D3239F0903349F4AB
S11343E0116028C01260146025C0186023C01061D9
S11343F021C017FD2AC0892F80538A3078F416FF14
S113440006C0FAE09F9E902C1124980E13C03AE047
S1134410839E802C1124880E10620CC09E3221F4DD
S113442016FDF8C2106406C09C3611F4106802C070
S1134430983659F4EE85FF8523FD959123FF9191DC
S1134440FF87EE87992309F0BCCF892F85548330E9
S113445020F4812F8061905E07C0892F85568330B8
S113446008F08FC1812F8F7E86FD02C076E0972EE3
S11344706FE3F62EF822953619F4F0E4FF2A07C00C
S1134480963619F420E8F22A02C091109A94F7FEA5
S11344900AC03BE3391518F45CE3B52E02C0B92C0D
S11344A0B39427E009C047E0491520F4BB2447E052
S11344B0942EF7CF292DBB24C60104969D878C87A3
S11344C0F6016081718182819381AE014F5F5F4FFC
S11344D00B2DBDD26C010981202E332400FF04C0B2
S11344E003FD02C01DE209C0F1FE02C01BE205C0CB
S11344F0F2FC02C010E001C010E2C1018C709070A7
S1134500892BA1F1112311F483E001C084E0881503
S113451010F0882409C0881AF3FC06C080E290E0F9
S1134520B30110D48A94D1F7112321F0812F90E0A4
S1134530B30108D423FE03C004E911E00DC008E967
S113454011E00AC0E114F10409F0805290E0B301D3
S1134550F9D30F5F1F4F05C0EF2CFF24F0E1EF22CA
S1134560FF24F8018491882369F708C1F7FE12C07B
S1134570BC0C24FE04C08A81813309F4BA941B1450
S11345801CF0BB24B3942DC0F8E0FB1550F538E0C3
S1134590B32E27C0F6FC25C0892D90E08C159D050F
S11345A04CF02CEFC2162FEFD20624F030E8F32A99
S11345B001C09A94992049F0E2E0F0E0EC0FFD1F6D
S11345C0E90DF11D80818033A1F3F7FE0AC0B92CF7
S11345D0B394892D90E0C816D90614F0992401C02B
S11345E09C18F7FC03C025E030E009C01C141D042E
S11345F01CF021E030E003C096012F5F3F4F1123F0
S113460011F02F5F3F4F992029F0892D90E00196FA
S1134610280F391F882D90E02817390714F08824B3
S113462001C0821A4F2C5524C20189709070892BC5
S113463031F007C080E290E0B30184D38A948820EB
S1134640C9F7112321F0812F90E0B3017BD343FEFE
S113465006C007C080E390E0B30174D38A94882035
S1134660C9F7F7FE44C08601D7FE02C000E010E09F
S113467076010894E11CF11CE01AF10A41E050E0D3
S11346804C0F5D1FE40EF51E26014B185108892DB1
S113469090E0AA24BB24A81AB90A5FEF0F3F1507BC
S11346A021F48EE290E0B3014DD3C016D10634F06C
S11346B0401651061CF4F701808101C080E30150CB
S11346C010400894E11CF11C0A151B0524F090E02D
S11346D0B30138D3E2CF0C151D0539F49A81963312
S11346E018F4953311F424FE81E390E045C08A81E7
S11346F0813309F00F7E90E0B30124D3992091F027
S11347008EE290E0B3011ED312E0E1E0F0E0EC0FA2
S1134710FD1FE10FF11D1F5F808190E0B30112D3F3
S11347209A9499F744FC03C085E690E002C085E4BE
S113473090E0B30107D3D7FC05C0C114D10441F400
S113474004FF06C0D094C194D108D3948DE201C073
S11347508BE290E0B301F6D280E305C08F5F26EFD1
S11347603FEFC20ED31E3AE0C316D104BCF790E06B
S1134770B301E8D2C601C096B301E4D2CC84DD848F
S113478046C1933631F0933799F0933509F055C00B
S113479022C0F601808189835E010894A11CB11CAA
S11347A022E030E0C20ED31E21E0E22EF12C11C033
S11347B0F601A080B18016FD03C06FEF7FEF02C049
S11347C0692D70E022E030E0C20ED31EC50122D272
S11347D07C011F7712C0F601A080B18016FD03C0D2
S11347E06FEF7FEF02C0692D70E022E030E0C20E6F
S11347F0D31EC50104D27C01106813FF06C019C082
S113480080E290E0B3019ED28A94882D90E0E8166D
S1134810F906B0F30EC0F50117FD859117FF8191DC
S11348205F0190E0B3018ED281108A940894E1086C
S1134830F108E114F10479F7EAC0943611F09936DD
S113484081F517FF08C0F60120813181428153812F
S113485084E090E00AC0F601808191819C014427A4
S113486037FD4095542F82E090E0C80ED91E9FE694
S1134870F92EF12257FF09C05095409530952195A6
S11348803F4F4F4F5F4F90E8F92ACA01B901AE017B
S11348904F5F5F4F2AE030E0C7D2E82EE889EE1A76
S11348A040C0953721F41F7E2AE030E01CC0197FF8
S11348B09F3661F0903720F4983509F0ABC00FC0F3
S11348C0903739F0983709F0A5C004C028E030E0EB
S11348D00AC0106114FD146020E130E004C014FD2E
S11348E0166020E132E017FF08C0F6016081718193
S11348F08281938144E050E008C0F6018081918177
S1134900BC0180E090E042E050E0C40ED51EAE0150
S11349104F5F5F4F89D2E82E5889E51A8FE7F82E4A
S1134920F122F6FE0BC08EEFF822E91438F4F4FEFF
S113493007C0F2FC05C09FEEF92202C01E2D01C083
S1134940192DF4FE0DC0FE01EE0DF11D80818033A2
S113495019F4E9EEFE2208C01F5FF2FE05C003C091
S11349608F2D867809F01F5F0F2DF3FC13C0F0FE26
S11349700EC0181510F09E2C0AC09E2C980C911A8B
S1134980182D05C080E290E0B301DCD11F5F18153B
S1134990C8F304C0181510F4811A01C0882404FF58
S11349A00EC080E390E0B301CDD102FF1BC001FD36
S11349B003C088E790E00EC088E590E00BC0802F2C
S11349C0867881F001FF02C08BE201C080E2F7FC2F
S11349D08DE290E0B301B6D105C080E390E0B3016D
S11349E0B1D19A94E914C8F3EA94E1E0F0E0EC0F51
S11349F0FD1FEE0DF11D808190E0B301A3D1EE20E7
S1134A0099F705C080E290E0B3019CD18A94882094
S1134A10C9F7B6CCF30166817781CB0161960FB6F5
S1134A20F894DEBF0FBECDBFCF91DF911F910F91E0
S1134A30FF90EF90DF90CF90BF90AF909F908F90BA
S1134A407F906F905F904F903F902F900895283003
S1134A5008F027E03327DA01990F311D87FD9160B3
S1134A6000966105710539F432602E5F3D9330E3A1
S1134A702A95E1F708959F3F30F08038710561056C
S1134A8009F03C5F3C5F3D93913008F08068911DD4
S1134A90DF93CF931F930F93FF92EF92192F987F79
S1134AA09695E92F96959695E90FFF27EA50FE4FC4
S1134AB099273327EE24FF24A701E70105900894E2
S1134AC0079428F4360FE71EF81E491F511D660F80
S1134AD0771F881F991F0694A1F70590079428F45F
S1134AE0E70EF81E491F561FC11D770F881F991F17
S1134AF0661F0694A1F70590079428F4F80E491F41
S1134B00561FC71FD11D880F991F661F771F069454
S1134B10A1F70590079420F4490F561FC71FD81F0B
S1134B20990F661F771F881F0694A9F78491109523
S1134B30177041F0D695C79557954795F794E79424
S1134B401A95C1F7ECE9F1E0689415901591359147
S1134B506591959105907FE27395E118F10A430BF5
S1134B60560BC90BD009C0F7E10CF11E431F561FA9
S1134B70C91FD01D7EF4703311F48A95E6CFE894F2
S1134B80015030F0080F0AF40027021708F4202F10
S1134B902395022F7A3328F079E37D932A95E9F758
S1134BA010C07D932A9589F6069497956795379555
S1134BB017951794E118F10A430B560BC90BD0094A
S1134BC098F023957E9173957A3308F070E37C9383
S1134BD02013B8F77E9170617D9330F0839571E373
S1134BE07D9370E32A95E1F71124EF90FF900F91E4
S1134BF01F91CF91DF91992787FD90950895FC012E
S1134C000590615070400110D8F7809590958E0FF3
S1134C109F1F0895FC016150704001900110D8F766
S1134C20809590958E0F9F1F08950F931F93CF9398
S1134C30DF938C01EB01009731F46115710519F4D0
S1134C4020E030E037C081E090E06EE070E04AD1CF
S1134C50FC019C01009771F180E88383209771F037
S1134C60D387C28781E883838091160890911708BF
S1134C70892B21F4F0931708E09316080115110508
S1134C80C9F011870087838182608383809118082B
S1134C9090911908892B71F4F0931908E09318087E
S1134CA080911A0890911B08892B21F4F0931B081A
S1134CB0E0931A08C901DF91CF911F910F910895D4
S1134CC0CF93DF93EC014B8140FF1AC046FF0AC02B
S1134CD04F7B4B838E819F8101969F838E838A8134
S1134CE0282F2BC042FF13C0E881F9818081282F2F
S1134CF0332727FD30952115310529F440624B8374
S1134D002FEF3FEF1BC03196F983E88311C0EA858A
S1134D10FB85CE0119959C0197FF0AC09B812F5FEB
S1134D203F4F11F080E201C080E1892B8B83E8CFF3
S1134D308E819F8101969F838E8330E0C901DF912C
S1134D40CF9108950F931F93CF93DF938C01EB01C1
S1134D508B8181FF1BC082FF0DC02E813F818C811E
S1134D609D812817390764F4E881F9810193F98357
S1134D70E88306C0E885F985802F1995892B31F4DD
S1134D808E819F8101969F838E8302C00FEF1FEF58
S1134D90C801DF91CF911F910F910895DF93CF93B5
S1134DA0CDB7DEB7FE0136966191719180911808F6
S1134DB090911908AF01B8DACF91DF9108950F935C
S1134DC01F93CF93DF938C01E0911808F091190899
S1134DD0838181FF21C0C0E0D0E00DC0E0911808BC
S1134DE0F091190820853185BF01F9011995892BA6
S1134DF011F0CFEFDFEFF80181918F01882371F774
S1134E00E0911808F0911908208531858AE0BF01E6
S1134E10F9011995892B11F0CFEFDFEFCE01DF9166
S1134E20CF911F910F910895FA01AA27283051F1CB
S1134E30203181F1E8946F936E7F6E5F7F4F8F4FC7
S1134E409F4FAF4FB1E03ED0B4E03CD0670F781F26
S1134E50891F9A1FA11D680F791F8A1F911DA11D0B
S1134E606A0F711D811D911DA11D20D009F4689444
S1134E703F912AE0269F11243019305D3193DEF6EC
S1134E80CF010895462F4770405D4193B3E00FD0A2
S1134E90C9F7F6CF462F4F70405D4A3318F0495D8D
S1134EA031FD4052419302D0A9F7EACFB4E0A69570
S1134EB09795879577956795BA95C9F70097610592
S1134EC0710508959B01AC010A2E069457954795E8
S1134ED037952795BA95C9F7620F731F841F951FDD
S1134EE0A01D08950F931F93CF93DF93689F8001B4
S1134EF0699F100D789F100D1124C8010DD0EC018D
S1134F00009721F060E070E0A8010BD1CE01DF91A1
S1134F10CF911F910F910895CF93DF93BC018230FD
S1134F20910510F462E070E0A0911E08B0911F0892
S1134F30ED01E0E0F0E040E050E021C0888199819B
S1134F408617970769F48A819B81309719F09383B8
S1134F50828304C090931F0880931E08FE0134C00E
S1134F606817790738F44115510519F08417950726
S1134F7008F4AC01FE018A819B819C01E901209720
S1134F80E9F641155105A9F1CA01861B970B04974F
S1134F9008F4BA01E0E0F0E02AC08D919C911197E9
S1134FA084179507F9F46417750781F412968D91A7
S1134FB09C911397309719F09383828304C0909344
S1134FC01F0880931E08FD0132964FC0CA01861B3C
S1134FD0970BFD01E80FF91F6193719302978D936D
S1134FE09C9343C0FD01828193819C01D901109758
S1134FF0A1F680911C0890911D08892B41F48091A1
S113500086059091870590931D0880931C08409114
S11350108805509189054115510541F44DB75EB796
S11350208091840590918505481B590B20911C089B
S113503030911D0824173507B0F4CA01821B930B65
S11350408617970780F0AB014E5F5F4F8417950773
S113505050F0420F531F50931D0840931C08F90150
S11350606193719302C0E0E0F0E0CF01DF91CF9152
S11350700895CF93DF93009709F450C0EC01229771
S11350801B821A82A0911E08B0911F08109709F183
S113509040E050E0AC17BD0708F1BB83AA83FE01D2
S11350A021913191E20FF31FAE17BF0779F48D916F
S11350B09C911197280F391F2E5F3F4F3983288306
S11350C012968D919C9113979B838A834115510568
S11350D071F4D0931F08C0931E0820C012968D91BE
S11350E09C911397AD01009711F0DC01D3CFFA0125
S11350F0D383C28321913191E20FF31FCE17DF07CF
S113510069F488819981280F391F2E5F3F4FFA0176
S1135110318320838A819B8193838283DF91CF9122
S11351200895DC0101C06D9341505040E0F70895AB
S1075130F894FFCF1D
S1135134496E70757420766F6C746167652065724E
S1135144726F722100416E676C65206C696D6974BD
S1135154206572726F7221004F766572686561749E
S1135164206572726F7221004F7574206F6620720D
S1135174616E6765206572726F72210043686563AE
S11351846B73756D206572726F7221004F76657250
S11351946C6F6164206572726F722100496E73745E
S11351A472756374696F6E20636F646520657272CF
S11351B46F722100434F4D4D5F54584641494C3A58
S11351C4204661696C6564207472616E736D6974E0
S11351D420696E737472756374696F6E2070616391
S11351E46B65742100434F4D4D5F54584552524FE3
S11351F4523A20496E636F727265637420696E73E8
S11352047472756374696F6E207061636B65742165
S113521400434F4D4D5F52584641494C3A20466134
S1135224696C656420676574207374617475732094
S11352347061636B65742066726F6D206465766952
S113524463652100434F4D4D5F52585741495449BA
S11352544E473A204E6F7720726563696576696EAE
S11352646720737461747573207061636B65742152
S113527400434F4D4D5F525854494D454F55543A90
S1135284205468657265206973206E6F207374619D
S1135294747573207061636B65742100434F4D4DC5
S11352A45F5258434F52525550543A20496E636FDB
S11352B472726563742073746174757320706163AE
S11352C46B657421005468697320697320756E6B6F
S11352D46E6F776E206572726F7220636F646521DE
S11352E4000A52656164696E67205061636B65747A
S11352F42E2E2E000A41626F72742053656E64214F
S1135304210A005265616420583A20256620746895
S11353146F750A000A426164204461746121005279
S113532465616420593A2025662074686F750A0003
S113533452656164205A3A2025662074686F750AA0
S1135344000A626164204461746100496E6974698D
S1135354616C697A6174696F6E20636F6D706C65DA
S113536474652E000A4572726F72210052756E6E56
S1135374696E672066756C6C206B696E656D61740B
S1135384696373203130302C3030302074696D659A
S1135394732E000A0A4E657720696E707574207244
S11353A465636569766564000A496E20696E63689D
S11353B465733A0A583A2025660A593A2025660A3A
S11353C45A3A2025660A000A506F696E742069737C
S11353D42056616C69642E004E6F204B696E656DB6
S11353E46174696320536F6C7574696F6E2E000A5F
S11353F450726F706F73656420706F736974696F32
S11354046E3A005820506F733A2025663B20205989
S113541420506F733A2025663B20205A20506F7326
S11354243A2025660A00416E676C6520313A2025CE
S1135434663B2020416E676C6520323A2025663B2A
S11354442020416E676C6520333A2025660A004D9E
S11354546F746F7220313A2025663B20204D6F749F
S11354646F7220323A2025663B20204D6F746F7290
S113547420333A2025660A00436F6E6669726D3FD5
S11354842028792F6E2900506F696E742069732067
S11354946E6F742056616C69642E0041626F72747D
S11354A42E0A00436F6D6D616E642073656E742102
S11354B40A0001002000200800000100050000008B
S10754C408C1070010
S9030000FC
